:100000000C9467000C9484000C9484000C9484007D
:100010000C9484000C9484000C9484000C94840050
:100020000C9484000C9484000C9484000C94840040
:100030000C9484000C9484000C9484000C94840030
:100040000C9484000C9484000C9484000C94840020
:100050000C9484000C9484000C9484000C94840010
:100060000C9484000C9484000C9484000C94840000
:100070000C94840008000000BE922449123EABAAF2
:10008000AA2ABECDCCCC4C3E00000080BEABAAAAB2
:10009000AA3E00000000BF000000803F00000000FA
:1000A00000084178D3BB4387D1133D190E3CC3BD33
:1000B0004282AD2B3E68EC8276BED98FE1A93E4CE0
:1000C00080EFFFBE01C4FF7F3F000000000011244D
:1000D0001FBECFEFD4E0DEBFCDBF11E0A0E0B1E0A6
:1000E000ECE0FBE102C005900D92AC38B107D9F706
:1000F00011E0ACE8B1E001C01D92A93CB107E1F705
:100100000E94FD090C94840D0C9400009C01FC01DC
:10011000FF2784A1832B84A395A1892F832B85A3FB
:1001200081E00895E091AE01F091AF01EE0FFF1F65
:10013000EC58FE4F20813181F901FF2795A1932BC7
:1001400095A3EEE7F1E020E030E090E0AC01022E74
:1001500002C0559547950A94E2F740FF0AC04081D6
:100160005181DA01BB2795964C919597509545237F
:1001700008C040815181DA01BB2795964C91959733
:10018000452B95964C932F5F3F4F32962730310584
:10019000E9F670E0FB01EE0FFF1FEC58FE4F808187
:1001A0009181FC01FF2785A19095892385A37093F8
:1001B000AF016093AE0108956091BA01E62FF0E0BF
:1001C000EE5BFE4F80810E9492008091BA018F5FAA
:1001D000853018F48093BA0102C01092BA01809160
:1001E000A501882349F080914201882329F00E94CB
:1001F000A3071092A50109C08091A701882329F0C7
:100200008091420181110E94A3070E946C068823FD
:1002100051F08091A9019091AA01019711F40C94D9
:10022000BD070C94D90708950E9431080E946E08FA
:100230000E9499080E941B090E94DB090C942A095C
:100240000E9496010E94D8058091A9019091AA016F
:10025000892B11F40E94B3078091A9019091AA0102
:10026000029711F40C9414010895E1E6F0E080E89F
:1002700080831082A89584B7877F84BFE0E6F0E092
:10028000808188618083108208951092800084E0CC
:1002900080938100109285001092840008958091CF
:1002A0008400909185000895AC0180918400909124
:1002B00085009C01241B350B283E3340B0F7089580
:1002C0002091840030918500820F931F0C9454017B
:1002D00081110CC080918C01882329F080918D01BF
:1002E00091E0892701C080E08170089580E0089541
:1002F00081110AC080918C01811103C080918D0110
:1003000001C080E08170089580E00895811103C0EC
:1003100080918C01089580E00895811105C080913D
:100320008C0191E08927089580E00895ECE8F1E0E0
:10033000808180938D0189B1881F8827881F8083E1
:10034000089557985F9808958530A0F4673090F429
:1003500021E030E0062E01C0220F0A94EAF7E82FD0
:10036000F0E0E157FE4F822F809590818923411163
:10037000822B80830895853088F4673078F4E82FE5
:10038000F0E0E157FE4F21E030E0062E01C0220FE1
:100390000A94EAF79081922381E009F480E00895BD
:1003A00060918E01E62FF0E0E157FE4F80810E94C0
:1003B0001F0280918E018F5F853018F480938E012B
:1003C000089510928E01089510928F01109290015D
:1003D00010929101109292011092930108950E943F
:1003E000FD010C94E401FC01FF2784A1892B84A367
:1003F00085A1892B85A381E00895CF93DF93C7E57D
:10040000D1E0899199910E94F30181E0C536D80726
:10041000C1F783E090E40E94F30180E090E80E943D
:10042000F30183E090E10E94F30183E090E80E94F1
:10043000F30183E090E2DF91CF910C94F301E0911E
:100440009401F0E0EE0FFF1FE35BFE4F208131814E
:10045000F901FF2795A1932B95A3E7E5F1E0208112
:100460003181D901BB2780FF07C095962C919597C4
:10047000932F9095922304C095969C919597932BDA
:1004800095969C938695329691E0E536F90739F773
:10049000E62FF0E0EE0FFF1FE35BFE4F80819181BE
:1004A000FC01FF2725A1892F8095822385A36093D6
:1004B00094010895009789F0FC012381621B67FD78
:1004C00009C0772767FD7095248130E081E06217CD
:1004D00073070CF080E08170089580E00895CF9359
:1004E000DF93FC01822F309789F19181491770F5D4
:1004F0002281821758F52381621B67FD27C0A62F32
:10050000BB27A7FDB095C481D0E0AC17BD07F4F4BC
:10051000692F0E94FA0C480F658170E0CD010E949E
:10052000030DDC011696842F869586958695AE0F71
:10053000BF1FA80FB11D2C9130E0477002C0359548
:1005400027954A95E2F7822F817001C080E0DF9104
:10055000CF910895CF93DF93EC010E9445019E0156
:1005600040E050E062E17AE780E090E00E94340DE4
:100570003093980120939701DF91CF910895809156
:100580009501909196010E9454018091950190915E
:1005900096012091970130919801820F931F9093BB
:1005A000960180939501089541E0611101C040E0FA
:1005B000692F0C94A401692F0C94BB0141E06111D7
:1005C00001C040E0692F0C94A4016F927F928F923A
:1005D0009F92AF92BF92CF92DF92EF92FF920F93D2
:1005E0001F93CF93DF931F92CDB7DEB7862EB42E25
:1005F0006C01862F992787FD90958C199109C7FC6E
:100600009395072F112707FD10950D191109D7FC98
:10061000139597FD03C0AA24A39402C0AA24AA9408
:1006200017FD03C09924939402C099249A943C0125
:1006300097FF03C071946194710817FF03C011956F
:10064000019511096016710694F07301F594E79411
:10065000C81409F16B2DC6010E94DE02E01AF10AEE
:10066000F7FE03C0E60CF71CD90CCA0CF1CF7801D9
:10067000F594E794D71679F06B2DC60179830E9423
:10068000DE02E618F7087981F7FE03C0E00EF11EDE
:10069000CA0CD90CEFCF6B2DC6010F90DF91CF9113
:1006A0001F910F91FF90EF90DF90CF90BF90AF9090
:1006B0009F908F907F906F900C94DE02FF920F932B
:1006C0001F93CF93DF93182FF92E062FC72FD42F08
:1006D000792F0E94E5024D2F612F7C2F812F9F2DB6
:1006E0000E94E5024D2F602F7C2F802F9F2D0E94AE
:1006F000E5024D2F602F7C2F812F9C2F0E94E50259
:10070000DF91CF911F910F91FF9008950E94E40116
:100710001092110110920C010895DF92EF92FF9256
:100720000F931F93CF93DF93E82E8B01F62ED12EDC
:100730002091020130910301D0E02130310599F57B
:10074000D12EDD1AE0910801F09109018181C0E00C
:10075000D817B8F4E0910801F09109018281C81717
:1007600070F42C2F4D2F6E2DCF010E946F02682F39
:100770008C2F800F9D2D0E94DE02CF5FEBCFDF5FBD
:10078000DFCFE0910801F09109018281C81740F4A0
:1007900060E08C2F800F9D2D0E94DE02CF5FF1CF95
:1007A000DA9430C0DF5FFD2EF00EE0910801F09189
:1007B00009018181C0E0D817A8F4E0910801F09107
:1007C00009018281C81770F72C2F4D2F6E2DCF0194
:1007D0000E946F02682F8F2D9C2F910F0E94DE02C6
:1007E000CF5FEBCFE0910801F09109018281C8173A
:1007F00040F460E08F2D9C2F910F0E94DE02CF5FAE
:10080000F1CFF3948F2D9D2DDF91CF911F910F91FB
:10081000FF90EF90DF9008951F93CF93DF93182FF1
:10082000EC019C2F911B8991882349F00E948D0334
:10083000BC019C2F911B653014F477FFF2CF892FF8
:10084000DF91CF911F9108950F931F93CF93DF9363
:10085000EC019B0110920C0140930D0110921001CC
:1008600000910801109109010115110509F448C012
:10087000F8018181609106017091070190E00E946A
:10088000030DBC0180910A0190910B010E94200D83
:10089000CB016AE070E00E94030D90930F018093FA
:1008A0000E01309305012093040140E250E0BE01A7
:1008B00081E191E00E94750D80910001909101010C
:1008C0000197F1F4FE0101900020E9F7CF010197B3
:1008D000F801618170E06F5F7F4F8C1B0E94FA0C02
:1008E000815020910201309103012130310511F432
:1008F00097E001C095E0981718F48EEF80931001EF
:10090000DF91CF911F910F910895209102013091B5
:1009100003012130310511F476E001C070E04FEFA2
:1009200060E00E942404089590E090930701809372
:10093000060108959093010180930001089590931A
:1009400003018093020108959093090180930801A7
:100950000895CF938091990190919A010196909377
:100960009A018093990120910E0130910F01821715
:10097000930708F468C010929A0110929901E091CF
:100980000C01F0E0E050FF4F818981110AC0809195
:100990000D01823008F457C0815080930D011092F0
:1009A0000C01C0910C018C2F90E0FC01E050FF4F36
:1009B0002189222309F447C02091000130910101CF
:1009C000409110012115310521F02130310589F0C8
:1009D00022C0411120C060910401709105018F5E19
:1009E0009E4F0E940C049FEF9C0F980F90930C0158
:1009F00012C06091040170910501209102013091B3
:100A000003012130310511F4740F01C0641B8F5EA6
:100A10009E4F0E940C04209110012F5F2093100123
:100A2000332727FD3095E0910801F091090181817C
:100A300090E0821793073CF41092100180910C0112
:100A40008F5F80930C01CF910C94D00190930B0198
:100A500080930A010E94EF0184E190E090930701E6
:100A6000809306010C948603182F092FF62E0E94FE
:100A700045010E944F01C12FD02F8E819F810E947E
:100A80005401E881F9818A819B8109952E813F81FA
:100A90008C819D81280F391F3F832E830E944F0137
:100AA000E12FF02F2FEF3FEF60E06F1531F3AE2F06
:100AB0007F2F468157816C01C41AD50AA601BFEF6A
:100AC000CB16BFE7DB0610F4EF01D7CF5195419568
:100AD00051094217530718F0A901AC2F7D2F6F5F02
:100AE00038969A01CA2FD72FE0CF6230710511F1E5
:100AF00060F46130710551F5FC01FF2784A19095E8
:100B0000892384A385A189231EC06330710541F028
:100B100064307105D9F4FC01FF2784A1892B10C032
:100B2000FC01FF2784A1892B84A325A1892F80950F
:100B3000822309C0FC01FF2784A1292F209582234D
:100B400084A385A1892B85A381E0089580E0089581
:100B5000E82FF0E0EE0FFF1FE556FE4F808188235F
:100B600021F0818191E0892701C080E081700895A2
:100B7000E82FF0E0EE0FFF1FE556FE4F8081811158
:100B800002C0818101C080E081700895E82FF0E00B
:100B9000EE0FFF1FE556FE4F80810895E82FF0E02D
:100BA000EE0FFF1FE556FE4F908181E089270895E3
:100BB0004F925F927F928F929F92AF92BF92CF920D
:100BC000DF92EF92FF920F931F93CF93DF9300D0AA
:100BD000CDB7DEB75BE9452E51E0552E6CE9E62E28
:100BE00061E0F62E75E6A72E71E0B72EE6E07E2EC8
:100BF000F2018081F7018083F501019111915F017C
:100C00006801DD24F60184A1812E992425A130E01C
:100C10002821392141E0232B09F440E090E088218C
:100C20009921892B29F0442341F024E030E00AC0C7
:100C3000442331F022E030E005C023E030E002C080
:100C400021E030E064E070E0C80129833A830E942B
:100C5000750562E070E0C8010E947505872D8A95D0
:100C6000F1F7F60183A190E08821992141E02981E3
:100C70003A81892B09F040E0F2014083B901C801B3
:100C80000E947505F2E04F0E511C82E0E80EF11C47
:100C9000E5EA4E16E1E05E0609F0AACF0F900F904C
:100CA000DF91CF911F910F91FF90EF90DF90CF9048
:100CB000BF90AF909F908F907F905F904F900895DE
:100CC0000895811105C0662311F0429A0895429853
:100CD00008953A9A429A08950C94D3060C94F40617
:100CE0000C94D9060C94DF060C94E5060E94E506E8
:100CF0000E94DF068823E1F38CE291E00197F1F78F
:100D00000E94D30681110C946E0608950C94FB0684
:100D1000CF93DF9300D01F92CDB7DEB780ED90E088
:100D20009A83898388E08B83509A589A0E9470072F
:100D30008FE690E00E94070781E090E00E945F0745
:100D400061E070E081E090E00E944B070E9437076D
:100D5000CE0101960E94BB060F900F900F90DF917D
:100D6000CF9108959C01215031093093CD008150DD
:100D70008093CC000895CF93DF93EC018881998113
:100D80000E94B2068A819BEF980F943008F088E0A9
:100D900098E19093C9008550880F8093CA0081E044
:100DA000DF91CF9108958091C800881F8827881F00
:100DB00008958091C80085FB882780F90895809167
:100DC000C80086FB882780F90895CF93C82F0E941A
:100DD000D9068823E1F39091C80090649093C800ED
:100DE000C093CE00CF9108958091C80087FFFCCFBB
:100DF0008091CE000895CF93DF93EC0189918823F1
:100E000019F00E94E506FACFDF91CF910895CF93B4
:100E1000DF931F92CDB7DEB79E012F5F3F4F45E0B6
:100E20006FE671E00E947A0791E0980F909331018C
:100E30009981915097BD18BC95B5977039F025B53B
:100E4000909131019770287F922B95BD298130E0D8
:100E5000E82FF0E0E159FE4FC901008002C0880F81
:100E6000991F0A94E2F70F90DF91CF91089585B30F
:100E7000897F85BB95B5809131018770987F892BDB
:100E800085BD089585B5887F85BD089585B382FBAE
:100E9000882780F90895009719F0019741F0089587
:100EA00084B56295660F660F607C8F7305C084B54C
:100EB00063706295607F8F7C682B64BD0895009796
:100EC00041F0019759F484B58E7F84BD84B582606A
:100ED00002C084B58C7F84BD81E0089580E00895D0
:100EE00014BC15BC16BC18BC81E090E00E945F07E2
:100EF00081E00895CF93DF93D62FFB0160E070E08F
:100F0000A1E0B0E05E2F5D1B5417B8F4C191BD01A4
:100F10000C2E02C0660F771F0A94E2F76F5F7F4FB7
:100F200076956795680F791F02C076956795CA9583
:100F3000E2F76F3F710509F028F7F9016083852F0B
:100F4000DF91CF9108958091420190E00E941008B6
:100F50009091AD01890F0E94760681E08093A601F1
:100F60001092A701089583E50E94760681E090E043
:100F70009093AA018093A90108950E946E0683357B
:100F800061F482E090E09093AA018093A90188E047
:100F90008093450182E40C947606823449F481E022
:100FA0008093A80182E090E09093AA018093A90128
:100FB00008950E946E06982F97709093BB018871D8
:100FC000803131F481E08093AB018093B10107C09F
:100FD000883029F481E08093AB018093B001973091
:100FE00059F0892F90E00E9422080E94FD0780930B
:100FF000420181E08093AB010895E82FEF70F0E0AB
:10100000EE5CFE4F9081990F990F990FE82FE695AE
:10101000E695E695F0E0EE5CFE4F8081892B089521
:10102000682F70E080E090E00E94090B0E949F0B07
:1010300028E132E741E35FE30E94680A0E94DA0A8E
:10104000862F089521E030E040E050E090E048171E
:1010500059072CF4220F331F4F5F5F4FF8CF822FB9
:10106000089582E00E94A805882381F080914601BE
:10107000803760F4880F809346018091AC01811124
:1010800005C080914501880F8093450180E00E9452
:10109000A805882381F080914601883060F086950C
:1010A000809346018091AC01811105C0809145017A
:1010B0008695809345018091A80181110EC0809191
:1010C000AC0181110AC084E00E94A805882329F0A0
:1010D00081E08093A5018093AC0108958091AC01DB
:1010E0008823F1F08091490190914A0197FD18C041
:1010F00020914B0130914C01F901EE5BFE4F408194
:10110000DC01AE5BBE4F4C9310822150310930930D
:101110004C0120934B01019790934A018093490120
:101120008091A601882321F0109242011092A6011D
:1011300008958091B901882331F08091C401809392
:1011400046011092B901089583E090E09093C601A2
:101150008093C50182E090E09093C8018093C7011D
:1011600081E08093B3018093A7011092B60180E1E2
:101170008093AD01089583E090E09093C101809346
:10118000C00182E090E09093BF018093BE0181E0B6
:101190008093B4018093A7011092AD01089583E07C
:1011A00090E09093C3018093C20182E090E090931D
:1011B000BD018093BC0181E08093B2018093A701BF
:1011C0001092B50188E08093AD0108959091460199
:1011D00020914501822F892B891751F09093C401EA
:1011E000809346011092450181E08093B9010895F2
:1011F00067E00E94140D821302C00C94A40890E0D2
:10120000880F991F30E08217930711F40C94BB08E4
:101210000C94CF0881E090E09093480180934701BF
:101220001092B8011092B7011092AB011092B10167
:101230001092B00108958091AB01882351F0809104
:10124000470190914801049721F40E94E6080C940C
:101250000A0908958091AB01882399F120914701F3
:10126000309148012430310564F54091B101F90114
:10127000EE5BFE4F8091B7019091B801442331F0AD
:10128000DC01AE5BBE4F4C91440F0BC04091B001EE
:10129000DC01AE5BBE4F442319F04C91469501C072
:1012A0004C914083FC01EE5BFE4F108201969093BF
:1012B000B8018093B7012F5F3F4F309348012093CF
:1012C000470108958091BE019091BF012091C00116
:1012D0003091C101F901EE5BFE4F4081DC01AE5B54
:1012E000BE4F4C931082215031093093C10120939D
:1012F000C00101979093BF018093BE010895409172
:10130000C5015091C601FA01EE5BFE4F808120912C
:10131000C7013091C801D901AE5BBE4F803439F0AE
:101320009091B601911103C0880F8C9308C08695E7
:101330008C9381E08093B60180E18093AD011082AF
:10134000415051095093C6014093C50121503109C4
:101350003093C8012093C70108954091C201509174
:10136000C301FA01EE5BFE4F80812091BC013091F8
:10137000BD01D901AE5BBE4F813039F09091B5010E
:10138000911103C086958C9308C0880F8C9381E0DF
:101390008093B50188E08093AD01108241505109DE
:1013A0005093C3014093C201215031093093BD01D4
:1013B0002093BC0108958091B401882339F0809175
:1013C000BE019091BF0197FF0E9462098091B30115
:1013D000882339F08091C7019091C80197FF0E943E
:1013E0007F098091B201882339F08091BC019091EE
:1013F000BD0197FF0C94AD0908950F931F93CF93F0
:10140000DF93CDB7DEB760970FB6F894DEBF0FBE9F
:10141000CDBF0E9435010E94880680E090E40E94C2
:10142000860080E090E20E94860080E090E10E94C9
:10143000860080E098E00E94860080E094E00E94B0
:10144000860080E092E00E94860080E091E00E94A9
:10145000860083E090E40E94860080E090E80E948D
:10146000860083E090E10E94860083E090E80E947D
:10147000860083E090E20E9486008E010F5F1F4F7E
:1014800080E1F80111928A95E9F78CED90E09A835A
:1014900089838DE790E09E838D8380E291E09A8737
:1014A000898780E791E19E878D870E94A10162E094
:1014B000C8010E94340580E090E060960FB6F89471
:1014C000DEBF0FBECDBFDF91CF911F910F91089569
:1014D0000E947C0A0C945D0B0E94560B58F00E94EF
:1014E0004F0B40F029F45F3F29F00C94460B51114B
:1014F0000C94910B0C944C0B0E946E0B68F3992387
:10150000B1F3552391F3951B550BBB27AA276217FF
:101510007307840738F09F5F5F4F220F331F441F0C
:10152000AA1FA9F335D00E2E3AF0E0E832D0915040
:101530005040E695001CCAF72BD0FE2F29D0660F2D
:10154000771F881FBB1F261737074807AB07B0E870
:1015500009F0BB0B802DBF01FF2793585F4F3AF076
:101560009E3F510578F00C94460B0C94910B5F3F15
:10157000E4F3983ED4F3869577956795B795F795FC
:101580009F5FC9F7880F911D9695879597F90895E4
:10159000E1E0660F771F881FBB1F62177307840780
:1015A000BA0720F0621B730B840BBA0BEE1F88F78F
:1015B000E09508950E94760B88F09F5798F0B92F18
:1015C0009927B751B0F0E1F0660F771F881F991F78
:1015D0001AF0BA95C9F714C0B13091F00E94900B7F
:1015E000B1E008950C94900B672F782F8827B85F8F
:1015F00039F0B93FCCF3869577956795B395D9F7D0
:101600003EF490958095709561957F4F8F4F9F4FD9
:101610000895E89409C097FB3EF4909580957095E5
:1016200061957F4F8F4F9F4F9923A9F0F92F96E92E
:10163000BB279395F695879577956795B795F111A3
:10164000F8CFFAF4BB0F11F460FF1BC06F5F7F4F40
:101650008F4F9F4F16C0882311F096E911C0772352
:1016600021F09EE8872F762F05C0662371F096E85B
:10167000862F70E060E02AF09A95660F771F881F2A
:10168000DAF7880F9695879597F9089597F99F67E8
:1016900080E870E060E008959FEF80EC08950024FA
:1016A0000A941616170618060906089500240A94C7
:1016B00012161306140605060895092E0394000C4D
:1016C00011F4882352F0BB0F40F4BF2B11F460FFDC
:1016D00004C06F5F7F4F8F4F9F4F089557FD905805
:1016E000440F551F59F05F3F71F04795880F97FBE6
:1016F000991F61F09F3F79F08795089512161306A0
:101700001406551FF2CF4695F1DF08C016161706CE
:101710001806991FF1CF8695710561050894089503
:10172000E894BB2766277727CB0197F9089516F031
:101730000C94C50C0C944C0B68940C94460B0E94B2
:10174000760BA8F39923C1F3AEF3DF93CF931F93E6
:101750000F93FF92C92FDD2788232AF02197660F68
:10176000771F881FDAF720E030E040E85FEB9FE367
:10177000883920F0803E38F021968F770E94590CEE
:10178000E4E7F0E004C00E94590CE1EAF0E00E94B6
:10179000D30C8B01BE01EC01FB2E6F5771097595BF
:1017A000771F880B990B0E940B0B28E132E741E36E
:1017B0005FE30E94F50BAF2D9801AE01FF900F91F2
:1017C0001F91CF91DF910E94700C0C945D0B0E94D1
:1017D0004F0B38F00E94560B20F0952311F00C941B
:1017E000460B0C944C0B0C94910B0E946E0B78F3EF
:1017F0009923C9F35523B9F3950F50E0551FAA2734
:10180000EE27FF27BB2700240894679520F4E20FFA
:10181000F31FB41F0A1E220F331F441FAA1F669511
:10182000A9F7779530F4F30FB41F0A1E121E08F4BF
:101830006395330F441FAA1F221F769599F787954A
:1018400020F4B40F0A1E121E631F440FAA1F221F8A
:10185000331F8695A9F7862F712D602D11249F5770
:1018600050409AF0F1F088234AF0EE0FFF1FBB1FA3
:10187000661F771F881F91505040A9F79E3F510562
:1018800080F00C94460B0C94910B5F3FE4F3983E70
:10189000D4F3869577956795B795F795E7959F5F0C
:1018A000C1F7FE2B880F911D9695879597F908959E
:1018B0005058BB27AA270E94700C0C945D0B0E9405
:1018C0004F0B38F00E94560B20F039F49F3F19F46B
:1018D00026F40C944C0B0EF4E095E7FB0C94460BAD
:1018E000E92F0E946E0B58F3BA176207730784073B
:1018F000950720F079F4A6F50C94900B0EF4E09582
:101900000B2EBA2FA02D0B01B90190010C01CA01B9
:10191000A0011124FF27591B99F0593F50F4503E64
:1019200068F11A16F040A22F232F342F4427585F56
:10193000F3CF469537952795A795F0405395C9F76E
:101940007EF41F16BA0B620B730B840BBAF0915026
:10195000A1F0FF0FBB1F661F771F881FC2F70EC0C5
:10196000BA0F621F731F841F48F487957795679598
:10197000B795F7959E3F08F0B0CF9395880F08F084
:101980009927EE0F9795879508959F3F31F09150D5
:1019900020F4879577956795B795880F911D969553
:1019A000879597F90895DF93CF931F930F93FF9235
:1019B000EF92DF927B018C01689406C0DA2EEF0172
:1019C0000E94F50BFE01E894A59125913591459172
:1019D0005591A6F3EF010E94700CFE019701A8013A
:1019E000DA9469F7DF90EF90FF900F911F91CF91FC
:1019F000DF910895002480FD060E660F11F0869594
:101A0000D1F7802D08950024552704C0080E591FD2
:101A1000880F991F009729F076956795B8F371059F
:101A2000B9F7802D952F0895991B79E004C0991F6F
:101A3000961708F0961B881F7A95C9F78095089528
:101A4000AA1BBB1B51E107C0AA1FBB1FA617B707E4
:101A500010F0A61BB70B881F991F5A95A9F7809500
:101A60009095BC01CD010895052E97FB1EF40094BE
:101A70000E944B0D57FD07D00E94530D07FC03D069
:101A80004EF40C944B0D50954095309521953F4F59
:101A90004F4F5F4F089590958095709561957F4F5A
:101AA0008F4F9F4F0895A1E21A2EAA1BBB1BFD0169
:101AB0000DC0AA1FBB1FEE1FFF1FA217B307E4072D
:101AC000F50720F0A21BB30BE40BF50B661F771F85
:101AD000881F991F1A9469F7609570958095909565
:101AE0009B01AC01BD01CF010895FB01DC01415018
:101AF000504048F001900D920020C9F701C01D929E
:0C1B000041505040E0F70895F894FFCFEA
:101B0C0000000000000014000000000000000000B5
:101B1C0000000000000000000000000000000000B9
:101B2C0000000000000000000000000000000000A9
:101B3C0000010008040C020A060E0109050D030B36
:101B4C00070F000000001C0100020003000340000E
:101B5C0080031003800320004000200010000800C8
:101B6C0004000200010380034003200080031000E6
:101B7C000306080A03400080031003800320004082
:0C1B8C000020001000080004000200010E
:00000001FF
