:100000000C9467000C9484000C9484000C9484007D
:100010000C9484000C9484000C9484000C94840050
:100020000C9484000C9484000C9484000C94840040
:100030000C9484000C9484000C9484000C94840030
:100040000C9484000C9484000C9484000C94840020
:100050000C9484000C9484000C9484000C94840010
:100060000C9484000C9484000C9484000C94840000
:100070000C94840008000000BE922449123EABAAF2
:10008000AA2ABECDCCCC4C3E00000080BEABAAAAB2
:10009000AA3E00000000BF000000803F00000000FA
:1000A00000084178D3BB4387D1133D190E3CC3BD33
:1000B0004282AD2B3E68EC8276BED98FE1A93E4CE0
:1000C00080EFFFBE01C4FF7F3F000000000011244D
:1000D0001FBECFEFD4E0DEBFCDBF11E0A0E0B1E0A6
:1000E000E4EDF9E102C005900D92AC38B107D9F703
:1000F00011E0ACE8B1E001C01D92A63CB107E1F708
:100100000E948B090C94E80C0C9400000E947E0362
:100110000E94C0078091900190919101892B49F430
:1001200083E50E945E0881E090E0909391018093C6
:1001300090018091900190919101029709F09AC1EC
:1001400082E00E949007882381F080910A01803725
:1001500060F4880F80930A0180919A01811105C093
:1001600080910901880F8093090180E00E94900727
:1001700090919A01882371F080910A01883050F0A3
:10018000869580930A01911105C080910901869599
:100190008093090180918F0181110AC0911108C0DB
:1001A00084E00E949007882319F081E080939A01EF
:1001B00080919A018823F1F08091020190910301CE
:1001C00097FD18C02091040130910501F901EA5F03
:1001D000FE4F4081DC01AA5FBE4F4C93108221503C
:1001E0003109309305012093040101979093030195
:1001F0008093020180919C01882331F08091C0019D
:1002000080930A0110929C0180919901882309F43E
:1002100074C08091000190910101049709F06DC0B4
:1002200090910A0120910901822F892B891751F0A1
:100230009093C00180930A011092090181E080939C
:100240009C014BC067E00E94780C821315C083E0CC
:1002500090E09093C3018093C20182E090E090937C
:10026000C5018093C40181E08093930180938E0146
:100270001092980180E12FC090E0880F991F30E024
:1002800082179307A1F483E090E09093BD018093DF
:10029000BC0182E090E09093BB018093BA0181E0C1
:1002A0008093940180938E011092C10116C083E067
:1002B00090E09093BF018093BE0182E090E0909324
:1002C000B9018093B80181E08093920180938E01FF
:1002D0001092970188EE8093C10181E090E09093A5
:1002E00001018093000110929601109295011092E5
:1002F000990110928D0110928C01809194018823B4
:10030000F1F08091BA019091BB0197FD18C0209146
:10031000BC013091BD01F901EA5FFE4F4081DC0173
:10032000AA5FBE4F4C931082215031093093BD011A
:100330002093BC0101979093BB018093BA018091F7
:100340009301882371F18091C4019091C50197FDBB
:1003500028C02091C2013091C301F901EA5FFE4F2C
:100360004081DC01AA5FBE4F403439F050919801C2
:10037000511103C0440F4C9308C046954C9341E083
:100380004093980140E14093C1011082215031090E
:100390003093C3012093C20101979093C5018093CC
:1003A000C40180919201882371F18091B8019091EC
:1003B000B90197FD28C02091BE013091BF01F9011C
:1003C000EA5FFE4F4081DC01AA5FBE4F413039F049
:1003D00050919701511103C046954C9308C0440FAA
:1003E0004C9341E04093970148EE4093C101108245
:1003F000215031093093BF012093BE0101979093A2
:10040000B9018093B80180919901882399F12091D5
:100410000001309101012430310564F540918D01D6
:10042000F901EA5FFE4F8091950190919601442376
:1004300031F0DC01AA5FBE4F4C91440F0BC04091DC
:100440008C01DC01AA5FBE4F442319F04C91469504
:1004500001C04C914083FC01EA5FFE4F108201967F
:1004600090939601809395012F5F3F4F3093010148
:10047000209300010895FC01FF2784A1892B84A308
:1004800085A1892B85A381E00895A82FAF70B0E0E6
:10049000A35CBE4F9C91990F990F990F86958695F5
:1004A0008695E82FF0E0E35CFE4F8081892B08956C
:1004B000682F70E080E090E00E948A0A0E941D0B85
:1004C00028E132E741E35FE30E94F6090E945E0AF9
:1004D000862F089521E030E040E050E090E048179A
:1004E00059072CF4220F331F4F5F5F4FF8CF822F35
:1004F0000895E0919D01F0919E01EE0FFF1FE35BD7
:10050000FE4F20813181F901FF2795A1932B95A3FF
:10051000E7E5F1E020E030E090E0AC01022E02C01F
:10052000559547950A94E2F740FF0BC040815181F1
:10053000DA01BB2795967C919597452F40954723E7
:1005400008C040815181DA01BB2795964C9195975F
:10055000452B95964C932F5F3F4F329627303105B0
:10056000E1F670E0FB01EE0FFF1FE35BFE4F8081C1
:100570009181FC01FF2725A1892F8095822385A3E6
:1005800070939E0160939D01089560919B01E62FF9
:10059000F0E0EA5FFE4F80810E94790280919B012A
:1005A0008F5F853018F480939B0102C010929B01ED
:1005B00080919A01811104C080918E01882389F075
:1005C00080910601882369F00E9458029091C10130
:1005D000890F0E945E081092060110929A011092F3
:1005E0008E010E945408882339F1809190019091E6
:1005F00091010197E1F40E945608833561F482E08D
:1006000090E0909391018093900188E0809309019C
:1006100082E40C945E08823479F481E080938F0147
:1006200082E090E0909391018093900108950E9460
:1006300056088871809306010895E1E6F0E080E8AD
:1006400080831082A89584B7877F84BFE0E6F0E0BE
:10065000808188618083108208951092800084E0F8
:1006600080938100109285001092840008958091FB
:100670008400909185000895AC0180918400909150
:1006800085009C01241B350B283E3340B0F70895AC
:100690002091840030918500820F931F0C943C03BD
:1006A00081110CC080919F01882329F08091A001C5
:1006B00091E0892701C080E08170089580E008956D
:1006C00081110AC080919F01811103C08091A00116
:1006D00001C080E08170089580E00895811103C019
:1006E00080919F01089580E00895811105C0809157
:1006F0009F0191E08927089580E00895EFE9F1E0F6
:1007000080818093A00189B1881F8827881F8083FA
:10071000089557985F9808958530A0F4673090F455
:1007200021E030E0062E01C0220F0A94EAF7E82FFC
:10073000F0E0EE55FE4F822F809590818923411184
:10074000822B80830895853088F4673078F4E82F11
:10075000F0E0EE55FE4F21E030E0062E01C0220F02
:100760000A94EAF79081922381E009F480E00895E9
:100770006091A101E62FF0E0EE55FE4F80810E94CE
:1007800007048091A1018F5F853018F48093A10147
:1007900008951092A10108951092A2011092A30150
:1007A0001092A4011092A5011092A60108950E9432
:1007B000E5030C94CC03FC01FF2784A1892B84A3BF
:1007C00085A1892B85A381E00895CF93DF93CFE6A0
:1007D000D1E0899199910E94DB0381E0CD37D80760
:1007E000C1F783E090E40E94DB0380E090E80E9480
:1007F000DB0383E090E10E94DB0383E090E80E944A
:10080000DB0383E090E2DF91CF910C94DB03E09176
:10081000A701F0E0EE0FFF1FEB59FE4F2081318161
:10082000F901FF2795A1932B95A3EFE6F1E0208135
:100830003181D901BB2780FF07C095962C919597F0
:10084000932F9095922304C095969C919597932B06
:1008500095969C938695329691E0ED37F90739F796
:10086000E62FF0E0EE0FFF1FEB59FE4F80819181E4
:10087000FC01FF2725A1892F8095822385A3609302
:10088000A7010895009789F0FC012381621B67FD91
:1008900009C0772767FD7095248130E081E06217F9
:1008A00073070CF080E08170089580E00895CF9385
:1008B000DF93FC01822F309789F19181491770F500
:1008C0002281821758F52381621B67FD27C0A62F5E
:1008D000BB27A7FDB095C481D0E0AC17BD07F4F4E9
:1008E000692F0E945E0C480F658170E0CD010E9467
:1008F000670CDC011696842F869586958695AE0F3B
:10090000BF1FA80FB11D2C9130E0477002C0359574
:1009100027954A95E2F7822F817001C080E0DF9130
:10092000CF910895CF93DF93EC010E942D039E0198
:1009300040E050E062E17AE780E090E00E94980CAD
:100940003093AB012093AA01DF91CF91089580915C
:10095000A8019091A9010E943C038091A801909167
:10096000A9012091AA013091AB01820F931F9093AE
:10097000A9018093A801089541E0611101C040E000
:10098000692F0C948C03692F0C94A30341E061112F
:1009900001C040E0692F0C948C036F927F928F927C
:1009A0009F92AF92BF92CF92DF92EF92FF920F93FE
:1009B0001F93CF93DF931F92CDB7DEB7862EB42E51
:1009C0006C01862F992787FD90958C199109C7FC9A
:1009D0009395072F112707FD10950D191109D7FCC5
:1009E000139597FD03C0AA24A39402C0AA24AA9435
:1009F00017FD03C09924939402C099249A943C0152
:100A000097FF03C071946194710817FF03C011959B
:100A1000019511096016710694F07301F594E7943D
:100A2000C81409F16B2DC6010E94C604E01AF10A30
:100A3000F7FE03C0E60CF71CD90CCA0CF1CF780105
:100A4000F594E794D71679F06B2DC60179830E944F
:100A5000C604E618F7087981F7FE03C0E00EF11E20
:100A6000CA0CD90CEFCF6B2DC6010F90DF91CF913F
:100A70001F910F91FF90EF90DF90CF90BF90AF90BC
:100A80009F908F907F906F900C94C604FF920F936D
:100A90001F93CF93DF93182FF92E062FC72FD42F34
:100AA000792F0E94CD044D2F612F7C2F812F9F2DF8
:100AB0000E94CD044D2F602F7C2F802F9F2D0E94F0
:100AC000CD044D2F602F7C2F812F9C2F0E94CD04B1
:100AD000DF91CF911F910F91FF9008950E94CC0359
:100AE00010921C01109217010895DF92EF92FF926D
:100AF0000F931F93CF93DF93E82E8B01F62ED12E09
:100B000020910D0130910E01D0E02130310599F591
:100B1000D12EDD1AE0911301F09114018181C0E022
:100B2000D817B8F4E0911301F09114018281C8172D
:100B300070F42C2F4D2F6E2DCF010E945704682F7B
:100B40008C2F800F9D2D0E94C604CF5FEBCFDF5FFF
:100B5000DFCFE0911301F09114018281C81740F4B6
:100B600060E08C2F800F9D2D0E94C604CF5FF1CFD7
:100B7000DA9430C0DF5FFD2EF00EE0911301F091AA
:100B800014018181C0E0D817A8F4E0911301F0911D
:100B900014018281C81770F72C2F4D2F6E2DCF01B5
:100BA0000E945704682F8F2D9C2F910F0E94C6041E
:100BB000CF5FEBCFE0911301F09114018281C81750
:100BC00040F460E08F2D9C2F910F0E94C604CF5FF0
:100BD000F1CFF3948F2D9D2DDF91CF911F910F9128
:100BE000FF90EF90DF9008951F93CF93DF93182F1E
:100BF000EC019C2F911B8991882349F00E94750577
:100C0000BC019C2F911B653014F477FFF2CF892F24
:100C1000DF91CF911F9108950F931F93CF93DF938F
:100C2000EC019B01109217014093180110921B01D7
:100C300000911301109114010115110509F448C028
:100C4000F8018181609111017091120190E00E9480
:100C5000670CBC0180911501909116010E94840CD3
:100C6000CB016AE070E00E94670C90931A018093B8
:100C700019013093100120930F0140E250E0BE01B2
:100C80008CE191E00E94D90C80910B0190910C01B4
:100C90000197F1F4FE0101900020E9F7CF010197DF
:100CA000F801618170E06F5F7F4F8C1B0E945E0CCA
:100CB000815020910D0130910E012130310511F448
:100CC00097E001C095E0981718F48EEF80931B0110
:100CD000DF91CF911F910F91089520910D013091D7
:100CE0000E012130310511F476E001C070E04FEFC4
:100CF00060E00E940C06089590E0909312018093AA
:100D00001101089590930C0180930B010895909325
:100D10000E0180930D0108959093140180931301A7
:100D20000895CF938091AC019091AD01019690937D
:100D3000AD018093AC012091190130911A01821705
:100D4000930708F468C01092AD011092AC01E091D5
:100D50001701F0E0E55FFE4F818981110AC08091A3
:100D60001801823008F457C0815080931801109206
:100D70001701C09117018C2F90E0FC01E55FFE4F39
:100D80002189222309F447C020910B0130910C01E5
:100D900040911B012115310521F02130310589F0E9
:100DA00022C0411120C060910F0170911001845E3A
:100DB0009E4F0E94F4059FEF9C0F980F9093170190
:100DC00012C060910F017091100120910D013091BE
:100DD0000E012130310511F4740F01C0641B845ED3
:100DE0009E4F0E94F40520911B012F5F20931B0151
:100DF000332727FD3095E0911301F0911401818193
:100E000090E0821793073CF410921B018091170128
:100E10008F5F80931701CF910C94B80390931601C4
:100E2000809315010E94D70384E190E09093120112
:100E3000809311010C946E05182F092FF62E0E9435
:100E40002D030E943703C12FD02F8E819F810E94D6
:100E50003C03E881F9818A819B8109952E813F813C
:100E60008C819D81280F391F3F832E830E94370379
:100E7000E12FF02F2FEF3FEF60E06F1531F3AE2F32
:100E80007F2F468157816C01C41AD50AA601BFEF96
:100E9000CB16BFE7DB0610F4EF01D7CF5195419594
:100EA00051094217530718F0A901AC2F7D2F6F5F2E
:100EB00038969A01CA2FD72FE0CF6230710511F111
:100EC00060F46130710551F5FC01FF2784A1909514
:100ED000892384A385A189231EC06330710541F055
:100EE00064307105D9F4FC01FF2784A1892B10C05F
:100EF000FC01FF2784A1892B84A325A1892F80953C
:100F0000822309C0FC01FF2784A1292F2095822379
:100F100084A385A1892B85A381E0089580E00895AD
:100F2000E82FF0E0EE0FFF1FE255FE4F808188238F
:100F300021F0818191E0892701C080E081700895CE
:100F4000E82FF0E0EE0FFF1FE255FE4F8081811188
:100F500002C0818101C080E081700895E82FF0E037
:100F6000EE0FFF1FE255FE4F80810895E82FF0E05D
:100F7000EE0FFF1FE255FE4F908181E08927089513
:100F80004F925F927F928F929F92AF92BF92CF9239
:100F9000DF92EF92FF920F931F93CF93DF9300D0D6
:100FA000CDB7DEB75EEA452E51E0552E6FEAE62E4C
:100FB00061E0F62E7DE7A72E71E0B72EE6E07E2EEB
:100FC000F2018081F7018083F501019111915F01A8
:100FD0006801DD24F60184A1812E992425A130E049
:100FE0002821392141E0232B09F440E090E08821B9
:100FF0009921892B29F0442341F024E030E00AC0F4
:10100000442331F022E030E005C023E030E002C0AC
:1010100021E030E064E070E0C80129833A830E9457
:101020005D0762E070E0C8010E945D07872D8A9528
:10103000F1F7F60183A190E08821992141E029810F
:101040003A81892B09F040E0F2014083B901C801DF
:101050000E945D07F2E04F0E511C82E0E80EF11C89
:10106000E8EB4E16E1E05E0609F0AACF0F900F9074
:10107000DF91CF911F910F91FF90EF90DF90CF9074
:10108000BF90AF909F908F907F905F904F9008950A
:101090000895811105C0662311F0429A089542987F
:1010A00008953A9A429A08950C94BB080C94DC086F
:1010B0000C94C1080C94C7080C94CD080E94CD086C
:1010C0000E94C7088823E1F38CE291E00197F1F7D1
:1010D0000E94BB0881110C94560808950C94E308F3
:1010E000CF93DF9300D01F92CDB7DEB780ED90E0B5
:1010F0009A83898388E08B83509A589A0E94580972
:101100008FE690E00E94EF0881E090E00E9447099E
:1011100061E070E081E090E00E9433090E941F09C5
:10112000CE0101960E94A3080F900F900F90DF91BF
:10113000CF9108959C01215031093093CD00815009
:101140008093CC000895CF93DF93EC01888199813F
:101150000E949A088A819BEF980F943008F088E0EB
:1011600098E19093C9008550880F8093CA0081E070
:10117000DF91CF9108958091C800881F8827881F2C
:1011800008958091C80085FB882780F90895809193
:10119000C80086FB882780F90895CF93C82F0E9446
:1011A000C1088823E1F39091C80090649093C8002F
:1011B000C093CE00CF9108958091C80087FFFCCFE7
:1011C0008091CE000895CF93DF93EC01899188231D
:1011D00019F00E94CD08FACFDF91CF910895CF93F7
:1011E000DF931F92CDB7DEB79E012F5F3F4F45E0E3
:1011F00067E871E00E94620991E0980F90933C01CA
:101200009981915097BD18BC95B5977039F025B567
:1012100090913C019770287F922B95BD298130E0F9
:10122000E82FF0E0E957FE4FC901008002C0880FA7
:10123000991F0A94E2F70F90DF91CF91089585B33B
:10124000897F85BB95B580913C018770987F892BFC
:1012500085BD089585B5887F85BD089585B382FBDA
:10126000882780F90895009719F0019741F00895B3
:1012700084B56295660F660F607C8F7305C084B578
:1012800063706295607F8F7C682B64BD08950097C2
:1012900041F0019759F484B58E7F84BD84B5826096
:1012A00002C084B58C7F84BD81E0089580E00895FC
:1012B00014BC15BC16BC18BC81E090E00E94470924
:1012C00081E00895CF93DF93D62FFB0160E070E0BB
:1012D000A1E0B0E05E2F5D1B5417B8F4C191BD01D1
:1012E0000C2E02C0660F771F0A94E2F76F5F7F4FE4
:1012F00076956795680F791F02C076956795CA95B0
:10130000E2F76F3F710509F028F7F9016083852F37
:10131000DF91CF9108950F931F93CF93DF93CDB7B4
:10132000DEB760970FB6F894DEBF0FBECDBF0E9448
:101330001D030E94700880E090E40E943B0280E060
:1013400090E20E943B0280E090E10E943B0280E03C
:1013500098E00E943B0280E094E00E943B0280E023
:1013600092E00E943B0280E091E00E943B0283E019
:1013700090E40E943B0280E090E80E943B0283E000
:1013800090E10E943B0283E090E80E943B0283E0F0
:1013900090E20E943B028E010F5F1F4F80E1F80137
:1013A00011928A95E9F785EC92E09A8389838DE71B
:1013B00090E09E838D8386E890E09A87898785E315
:1013C0009CE09E878D870E94890362E0C8010E948D
:1013D0001C0780E090E060960FB6F894DEBF0FBE69
:1013E000CDBFDF91CF911F910F9108950CD0E6C032
:1013F000DED040F0D5D030F021F45F3F19F0C7C007
:10140000511110C1CAC0EBD098F39923C9F35523E9
:10141000B1F3951B550BBB27AA27621773078407E7
:1014200038F09F5F5F4F220F331F441FAA1FA9F39D
:1014300033D00E2E3AF0E0E830D091505040E6958F
:10144000001CCAF729D0FE2F27D0660F771F881FF0
:10145000BB1F261737074807AB07B0E809F0BB0BDF
:10146000802DBF01FF2793585F4F2AF09E3F510503
:1014700068F08DC0D7C05F3FECF3983EDCF38695F3
:1014800077956795B795F7959F5FC9F7880F911D79
:101490009695879597F90895E1E0660F771F881F65
:1014A000BB1F621773078407BA0720F0621B730B18
:1014B000840BBA0BEE1F88F7E095089598D088F05A
:1014C0009F5790F0B92F9927B751A0F0D1F0660F30
:1014D000771F881F991F1AF0BA95C9F712C0B1304B
:1014E00081F09FD0B1E008959CC0672F782F8827A6
:1014F000B85F39F0B93FCCF3869577956795B3958A
:10150000D9F73EF490958095709561957F4F8F4FF8
:101510009F4F0895E89409C097FB3EF490958095FD
:10152000709561957F4F8F4F9F4F9923A9F0F92FA9
:1015300096E9BB279395F695879577956795B79527
:10154000F111F8CFFAF4BB0F11F460FF1BC06F5F0D
:101550007F4F8F4F9F4F16C0882311F096E911C01F
:10156000772321F09EE8872F762F05C0662371F040
:1015700096E8862F70E060E02AF09A95660F771F54
:10158000881FDAF7880F9695879597F9089597F948
:101590009F6780E870E060E008959FEF80EC089519
:1015A00000240A9416161706180609060895002442
:1015B0000A9412161306140605060895092E0394BC
:1015C000000C11F4882352F0BB0F40F4BF2B11F430
:1015D00060FF04C06F5F7F4F8F4F9F4F089557FD8F
:1015E0009058440F551F59F05F3F71F04795880F91
:1015F00097FB991F61F09F3F79F087950895121628
:1016000013061406551FF2CF4695F1DF08C01616D3
:1016100017061806991FF1CF869571056105089484
:101620000895E894BB2766277727CB0197F908959B
:101630000EF011C1B2CF6894AACFD9DFC8F39923B5
:10164000D1F3C6F3DF93CF931F930F93FF92C92F6C
:10165000DD2788232AF02197660F771F881FDAF786
:1016600020E030E040E85FEB9FE3883920F0803EE7
:1016700030F021968F778BD0E4E7F0E003C087D07D
:10168000E1EAF0E0F6D08B01BE01EC01FB2E6F57D2
:1016900071097595771F880B990B3EDF28E132E7BA
:1016A00041E35FE313D0AF2D9801AE01FF900F919E
:1016B0001F91CF91DF917CD081CF72DF28F077DF4F
:1016C00018F0952309F063CF68CFACCF88DFA8F37B
:1016D0009923D9F35523C9F3950F50E0551FAA2735
:1016E000EE27FF27BB2700240894679520F4E20F1C
:1016F000F31FB41F0A1E220F331F441FAA1F669533
:10170000A9F7779530F4F30FB41F0A1E121E08F4E0
:101710006395330F441FAA1F221F769599F787956B
:1017200020F4B40F0A1E121E631F440FAA1F221FAB
:10173000331F8695A9F7862F712D602D11249F5791
:1017400050408AF0E1F088234AF0EE0FFF1FBB1FE4
:10175000661F771F881F91505040A9F79E3F510583
:1017600070F015CF5FCF5F3FECF3983EDCF38695CA
:1017700077956795B795F795E7959F5FC1F7FE2B2E
:10178000880F911D9695879597F908955058BB2716
:10179000AA270ED013CF04DF30F009DF20F031F498
:1017A0009F3F11F41EF4F9CE0EF4E095E7FBEFCE67
:1017B000E92F15DF80F3BA176207730784079507CF
:1017C00018F071F49EF52DCF0EF4E0950B2EBA2F84
:1017D000A02D0B01B90190010C01CA01A001112437
:1017E000FF27591B99F0593F50F4503E68F11A16E3
:1017F000F040A22F232F342F4427585FF3CF469574
:1018000037952795A795F0405395C9F77EF41F1695
:10181000BA0B620B730B840BBAF09150A1F0FF0F5F
:10182000BB1F661F771F881FC2F70EC0BA0F621F4B
:10183000731F841F48F4879577956795B795F7953B
:101840009E3F08F0B3CF9395880F08F09927EE0FCD
:101850009795879508959F3F31F0915020F4879593
:1018600077956795B795880F911D9695879597F908
:101870000895DF93CF931F930F93FF92EF92DF9220
:101880007B018C01689405C0DA2EEF011FDFFE0199
:10189000E894A5912591359145915591AEF3EF01CD
:1018A00087DFFE019701A801DA9479F7DF90EF90C6
:1018B000FF900F911F91CF91DF910895002480FD3B
:1018C000060E660F11F08695D1F7802D089500243D
:1018D000552704C0080E591F880F991F009729F03B
:1018E00076956795B8F37105B9F7802D952F089512
:1018F000991B79E004C0991F961708F0961B881F62
:101900007A95C9F780950895AA1BBB1B51E107C0C2
:10191000AA1FBB1FA617B70710F0A61BB70B881F7F
:10192000991F5A95A9F780959095BC01CD0108950E
:10193000052E97FB1EF400940E94AF0C57FD07D0B4
:101940000E94B70C07FC03D04EF40C94AF0C5095DA
:101950004095309521953F4F4F4F5F4F089590959B
:101960008095709561957F4F8F4F9F4F0895A1E2AD
:101970001A2EAA1BBB1BFD010DC0AA1FBB1FEE1F09
:10198000FF1FA217B307E407F50720F0A21BB30B54
:10199000E40BF50B661F771F881F991F1A9469F7D0
:1019A00060957095809590959B01AC01BD01CF012C
:1019B0000895FB01DC014150504048F001900D9228
:1019C0000020C9F701C01D9241505040E0F7089532
:0419D000F894FFCFB9
:1019D400010002000300000000001C0000000000E1
:1019E40000140000000000000000000000000000DF
:1019F40000000000000000000000000000000000E3
:101A040000000000000000000000000001000804C5
:101A14000C020A060E0109050D030B070F03400013
:101A24008003100380032000400020001000080001
:101A3400040002000103400080031003800320001F
:101A4400400020001000080004000200010380038D
:0C1A540040032000800310000306080A75
:00000001FF
