:100000000C943A000C9457000C9457000C94570031
:100010000C9457000C9457000C9457000C94570004
:100020000C9457000C9457000C9457000C945700F4
:100030000C9457000C9457000C9457000C945700E4
:100040000C9457000C9457000C9457000C945700D4
:100050000C9457000C9457000C9457000C945700C4
:100060000C9457000C9457000C9457000C945700B4
:100070000C94570011241FBECFEFD4E0DEBFCDBFDC
:1000800011E0A0E0B1E0E8EFF1E102C005900D92CF
:10009000AC38B107D9F711E0ACE8B1E001C01D926E
:1000A000A23BB107E1F70E9411080C94FA080C94E6
:1000B00000000E9404020E94460680918C019091EB
:1000C0008D01892B49F483E50E94E40681E090E0EC
:1000D00090938D0180938C0180918C0190918D0182
:1000E000029709F07CC082E00E941606882381F006
:1000F00080910A01803760F4880F80930A01809113
:100100009501811105C080910901880F8093090133
:1001100080E00E94160690919501882379F08091E5
:100120000A01883058F0869580930A01911106C023
:100130008091090186958093090102C091110AC03E
:1001400084E00E941606882329F081E080939401C0
:1001500080939501809195018823F1F080910201AF
:100160009091030197FD18C0209104013091050181
:10017000F901EA5FFE4F4081DC01AA5FBE4F4C935C
:100180001082215031093093050120930401019719
:100190009093030180930201809193018823F9F0E9
:1001A000809100019091010184309105C4F4209167
:1001B000910130919201F901EA5FFE4F4081DC012B
:1001C000AA5FBE4F4C9310822F5F3F4F3093920136
:1001D000209391010196909301018093000108956D
:1001E0009C01FC01FF2784A1832B84A395A1892F67
:1001F000832B85A381E00895E82FEF70F0E0E35CA6
:10020000FE4F9081990F990F990FE82FE695E6958B
:10021000E695F0E0E35CFE4F8081892B0895E09144
:100220009701F0919801EE0FFF1FE35BFE4F2081D5
:100230003181F901FF2795A1932B95A3E7E5F1E023
:1002400020E030E090E0AC01022E02C055954795C9
:100250000A94E2F740FF0AC040815181DA01BB27CE
:1002600095964C9195975095452308C040815181B2
:10027000DA01BB2795964C919597452B95964C9313
:100280002F5F3F4F329627303105E9F670E0FB01D2
:10029000EE0FFF1FE35BFE4F80819181FC01FF2782
:1002A00085A19095892385A3709398016093970108
:1002B00008956091960170E0FB01EA5FFE4F808136
:1002C00090E00E940F01809196018F5F853018F4B5
:1002D0008093960102C01092960180919501882327
:1002E00041F080910601882321F00E94E4061092DB
:1002F00006010E94DA06882329F180918C019091F1
:100300008D010197C9F40E94DC06833561F482E017
:1003100090E090938D0180938C0188E08093090197
:1003200082E40C94E406823469F482E090E09093D5
:100330008D0180938C0108950E94DC060E94FC00D0
:10034000809306010895E1E6F0E080E88083108262
:10035000A89584B7877F84BFE0E6F0E0808188615C
:100360008083108208951092800084E08093810041
:1003700010928500109284000895809184009091DD
:1003800085000895AC0180918400909185009C01C6
:10039000241B350B283E3340B0F70895209184008C
:1003A00030918500820F931F0C94C20181110CC003
:1003B00080919901882329F080919A0191E0892701
:1003C00001C080E08170089580E0089581110AC025
:1003D00080919901811103C080919A0101C080E050
:1003E0008170089580E00895811103C08091990182
:1003F000089580E00895811105C08091990191E0F0
:100400008927089580E00895E9E9F1E080818093EB
:100410009A0189B1881F8827881F8083089557987B
:100420005F9808958530A0F4673090F421E030E0C3
:10043000062E01C0220F0A94EAF7E82FF0E0E456F6
:10044000FE4F822F8095908189234111822B8083DA
:100450000895853088F4673078F4E82FF0E0E456AA
:10046000FE4F21E030E0062E01C0220F0A94EAF789
:100470009081922381E009F480E0089560919B01CE
:10048000E62FF0E0E456FE4F80810E948D028091BD
:100490009B018F5F853018F480939B010895109223
:1004A0009B01089510929C0110929D0110929E0153
:1004B00010929F011092A00108950E946B020C946B
:1004C0005202FC01FF2784A1892B84A385A1892BDB
:1004D00085A381E00895CF93DF93CFE6D1E08991A2
:1004E00099910E94610281E0CD37D807C1F783E07E
:1004F00090E40E94610280E090E80E94610283E043
:1005000090E10E94610283E090E80E94610283E032
:1005100090E2DF91CF910C946102E091A101F0E0B3
:10052000EE0FFF1FEB59FE4F20813181F901FF27AC
:1005300095A1932B95A3EFE6F1E020813181D901BC
:10054000BB2780FF07C095962C919597932F909588
:10055000922304C095969C919597932B95969C9386
:100560008695329691E0ED37F90739F7E62FF0E0FE
:10057000EE0FFF1FEB59FE4F80819181FC01FF2799
:1005800025A1892F8095822385A36093A1010895D9
:10059000009789F0FC012381621B67FD09C0772762
:1005A00067FD7095248130E081E0621773070CF0DD
:1005B00080E08170089580E00895CF93DF93FC017F
:1005C000822F309789F19181491770F52281821726
:1005D00058F52381621B67FD27C0A62FBB27A7FD07
:1005E000B095C481D0E0AC17BD07F4F4692F0E9428
:1005F0007C08480F658170E0CD010E948508DC0110
:100600001696842F869586958695AE0FBF1FA80FE8
:10061000B11D2C9130E0477002C0359527954A9561
:10062000E2F7822F817001C080E0DF91CF910895C1
:10063000CF93DF93EC010E94B3019E0140E050E0B4
:1006400062E17AE780E090E00E94AA083093A50179
:100650002093A401DF91CF9108958091A201909100
:10066000A3010E94C2018091A2019091A301209157
:10067000A4013091A501820F931F9093A301809351
:10068000A201089541E0611101C040E0692F0C947E
:100690001202692F0C94290241E0611101C040E06F
:1006A000692F0C9412026F927F928F929F92AF9259
:1006B000BF92CF92DF92EF92FF920F931F93CF934F
:1006C000DF931F92CDB7DEB7862EB42E6C01862F36
:1006D000992787FD90958C199109C7FC9395072F51
:1006E000112707FD10950D191109D7FC139597FDDA
:1006F00003C0AA24A39402C0AA24AA9417FD03C08D
:100700009924939402C099249A943C0197FF03C0C2
:1007100071946194710817FF03C011950195110937
:100720006016710694F07301F594E794C81409F10A
:100730006B2DC6010E944C03E01AF10AF7FE03C0BC
:10074000E60CF71CD90CCA0CF1CF7801F594E794AC
:10075000D71679F06B2DC60179830E944C03E618F9
:10076000F7087981F7FE03C0E00EF11ECA0CD90C20
:10077000EFCF6B2DC6010F90DF91CF911F910F919D
:10078000FF90EF90DF90CF90BF90AF909F908F90B1
:100790007F906F900C944C03FF920F931F93CF9315
:1007A000DF93182FF92E062FC72FD42F792F0E94F1
:1007B00053034D2F612F7C2F812F9F2D0E945303B8
:1007C0004D2F602F7C2F802F9F2D0E9453034D2F84
:1007D000602F7C2F812F9C2F0E945303DF91CF919C
:1007E0001F910F91FF9008950E94520210921C01D8
:1007F000109217010895DF92EF92FF920F931F93CB
:10080000CF93DF93E82E8B01F62ED12E20910D0190
:1008100030910E01D0E02130310599F5D12EDD1A4D
:10082000E0911301F09114018181C0E0D817B8F470
:10083000E0911301F09114018281C81770F42C2FFC
:100840004D2F6E2DCF010E94DD02682F8C2F800F5F
:100850009D2D0E944C03CF5FEBCFDF5FDFCFE09198
:100860001301F09114018281C81740F460E08C2FCD
:10087000800F9D2D0E944C03CF5FF1CFDA9430C0E2
:10088000DF5FFD2EF00EE0911301F09114018181E4
:10089000C0E0D817A8F4E0911301F091140182810F
:1008A000C81770F72C2F4D2F6E2DCF010E94DD023F
:1008B000682F8F2D9C2F910F0E944C03CF5FEBCFA1
:1008C000E0911301F09114018281C81740F460E0B7
:1008D0008F2D9C2F910F0E944C03CF5FF1CFF3948B
:1008E0008F2D9D2DDF91CF911F910F91FF90EF9054
:1008F000DF9008951F93CF93DF93182FEC019C2F67
:10090000911B8991882349F00E94FB03BC019C2F15
:10091000911B653014F477FFF2CF892FDF91CF91CF
:100920001F9108950F931F93CF93DF93EC019B01C9
:10093000109217014093180110921B0100911301AE
:10094000109114010115110509F448C0F8018181C5
:10095000609111017091120190E00E948508BC0124
:1009600080911501909116010E949608CB016AE0D2
:1009700070E00E94850890931A01809319013093CA
:10098000100120930F0140E250E0BE018CE191E0A4
:100990000E94EB0880910B0190910C010197F1F4FA
:1009A000FE0101900020E9F7CF010197F801618174
:1009B00070E06F5F7F4F8C1B0E947C0881502091FC
:1009C0000D0130910E012130310511F497E001C085
:1009D00095E0981718F48EEF80931B01DF91CF916B
:1009E0001F910F91089520910D0130910E0121303A
:1009F000310511F476E001C070E04FEF60E00E9435
:100A00009204089590E0909312018093110108954B
:100A100090930C0180930B01089590930E018093A5
:100A20000D01089590931401809313010895CF93BD
:100A30008091A6019091A70101969093A7018093C0
:100A4000A6012091190130911A018217930708F429
:100A500068C01092A7011092A601E0911701F0E082
:100A6000E55FFE4F818981110AC0809118018230B3
:100A700008F457C081508093180110921701C0915B
:100A800017018C2F90E0FC01E55FFE4F21892223A6
:100A900009F447C020910B0130910C0140911B01DA
:100AA0002115310521F02130310589F022C0411195
:100AB00020C060910F0170911001845E9E4F0E94D2
:100AC0007A049FEF9C0F980F9093170112C06091CA
:100AD0000F017091100120910D0130910E01213014
:100AE000310511F4740F01C0641B845E9E4F0E9497
:100AF0007A0420911B012F5F20931B01332727FDD0
:100B00003095E0911301F0911401818190E08217FA
:100B100093073CF410921B01809117018F5F809323
:100B20001701CF910C943E0290931601809315010A
:100B30000E945D0284E190E0909312018093110184
:100B40000C94F403182F092FF62E0E94B3010E9473
:100B5000BD01C12FD02F8E819F810E94C201E881EB
:100B6000F9818A819B8109952E813F818C819D81AC
:100B7000280F391F3F832E830E94BD01E12FF02FE4
:100B80002FEF3FEF60E06F1531F3AE2F7F2F4681DF
:100B900057816C01C41AD50AA601BFEFCB16BFE777
:100BA000DB0610F4EF01D7CF51954195510942175B
:100BB000530718F0A901AC2F7D2F6F5F38969A016B
:100BC000CA2FD72FE0CF6230710511F160F4613088
:100BD000710551F5FC01FF2784A19095892384A319
:100BE00085A189231EC06330710541F06430710511
:100BF000D9F4FC01FF2784A1892B10C0FC01FF2739
:100C000084A1892B84A325A1892F8095822309C0E3
:100C1000FC01FF2784A1292F2095822384A385A18D
:100C2000892B85A381E0089580E00895E82FF0E006
:100C3000EE0FFF1FE855FE4F8081882321F0818150
:100C400091E0892701C080E081700895E82FF0E0ED
:100C5000EE0FFF1FE855FE4F8081811102C0818198
:100C600001C080E081700895E82FF0E0EE0FFF1FD3
:100C7000E855FE4F80810895E82FF0E0EE0FFF1F4A
:100C8000E855FE4F908181E0892708954F925F9249
:100C90007F928F929F92AF92BF92CF92DF92EF920C
:100CA000FF920F931F93CF93DF9300D0CDB7DEB7A2
:100CB00058EA452E51E0552E69EAE62E61E0F62EFF
:100CC0007DE7A72E71E0B72EE6E07E2EF20180814F
:100CD000F7018083F501019111915F016801DD2425
:100CE000F60184A1812E992425A130E02821392103
:100CF00041E0232B09F440E090E088219921892BE1
:100D000029F0442341F024E030E00AC0442331F0CC
:100D100022E030E005C023E030E002C021E030E016
:100D200064E070E0C80129833A830E94E30562E031
:100D300070E0C8010E94E305872D8A95F1F7F6015E
:100D400083A190E08821992141E029813A81892B72
:100D500009F040E0F2014083B901C8010E94E305B7
:100D6000F2E04F0E511C82E0E80EF11CE2EB4E1651
:100D7000E1E05E0609F0AACF0F900F90DF91CF91CE
:100D80001F910F91FF90EF90DF90CF90BF90AF90A9
:100D90009F908F907F905F904F900895089581115C
:100DA00005C0662311F0429A0895429808953A9A30
:100DB000429A08950C9441070C9462070C944707DB
:100DC0000C944D070C9453070E9453070E944D0743
:100DD0008823E1F38CE291E00197F1F70E9441074B
:100DE00081110C94DC0608950C946907CF93DF936E
:100DF00000D01F92CDB7DEB780ED90E09A83898353
:100E000088E08B83509A589A0E94DE078FE690E024
:100E10000E94750781E090E00E94CD0761E070E0DC
:100E200081E090E00E94B9070E94A507CE010196DB
:100E30000E9429070F900F900F90DF91CF91089596
:100E40009C01215031093093CD0081508093CC001A
:100E50000895CF93DF93EC01888199810E94200748
:100E60008A819BEF980F943008F088E098E1909386
:100E7000C9008550880F8093CA0081E0DF91CF912F
:100E800008958091C800881F8827881F0895809141
:100E9000C80085FB882780F908958091C80086FBEB
:100EA000882780F90895CF93C82F0E944707882389
:100EB000E1F39091C80090649093C800C093CE0075
:100EC000CF9108958091C80087FFFCCF8091CE001C
:100ED0000895CF93DF93EC018991882319F00E9444
:100EE0005307FACFDF91CF910895CF93DF931F92ED
:100EF000CDB7DEB79E012F5F3F4F45E067E871E059
:100F00000E94E80791E0980F90933C0199819150DD
:100F100097BD18BC95B5977039F025B590913C01F7
:100F20009770287F922B95BD298130E0E82FF0E063
:100F3000E957FE4FC901008002C0880F991F0A942B
:100F4000E2F70F90DF91CF91089585B3897F85BB3C
:100F500095B580913C018770987F892B85BD089558
:100F600085B5887F85BD089585B382FB882780F984
:100F70000895009719F0019741F0089584B562959E
:100F8000660F660F607C8F7305C084B563706295D1
:100F9000607F8F7C682B64BD0895009741F00197B6
:100FA00059F484B58E7F84BD84B5826002C084B557
:100FB0008C7F84BD81E0089580E0089514BC15BC49
:100FC00016BC18BC81E090E00E94CD0781E0089536
:100FD000CF93DF93D62FFB0160E070E0A1E0B0E09B
:100FE0005E2F5D1B5417B8F4C191BD010C2E02C0D9
:100FF000660F771F0A94E2F76F5F7F4F76956795CC
:10100000680F791F02C076956795CA95E2F76F3F22
:10101000710509F028F7F9016083852FDF91CF91E1
:1010200008950F931F93CF93DF93CDB7DEB76097EB
:101030000FB6F894DEBF0FBECDBF0E94A3010E9481
:10104000F60680E090E40E94F00080E090E20E94CA
:10105000F00080E090E10E94F00080E098E00E94C3
:10106000F00080E094E00E94F00080E092E00E94B6
:10107000F00080E091E00E94F00083E090E40E94A4
:10108000F00080E090E80E94F00083E090E10E9490
:10109000F00083E090E80E94F00083E090E20E947C
:1010A000F0008E010F5F1F4F80E1F80111928A95C9
:1010B000E9F789E591E09A8389838FE090E09E8348
:1010C0008D8389E590E09A87898785E39CE09E87F8
:1010D0008D870E940F0262E0C8010E94A20580E095
:1010E00090E060960FB6F894DEBF0FBECDBFDF91E3
:1010F000CF911F910F910895002480FD060E660F79
:1011000011F08695D1F7802D08950024552704C04D
:10111000080E591F880F991F009729F0769567953B
:10112000B8F37105B9F7802D952F0895AA1BBB1B45
:1011300051E107C0AA1FBB1FA617B70710F0A61BD7
:10114000B70B881F991F5A95A9F780959095BC01F8
:10115000CD010895052E97FB1EF400940E94C1084E
:1011600057FD07D00E94C90807FC03D04EF40C9429
:10117000C10850954095309521953F4F4F4F5F4F97
:10118000089590958095709561957F4F8F4F9F4FF3
:101190000895A1E21A2EAA1BBB1BFD010DC0AA1FB8
:1011A000BB1FEE1FFF1FA217B307E407F50720F0D0
:1011B000A21BB30BE40BF50B661F771F881F991F4B
:1011C0001A9469F760957095809590959B01AC0194
:1011D000BD01CF010895FB01DC014150504048F0B2
:1011E00001900D920020C9F701C01D92415050405E
:0811F000E0F70895F894FFCF29
:1011F800010002000300000000001C0000000000C5
:1012080000140000000000000000000000000000C2
:1012180000000000000000000000000000000000C6
:1012280000000000000000000000000001000804A9
:101238000C020A060E0109050D030B070F034000F7
:1012480080031003800320004000200010000800E5
:101258000400020001034000800310038003200003
:101268004000200010000800040002000103800371
:0C12780040032000800310000306080A59
:00000001FF
