:100000000C943A000C9457000C9457000C94570031
:100010000C9457000C9457000C9457000C94570004
:100020000C9457000C9457000C9457000C945700F4
:100030000C9457000C9457000C9457000C945700E4
:100040000C9457000C9457000C9457000C945700D4
:100050000C9457000C9457000C9457000C945700C4
:100060000C9457000C9457000C9457000C945700B4
:100070000C94570011241FBECFEFD4E0DEBFCDBFDC
:1000800011E0A0E0B1E0E0E8FEE002C005900D92D2
:10009000A437B107D9F711E0A4E7B1E001C01D9280
:1000A000A239B107E1F70E9457060C943E070C9461
:1000B00000000E94C30582E00E949305882381F01E
:1000C00080910801803760F4880F80930801809147
:1000D0007501811105C080910701880F8093070188
:1000E00080E00E94930590917501882379F08091BA
:1000F0000801883058F0869580930801911106C058
:100100008091070186958093070102C091110AC072
:1001100084E00E949305882329F081E08093740194
:1001200080937501809175018823F1F08091000121
:100130009091010197FD18C02091020130910301B7
:10014000F901EC5FFE4F4081DC01AC5FBE4F4C9388
:10015000108221503109309303012093020101974D
:10016000909301018093000108959C01FC01FF27F9
:1001700084A1832B84A395A1892F832B85A381E060
:100180000895E0917701F0917801EE0FFF1FE65C92
:10019000FE4F20813181F901FF2795A1932B95A373
:1001A000E4E4F1E020E030E090E0AC01022E02C097
:1001B000559547950A94E2F740FF0AC04081518166
:1001C000DA01BB2795964C9195975095452308C029
:1001D00040815181DA01BB2795964C919597452B2B
:1001E00095964C932F5F3F4F329627303105E9F6B5
:1001F00070E0FB01EE0FFF1FE65CFE4F80819181F6
:10020000FC01FF2785A19095892385A37093780130
:100210006093770108956091760170E0FB01EC5FD7
:10022000FE4F808190E00E94C100809176018F5F37
:10023000853018F480937601089510927601089520
:10024000E1E6F0E080E880831082A89584B7877F9C
:1002500084BFE0E6F0E080818861808310820895A9
:100260001092800084E080938100109285001092AB
:100270008400089580918400909185000895AC01D8
:1002800080918400909185009C01241B350B283EB1
:100290003340B0F708952091840030918500820F9B
:1002A000931F0C943F0181110CC080917901882328
:1002B00029F080917A0191E0892701C080E0817066
:1002C000089580E0089581110AC08091790181111B
:1002D00003C080917A0101C080E08170089580E0C0
:1002E0000895811103C080917901089580E00895F7
:1002F000811105C08091790191E08927089580E0FE
:100300000895E9E7F1E0808180937A0189B1881F3F
:100310008827881F8083089557985F9808958530AF
:10032000A0F4673090F421E030E0062E01C0220FE7
:100330000A94EAF7E82FF0E0E458FE4F822F809508
:10034000908189234111822B80830895853088F420
:10035000673078F4E82FF0E0E458FE4F21E030E019
:10036000062E01C0220F0A94EAF79081922381E0C1
:1003700009F480E0089560917B01E62FF0E0E458F5
:10038000FE4F80810E940A0280917B018F5F853041
:1003900018F480937B01089510927B0108951092C8
:1003A0007C0110927D0110927E0110927F011092CB
:1003B000800108950E94E8010C94CF01FC01FF2701
:1003C00084A1892B84A385A1892B85A381E008952D
:1003D000CF93DF93CCE5D1E0899199910E94DE0122
:1003E00081E0CA36D807C1F783E090E40E94DE01BD
:1003F00080E090E80E94DE0183E090E10E94DE014F
:1004000083E090E80E94DE0183E090E2DF91CF91EB
:100410000C94DE01E0918101F0E0EE0FFF1FEE5A37
:10042000FE4F20813181F901FF2795A1932B95A3E0
:10043000ECE5F1E020813181D901BB2780FF07C0C5
:1004400095962C919597932F9095922304C095960D
:100450009C919597932B95969C938695329691E0D7
:10046000EA36F90739F7E62FF0E0EE0FFF1FEE5AF4
:10047000FE4F80819181FC01FF2725A1892F809566
:10048000822385A3609381010895009789F0FC0180
:100490002381621B67FD09C0772767FD7095248162
:1004A00030E081E0621773070CF080E081700895FE
:1004B00080E00895CF93DF93FC01822F309789F17C
:1004C0009181491770F52281821758F52381621BAB
:1004D00067FD27C0A62FBB27A7FDB095C481D0E03C
:1004E000AC17BD07F4F4692F0E94C006480F658160
:1004F00070E0CD010E94C906DC011696842F869516
:1005000086958695AE0FBF1FA80FB11D2C9130E0C8
:10051000477002C0359527954A95E2F7822F817082
:1005200001C080E0DF91CF910895CF93DF93EC017C
:100530000E9430019E0140E050E062E17AE780E0F5
:1005400090E00E94EE063093850120938401DF91B4
:10055000CF91089580918201909183010E943F0183
:1005600080918201909183012091840130918501D5
:10057000820F931F9093830180938201089541E03D
:10058000611101C040E0692F0C948F01692F0C9418
:10059000A60141E0611101C040E0692F0C948F0178
:1005A0006F927F928F929F92AF92BF92CF92DF9283
:1005B000EF92FF920F931F93CF93DF931F92CDB7CC
:1005C000DEB7862EB42E6C01862F992787FD909575
:1005D0008C199109C7FC9395072F112707FD1095DA
:1005E0000D191109D7FC139597FD03C0AA24A394F4
:1005F00002C0AA24AA9417FD03C09924939402C0B0
:1006000099249A943C0197FF03C0719461947108F6
:1006100017FF03C01195019511096016710694F03A
:100620007301F594E794C81409F16B2DC6010E947B
:10063000C902E01AF10AF7FE03C0E60CF71CD90C58
:10064000CA0CF1CF7801F594E794D71679F06B2DA9
:10065000C60179830E94C902E618F7087981F7FE7E
:1006600003C0E00EF11ECA0CD90CEFCF6B2DC601F2
:100670000F90DF91CF911F910F91FF90EF90DF903E
:10068000CF90BF90AF909F908F907F906F900C9481
:10069000C902FF920F931F93CF93DF93182FF92E68
:1006A000062FC72FD42F792F0E94D0024D2F612FF4
:1006B0007C2F812F9F2D0E94D0024D2F602F7C2FE9
:1006C000802F9F2D0E94D0024D2F602F7C2F812FD5
:1006D0009C2F0E94D002DF91CF911F910F91FF902C
:1006E00008950E94CF0110921A01109215010895E9
:1006F000DF92EF92FF920F931F93CF93DF93E82E39
:100700008B01F62ED12E20910B0130910C01D0E0FF
:100710002130310599F5D12EDD1AE0911101F091CA
:1007200012018181C0E0D817B8F4E0911101F09175
:1007300012018281C81770F42C2F4D2F6E2DCF011E
:100740000E945A02682F8C2F800F9D2D0E94C90293
:10075000CF5FEBCFDF5FDFCFE0911101F0911201AE
:100760008281C81740F460E08C2F800F9D2D0E947D
:10077000C902CF5FF1CFDA9430C0DF5FFD2EF00EFB
:10078000E0911101F09112018181C0E0D817A8F425
:10079000E0911101F09112018281C81770F72C2F9E
:1007A0004D2F6E2DCF010E945A02682F8F2D9C2F46
:1007B000910F0E94C902CF5FEBCFE0911101F09140
:1007C00012018281C81740F460E08F2D9C2F910F99
:1007D0000E94C902CF5FF1CFF3948F2D9D2DDF9141
:1007E000CF911F910F91FF90EF90DF9008951F938D
:1007F000CF93DF93182FEC019C2F911B89918823B5
:1008000049F00E947803BC019C2F911B653014F4C1
:1008100077FFF2CF892FDF91CF911F9108950F932A
:100820001F93CF93DF93EC019B011092150140932E
:100830001601109219010091110110911201011578
:10084000110509F448C0F801818160910F01709190
:10085000100190E00E94C906BC01809113019091A3
:1008600014010E94DA06CB016AE070E00E94C9061A
:10087000909318018093170130930E0120930D017E
:1008800040E250E0BE018AE191E00E942F07809192
:10089000090190910A010197F1F4FE0101900020F5
:1008A000E9F7CF010197F801618170E06F5F7F4F39
:1008B0008C1B0E94C006815020910B0130910C01CD
:1008C0002130310511F497E001C095E0981718F434
:1008D0008EEF80931901DF91CF911F910F910895B1
:1008E00020910B0130910C012130310511F476E09B
:1008F00001C070E04FEF60E00E940F04089590E0A7
:100900009093100180930F01089590930A018093B2
:100910000901089590930C0180930B010895909321
:100920001201809311010895CF93809186019091D7
:10093000870101969093870180938601209117018A
:10094000309118018217930708F468C0109287014C
:1009500010928601E0911501F0E0E75FFE4F81897A
:1009600081110AC080911601823008F457C081506D
:100970008093160110921501C09115018C2F90E003
:10098000FC01E75FFE4F2189222309F447C0209133
:10099000090130910A01409119012115310521F019
:1009A0002130310589F022C0411120C060910D0134
:1009B00070910E01865E9E4F0E94F7039FEF9C0F81
:1009C000980F9093150112C060910D0170910E0166
:1009D00020910B0130910C012130310511F4740F7D
:1009E00001C0641B865E9E4F0E94F703209119018F
:1009F0002F5F20931901332727FD3095E0911101D6
:100A0000F0911201818190E0821793073CF41092DB
:100A10001901809115018F5F80931501CF910C947E
:100A2000BB0190931401809313010E94DA0184E1C9
:100A300090E09093100180930F010C947103182F94
:100A4000092FF62E0E9430010E943A01C12FD02FAB
:100A50008E819F810E943F01E881F9818A819B817B
:100A600009952E813F818C819D81280F391F3F83FD
:100A70002E830E943A01E12FF02F2FEF3FEF60E02D
:100A80006F1531F3AE2F7F2F468157816C01C41A49
:100A9000D50AA601BFEFCB16BFE7DB0610F4EF01C6
:100AA000D7CF5195419551094217530718F0A90125
:100AB000AC2F7D2F6F5F38969A01CA2FD72FE0CFCA
:100AC0006230710511F160F46130710551F5FC017E
:100AD000FF2784A19095892384A385A189231EC023
:100AE0006330710541F064307105D9F4FC01FF27D2
:100AF00084A1892B10C0FC01FF2784A1892B84A32A
:100B000025A1892F8095822309C0FC01FF2784A19C
:100B1000292F2095822384A385A1892B85A381E099
:100B2000089580E00895E82FF0E0EE0FFF1FE857EA
:100B3000FE4F8081882321F0818191E0892701C0C7
:100B400080E081700895E82FF0E0EE0FFF1FE85776
:100B5000FE4F8081811102C0818101C080E08170DF
:100B60000895E82FF0E0EE0FFF1FE857FE4F808159
:100B70000895E82FF0E0EE0FFF1FE857FE4F908139
:100B800081E0892708954F925F927F928F929F9282
:100B9000AF92BF92CF92DF92EF92FF920F931F938B
:100BA000CF93DF9300D0CDB7DEB758E8452E51E0A4
:100BB000552E69E8E62E61E0F62E7AE6A72E71E062
:100BC000B72EE6E07E2EF2018081F7018083F501E9
:100BD000019111915F016801DD24F60184A1812E4C
:100BE000992425A130E02821392141E0232B09F463
:100BF00040E090E088219921892B29F0442341F09D
:100C000024E030E00AC0442331F022E030E005C0A7
:100C100023E030E002C021E030E064E070E0C80191
:100C200029833A830E94600562E070E0C8010E9457
:100C30006005872D8A95F1F7F60183A190E0882160
:100C4000992141E029813A81892B09F040E0F201A4
:100C50004083B901C8010E946005F2E04F0E511CAB
:100C600082E0E80EF11CE2E94E16E1E05E0609F0D2
:100C7000AACF0F900F90DF91CF911F910F91FF900E
:100C8000EF90DF90CF90BF90AF909F908F907F902C
:100C90005F904F9008950895811105C0662311F06B
:100CA000429A0895429808953A9A429A08950F9365
:100CB0001F93CF93DF93CDB7DEB760970FB6F8944D
:100CC000DEBF0FBECDBF0E94200180E090E40E94F5
:100CD000B50080E090E20E94B50080E090E10E94C3
:100CE000B50080E098E00E94B50080E094E00E94AA
:100CF000B50080E092E00E94B50080E091E00E94A3
:100D0000B50083E090E40E94B50080E090E80E9486
:100D1000B50083E090E10E94B50083E090E80E9476
:100D2000B50083E090E20E94B5008E010F5F1F4F77
:100D300080E1F80111928A95E9F78BE091E09A83BE
:100D400089838FE090E09E838D8389E590E09A8788
:100D500089878AE196E09E878D870E948C0162E0F8
:100D6000C8010E941F0580E090E060960FB6F894DD
:100D7000DEBF0FBECDBFDF91CF911F910F910895C0
:100D8000002480FD060E660F11F08695D1F7802DA8
:100D900008950024552704C0080E591F880F991F75
:100DA000009729F076956795B8F37105B9F7802D0E
:100DB000952F0895AA1BBB1B51E107C0AA1FBB1F9B
:100DC000A617B70710F0A61BB70B881F991F5A95D7
:100DD000A9F780959095BC01CD010895052E97FB4C
:100DE0001EF400940E94050757FD07D00E940D07CE
:100DF00007FC03D04EF40C940507509540953095B0
:100E000021953F4F4F4F5F4F089590958095709576
:100E100061957F4F8F4F9F4F0895A1E21A2EAA1B15
:100E2000BB1BFD010DC0AA1FBB1FEE1FFF1FA2179A
:100E3000B307E407F50720F0A21BB30BE40BF50B97
:100E4000661F771F881F991F1A9469F76095709520
:100E5000809590959B01AC01BD01CF010895FB01E8
:100E6000DC014150504048F001900D920020C9F73C
:100E700001C01D9241505040E0F70895F894FFCF13
:100E800002000300000000081C0000000000001425
:100E90000000000000000000000000000000000052
:100EA0000000000000000000000000000000000042
:100EB000000000000000000000000340008003105C
:100EC00003800320004000200010000800040002FE
:100ED0000001034000800310038003200040002035
:100EE00000100008000400020001038003400320FA
:040EF000008003106B
:00000001FF
