:100000000C943A000C9457000C9457000C94570031
:100010000C9457000C9457000C9457000C94570004
:100020000C9457000C9457000C9457000C945700F4
:100030000C9457000C9457000C9457000C945700E4
:100040000C9457000C9457000C9457000C945700D4
:100050000C9457000C9457000C9457000C945700C4
:100060000C9457000C9457000C9457000C945700B4
:100070000C94570011241FBECFEFD4E0DEBFCDBFDC
:1000800011E0A0E0B1E0E8EBF3E102C005900D92D1
:10009000AC38B107D9F711E0ACE8B1E001C01D926E
:1000A000A23CB107E1F70E94E5080C94DA090C9430
:1000B00000000E94D8020E941A0780918E01909140
:1000C0008F01892B49F483E50E94B80781E090E015
:1000D00090938F0180938E0180918E0190918F017A
:1000E000029709F043C182E00E94EA06882381F06A
:1000F00080910A01803760F4880F80930A01809113
:100100009701811105C080910901880F8093090131
:1001100080E00E94EA0690919701882371F0809117
:100120000A01883050F0869580930A01911105C02C
:100130008091090186958093090180918D0181113B
:100140000AC0911108C084E00E94EA06882319F0D1
:1001500081E080939701809197018823F1F080914D
:1001600002019091030197FD18C020910401309184
:100170000501F901EA5FFE4F4081DC01AA5FBE4F35
:100180004C931082215031093093050120930401D2
:100190000197909303018093020180919901882334
:1001A00031F08091BD0180930A01109299018091F4
:1001B0009601882309F466C08091000190910101A5
:1001C000049709F05FC090910A0120910901822FE4
:1001D000892B891751F09093BD0180930A011092E9
:1001E000090181E08093990141C067E00E946A099A
:1001F000821314C083E090E09093BF018093BE010E
:1002000082E090E09093C1018093C00181E08093EF
:10021000910180938C011092950128C090E0880F85
:10022000991F30E08217930781F483E090E0909368
:10023000BA018093B90182E090E09093B801809375
:10024000B70181E0809392010FC083E090E090932A
:10025000BC018093BB0182E090E09093B601809353
:10026000B50181E08093900180938C0181E090E062
:1002700090930101809300011092940110929301D8
:1002800010929601809192018823F1F08091B7013C
:100290009091B80197FD18C02091B9013091BA0131
:1002A000F901EA5FFE4F4081DC01AA5FBE4F4C932B
:1002B0001082215031093093BA012093B90101977E
:1002C0009093B8018093B70180919101882359F1EF
:1002D0008091C0019091C10197FD25C02091BE0180
:1002E0003091BF01F901EA5FFE4F4081DC01AA5F56
:1002F000BE4F403439F050919501511103C0440F65
:100300004C9305C046954C9341E040939501108273
:10031000215031093093BF012093BE010197909382
:10032000C1018093C001809196018823F9F08091EA
:1003300000019091010184309105C4F42091930152
:1003400030919401F901EA5FFE4F4081DC01AA5F20
:10035000BE4F4C9310822F5F3F4F309394012093F8
:100360009301019690930101809300010895FC018F
:10037000FF2784A1892B84A385A1892B85A381E0F4
:100380000895A82FAF70B0E0A35CBE4F9C91990F69
:10039000990F990F869586958695E82FF0E0E35C96
:1003A000FE4F8081892B0895E0919A01F0919B0185
:1003B000EE0FFF1FE35BFE4F20813181F901FF2724
:1003C00095A1932B95A3E7E5F1E020E030E090E0E4
:1003D000AC01022E02C0559547950A94E2F740FF02
:1003E0000BC040815181DA01BB2795967C9195978E
:1003F000452F4095472308C040815181DA01BB2732
:1004000095964C919597452B95964C932F5F3F4F22
:10041000329627303105E1F670E0FB01EE0FFF1F49
:10042000E35BFE4F80819181FC01FF2725A1892F8D
:100430008095822385A370939B0160939A01089510
:1004400060919801E62FF0E0EA5FFE4F80810E9404
:10045000D401809198018F5F853018F480939801C2
:1004600002C01092980180919701811104C080917F
:100470008C01882361F080910601882341F00E945D
:10048000B807109206011092970110928C010E94F9
:10049000AE07882359F180918E0190918F010197C9
:1004A000E1F40E94B007833561F482E090E090931C
:1004B0008F0180938E0188E08093090182E40C947F
:1004C000B807823499F481E080938D0182E090E056
:1004D00090938F0180938E0108950E94B0070E942F
:1004E000C1018093060181E0809396010895E1E6C1
:1004F000F0E080E880831082A89584B7877F84BF6E
:10050000E0E6F0E080818861808310820895109297
:10051000800084E080938100109285001092840016
:10052000089580918400909185000895AC01809198
:100530008400909185009C01241B350B283E33409C
:10054000B0F708952091840030918500820F931FA9
:100550000C94960281110CC080919C01882329F093
:1005600080919D0191E0892701C080E0817008950C
:1005700080E0089581110AC080919C01811103C01F
:1005800080919D0101C080E08170089580E0089510
:10059000811103C080919C01089580E0089581112C
:1005A00005C080919C0191E08927089580E008951D
:1005B000ECE9F1E0808180939D0189B1881F882753
:1005C000881F8083089557985F9808958530A0F418
:1005D000673090F421E030E0062E01C0220F0A942B
:1005E000EAF7E82FF0E0E156FE4F822F80959081E8
:1005F00089234111822B80830895853088F46730E8
:1006000078F4E82FF0E0E156FE4F21E030E0062ECE
:1006100001C0220F0A94EAF79081922381E009F445
:1006200080E0089560919E01E62FF0E0E156FE4FD4
:1006300080810E94610380919E018F5F853018F454
:1006400080939E01089510929E01089510929F013B
:100650001092A0011092A1011092A2011092A30188
:1006600008950E943F030C942603FC01FF2784A1F8
:10067000892B84A385A1892B85A381E00895CF933D
:10068000DF93CFE6D1E0899199910E94350381E013
:10069000CD37D807C1F783E090E40E94350380E0AE
:1006A00090E80E94350383E090E10E94350383E0E7
:1006B00090E80E94350383E090E2DF91CF910C94A3
:1006C0003503E091A401F0E0EE0FFF1FEB59FE4F60
:1006D00020813181F901FF2795A1932B95A3EFE6A6
:1006E000F1E020813181D901BB2780FF07C09596B9
:1006F0002C919597932F9095922304C095969C9159
:100700009597932B95969C938695329691E0ED372D
:10071000F90739F7E62FF0E0EE0FFF1FEB59FE4F18
:1007200080819181FC01FF2725A1892F809582235B
:1007300085A36093A4010895009789F0FC012381AB
:10074000621B67FD09C0772767FD7095248130E043
:1007500081E0621773070CF080E08170089580E0FB
:100760000895CF93DF93FC01822F309789F1918117
:10077000491770F52281821758F52381621B67FDA6
:1007800027C0A62FBB27A7FDB095C481D0E0AC172A
:10079000BD07F4F4692F0E945009480F658170E08D
:1007A000CD010E945909DC011696842F8695869505
:1007B0008695AE0FBF1FA80FB11D2C9130E047707A
:1007C00002C0359527954A95E2F7822F817001C0C6
:1007D00080E0DF91CF910895CF93DF93EC010E94E9
:1007E00087029E0140E050E062E17AE780E090E01D
:1007F0000E948A093093A8012093A701DF91CF912D
:1008000008958091A5019091A6010E949602809181
:10081000A5019091A6012091A7013091A801820F16
:10082000931F9093A6018093A501089541E0611163
:1008300001C040E0692F0C94E602692F0C94FD0280
:1008400041E0611101C040E0692F0C94E6026F9213
:100850007F928F929F92AF92BF92CF92DF92EF9250
:10086000FF920F931F93CF93DF931F92CDB7DEB705
:10087000862EB42E6C01862F992787FD90958C19B2
:100880009109C7FC9395072F112707FD10950D19A6
:100890001109D7FC139597FD03C0AA24A39402C0A5
:1008A000AA24AA9417FD03C09924939402C0992402
:1008B0009A943C0197FF03C071946194710817FFEB
:1008C00003C01195019511096016710694F073012A
:1008D000F594E794C81409F16B2DC6010E94200419
:1008E000E01AF10AF7FE03C0E60CF71CD90CCA0C9B
:1008F000F1CF7801F594E794D71679F06B2DC60106
:1009000079830E942004E618F7087981F7FE03C076
:10091000E00EF11ECA0CD90CEFCF6B2DC6010F9063
:10092000DF91CF911F910F91FF90EF90DF90CF90CB
:10093000BF90AF909F908F907F906F900C94200409
:10094000FF920F931F93CF93DF93182FF92E062F4B
:10095000C72FD42F792F0E9427044D2F612F7C2F72
:10096000812F9F2D0E9427044D2F602F7C2F802FD9
:100970009F2D0E9427044D2F602F7C2F812F9C2FAD
:100980000E942704DF91CF911F910F91FF9008954E
:100990000E94260310921C01109217010895DF9205
:1009A000EF92FF920F931F93CF93DF93E82E8B016B
:1009B000F62ED12E20910D0130910E01D0E0213084
:1009C000310599F5D12EDD1AE0911301F091140152
:1009D0008181C0E0D817B8F4E0911301F0911401BF
:1009E0008281C81770F42C2F4D2F6E2DCF010E94DD
:1009F000B103682F8C2F800F9D2D0E942004CF5FA4
:100A0000EBCFDF5FDFCFE0911301F0911401828122
:100A1000C81740F460E08C2F800F9D2D0E942004A9
:100A2000CF5FF1CFDA9430C0DF5FFD2EF00EE091A2
:100A30001301F09114018181C0E0D817A8F4E0916E
:100A40001301F09114018281C81770F72C2F4D2FDC
:100A50006E2DCF010E94B103682F8F2D9C2F910F17
:100A60000E942004CF5FEBCFE0911301F0911401BD
:100A70008281C81740F460E08F2D9C2F910F0E9457
:100A80002004CF5FF1CFF3948F2D9D2DDF91CF9177
:100A90001F910F91FF90EF90DF9008951F93CF93D8
:100AA000DF93182FEC019C2F911B8991882349F02B
:100AB0000E94CF04BC019C2F911B653014F477FF7A
:100AC000F2CF892FDF91CF911F9108950F931F933C
:100AD000CF93DF93EC019B01109217014093180113
:100AE00010921B01009113011091140101151105C1
:100AF00009F448C0F80181816091110170911201DF
:100B000090E00E945909BC01809115019091160155
:100B10000E947609CB016AE070E00E945909909327
:100B20001A01809319013093100120930F0140E2C4
:100B300050E0BE018CE191E00E94CB0980910B0155
:100B400090910C010197F1F4FE0101900020E9F76A
:100B5000CF010197F801618170E06F5F7F4F8C1BBF
:100B60000E945009815020910D0130910E012130D9
:100B7000310511F497E001C095E0981718F48EEF55
:100B800080931B01DF91CF911F910F9108952091C8
:100B90000D0130910E012130310511F476E001C0D4
:100BA00070E04FEF60E00E946605089590E090933A
:100BB000120180931101089590930C0180930B0111
:100BC000089590930E0180930D0108959093140160
:100BD000809313010895CF938091A9019091AA0168
:100BE00001969093AA018093A90120911901309157
:100BF0001A018217930708F468C01092AA01109294
:100C0000A901E0911701F0E0E55FFE4F81898111B4
:100C10000AC080911801823008F457C08150809337
:100C2000180110921701C09117018C2F90E0FC0160
:100C3000E55FFE4F2189222309F447C020910B0173
:100C400030910C0140911B012115310521F021301B
:100C5000310589F022C0411120C060910F017091CF
:100C60001001845E9E4F0E944E059FEF9C0F980FCF
:100C70009093170112C060910F01709110012091A3
:100C80000D0130910E012130310511F4740F01C0B6
:100C9000641B845E9E4F0E944E0520911B012F5FB6
:100CA00020931B01332727FD3095E0911301F0912C
:100CB0001401818190E0821793073CF410921B018C
:100CC000809117018F5F80931701CF910C941203CD
:100CD00090931601809315010E94310384E190E006
:100CE00090931201809311010C94C804182F092FBE
:100CF000F62E0E9487020E949102C12FD02F8E8172
:100D00009F810E949602E881F9818A819B810995E1
:100D10002E813F818C819D81280F391F3F832E8337
:100D20000E949102E12FF02F2FEF3FEF60E06F154F
:100D300031F3AE2F7F2F468157816C01C41AD50A3B
:100D4000A601BFEFCB16BFE7DB0610F4EF01D7CF4C
:100D50005195419551094217530718F0A901AC2F3D
:100D60007D2F6F5F38969A01CA2FD72FE0CF623060
:100D7000710511F160F46130710551F5FC01FF2737
:100D800084A19095892384A385A189231EC0633003
:100D9000710541F064307105D9F4FC01FF2784A18D
:100DA000892B10C0FC01FF2784A1892B84A325A1D6
:100DB000892F8095822309C0FC01FF2784A1292F58
:100DC0002095822384A385A1892B85A381E00895A2
:100DD00080E00895E82FF0E0EE0FFF1FE555FE4F8D
:100DE0008081882321F0818191E0892701C080E002
:100DF00081700895E82FF0E0EE0FFF1FE555FE4FDC
:100E00008081811102C0818101C080E081700895DC
:100E1000E82FF0E0EE0FFF1FE555FE4F80810895AB
:100E2000E82FF0E0EE0FFF1FE555FE4F908181E0C7
:100E3000892708954F925F927F928F929F92AF92EF
:100E4000BF92CF92DF92EF92FF920F931F93CF93B7
:100E5000DF9300D0CDB7DEB75BEA452E51E0552ECB
:100E60006CEAE62E61E0F62E7DE7A72E71E0B72E44
:100E7000E6E07E2EF2018081F7018083F501019189
:100E800011915F016801DD24F60184A1812E99246E
:100E900025A130E02821392141E0232B09F440E04D
:100EA00090E088219921892B29F0442341F024E006
:100EB00030E00AC0442331F022E030E005C023E0F6
:100EC00030E002C021E030E064E070E0C801298336
:100ED0003A830E94B70662E070E0C8010E94B7063C
:100EE000872D8A95F1F7F60183A190E08821992159
:100EF00041E029813A81892B09F040E0F2014083E9
:100F0000B901C8010E94B706F2E04F0E511C82E001
:100F1000E80EF11CE5EB4E16E1E05E0609F0AACF03
:100F20000F900F90DF91CF911F910F91FF90EF9055
:100F3000DF90CF90BF90AF909F908F907F905F9009
:100F40004F9008950895811105C0662311F0429ACB
:100F50000895429808953A9A429A08950C94150873
:100F60000C9436080C941B080C9421080C94270848
:100F70000E9427080E9421088823E1F38CE291E077
:100F80000197F1F70E94150881110C94B00708959C
:100F90000C943D08CF93DF9300D01F92CDB7DEB7FE
:100FA00080ED90E09A83898388E08B83509A589AE9
:100FB0000E94B2088FE690E00E94490881E090E02C
:100FC0000E94A10861E070E081E090E00E948D083D
:100FD0000E947908CE0101960E94FD070F900F90A4
:100FE0000F90DF91CF9108959C01215031093093EA
:100FF000CD0081508093CC000895CF93DF93EC0116
:10100000888199810E94F4078A819BEF980F943020
:1010100008F088E098E19093C9008550880F80938C
:10102000CA0081E0DF91CF9108958091C800881FA8
:101030008827881F08958091C80085FB882780F93C
:1010400008958091C80086FB882780F90895CF9382
:10105000C82F0E941B088823E1F39091C800906478
:101060009093C800C093CE00CF9108958091C8009E
:1010700087FFFCCF8091CE000895CF93DF93EC01E2
:101080008991882319F00E942708FACFDF91CF9128
:101090000895CF93DF931F92CDB7DEB79E012F5FE8
:1010A0003F4F45E067E871E00E94BC0891E0980F6F
:1010B00090933C019981915097BD18BC95B597705C
:1010C00039F025B590913C019770287F922B95BD02
:1010D000298130E0E82FF0E0E957FE4FC901008098
:1010E00002C0880F991F0A94E2F70F90DF91CF9109
:1010F000089585B3897F85BB95B580913C01877044
:10110000987F892B85BD089585B5887F85BD089515
:1011100085B382FB882780F90895009719F001971D
:1011200041F0089584B56295660F660F607C8F73F9
:1011300005C084B563706295607F8F7C682B64BD49
:101140000895009741F0019759F484B58E7F84BDCE
:1011500084B5826002C084B58C7F84BD81E008952F
:1011600080E0089514BC15BC16BC18BC81E090E06A
:101170000E94A10881E00895CF93DF93D62FFB0151
:1011800060E070E0A1E0B0E05E2F5D1B5417B8F4A2
:10119000C191BD010C2E02C0660F771F0A94E2F7C1
:1011A0006F5F7F4F76956795680F791F02C07695C0
:1011B0006795CA95E2F76F3F710509F028F7F901C5
:1011C0006083852FDF91CF9108950F931F93CF9365
:1011D000DF93CDB7DEB760970FB6F894DEBF0FBED2
:1011E000CDBF0E9477020E94CA0780E090E40E946F
:1011F000B70180E090E20E94B70180E090E10E9498
:10120000B70180E098E00E94B70180E094E00E947E
:10121000B70180E092E00E94B70180E091E00E9477
:10122000B70183E090E40E94B70180E090E80E945B
:10123000B70183E090E10E94B70183E090E80E944B
:10124000B70183E090E20E94B7018E010F5F1F4F4C
:1012500080E1F80111928A95E9F780E292E09A83A1
:1012600089838FE090E09E838D8389E590E09A8763
:10127000898780E791E19E878D870E94E30262E083
:10128000C8010E94760680E090E060960FB6F89460
:10129000DEBF0FBECDBFDF91CF911F910F9108959B
:1012A000002480FD060E660F11F08695D1F7802D83
:1012B00008950024552704C0080E591F880F991F50
:1012C000009729F076956795B8F37105B9F7802DE9
:1012D000952F0895991B79E004C0991F961708F07F
:1012E000961B881F7A95C9F780950895AA1BBB1B8A
:1012F00051E107C0AA1FBB1FA617B70710F0A61B16
:10130000B70B881F991F5A95A9F780959095BC0136
:10131000CD010895052E97FB1EF400940E94A109AB
:1013200057FD07D00E94A90907FC03D04EF40C9486
:10133000A10950954095309521953F4F4F4F5F4FF4
:10134000089590958095709561957F4F8F4F9F4F31
:101350000895A1E21A2EAA1BBB1BFD010DC0AA1FF6
:10136000BB1FEE1FFF1FA217B307E407F50720F00E
:10137000A21BB30BE40BF50B661F771F881F991F89
:101380001A9469F760957095809590959B01AC01D2
:10139000BD01CF010895FB01DC014150504048F0F0
:1013A00001900D920020C9F701C01D92415050409C
:0813B000E0F70895F894FFCF67
:1013B800010002000300000000001C000000000003
:1013C8000014000000000000000000000000000001
:1013D8000000000000000000000000000000000005
:1013E80000000000000000000000000001000804E8
:1013F8000C020A060E0109050D030B070F03400036
:101408008003100380032000400020001000080023
:101418000400020001034000800310038003200041
:1014280040002000100008000400020001038003AF
:0C14380040032000800310000306080A97
:00000001FF
