:100000000C943A000C9457000C9457000C94570031
:100010000C9457000C9457000C9457000C94570004
:100020000C9457000C9457000C9457000C945700F4
:100030000C9457000C9457000C9457000C945700E4
:100040000C9457000C9457000C9457000C945700D4
:100050000C9457000C9457000C9457000C945700C4
:100060000C9457000C9457000C9457000C945700B4
:100070000C94570011241FBECFEFD4E0DEBFCDBFDC
:1000800011E0A0E0B1E0E8EDF2E102C005900D92D0
:10009000AC38B107D9F711E0ACE8B1E001C01D926E
:1000A000A63BB107E1F70E9481080C946A090C9401
:1000B00000000E9474020E94B60680918D0190910A
:1000C0008E01892B49F483E50E94540781E090E07A
:1000D00090938E0180938D0180918D0190918E017E
:1000E000029709F0DFC082E00E948606882381F033
:1000F00080910A01803760F4880F80930A01809113
:100100009301811105C080910901880F8093090135
:1001100080E00E94860690919301882371F080917F
:100120000A01883050F0869580930A01911105C02C
:100130008091090186958093090180918C0181113C
:100140000AC0911108C084E00E948606882319F035
:1001500081E080939301809193018823F1F0809155
:1001600002019091030197FD18C020910401309184
:100170000501F901EA5FFE4F4081DC01AA5FBE4F35
:100180004C931082215031093093050120930401D2
:100190000197909303018093020180919501882338
:1001A00031F08091B10180930A0110929501809104
:1001B0009201882391F180910001909101010497AF
:1001C00061F590910A0180910901892B891751F0FD
:1001D0009093B10180930A011092090181E080930C
:1001E00095010FC083E090E09093B5018093B40136
:1001F00082E090E09093B3018093B20181E080931C
:100200008F0181E090E090930101809300011092B2
:100210009101109290011092920180918F01882398
:10022000F1F08091B2019091B30197FD18C0209137
:10023000B4013091B501F901EA5FFE4F4081DC0164
:10024000AA5FBE4F4C931082215031093093B50103
:100250002093B40101979093B3018093B2018091F0
:1002600092018823F9F0809100019091010184307E
:100270009105C4F42091900130919101F901EA5F58
:10028000FE4F4081DC01AA5FBE4F4C9310822F5F6E
:100290003F4F30939101209390010196909301017B
:1002A000809300010895FC01FF2784A1892B84A37A
:1002B00085A1892B85A381E00895A82FAF70B0E0B8
:1002C000A35CBE4F9C91990F990F990F86958695C7
:1002D0008695E82FF0E0E35CFE4F8081892B08953E
:1002E000E0919601F0919701EE0FFF1FE35BFE4F47
:1002F00020813181F901FF2795A1932B95A3E7E593
:10030000F1E020E030E090E0AC01022E02C0559513
:1003100047950A94E2F740FF0BC040815181DA0112
:10032000BB2795967C919597452F4095472308C00C
:1003300040815181DA01BB2795964C919597452BC9
:1003400095964C932F5F3F4F329627303105E1F65B
:1003500070E0FB01EE0FFF1FE35BFE4F8081918198
:10036000FC01FF2725A1892F8095822385A3709307
:10037000970160939601089560919401E62FF0E053
:10038000EA5FFE4F80810E947001809194018F5F2F
:10039000853018F48093940102C0109294018091EA
:1003A0009301811104C080918F01882361F08091B5
:1003B0000601882341F00E94540710920601109212
:1003C000930110928F010E944A07882359F180916E
:1003D0008D0190918E010197E1F40E944C078335C5
:1003E00061F482E090E090938E0180938D0188E02B
:1003F0008093090182E40C945407823499F481E0DB
:1004000080938C0182E090E090938E0180938D0127
:1004100008950E944C070E945D018093060181E0CF
:10042000809392010895E1E6F0E080E880831082F5
:10043000A89584B7877F84BFE0E6F0E0808188617B
:100440008083108208951092800084E08093810060
:1004500010928500109284000895809184009091FC
:1004600085000895AC0180918400909185009C01E5
:10047000241B350B283E3340B0F7089520918400AB
:1004800030918500820F931F0C94320281110CC0B1
:1004900080919801882329F08091990191E0892722
:1004A00001C080E08170089580E0089581110AC044
:1004B00080919801811103C08091990101C080E071
:1004C0008170089580E00895811103C080919801A2
:1004D000089580E00895811105C08091980191E010
:1004E0008927089580E00895E8E9F1E0808180930C
:1004F000990189B1881F8827881F8083089557989C
:100500005F9808958530A0F4673090F421E030E0E2
:10051000062E01C0220F0A94EAF7E82FF0E0E55614
:10052000FE4F822F8095908189234111822B8083F9
:100530000895853088F4673078F4E82FF0E0E556C8
:10054000FE4F21E030E0062E01C0220F0A94EAF7A8
:100550009081922381E009F480E0089560919A01EE
:10056000E62FF0E0E556FE4F80810E94FD0280916B
:100570009A018F5F853018F480939A010895109244
:100580009A01089510929B0110929C0110929D0176
:1005900010929E0110929F0108950E94DB020C941C
:1005A000C202FC01FF2784A1892B84A385A1892B8A
:1005B00085A381E00895CF93DF93CFE6D1E08991C1
:1005C00099910E94D10281E0CD37D807C1F783E02D
:1005D00090E40E94D10280E090E80E94D10283E082
:1005E00090E10E94D10283E090E80E94D10283E072
:1005F00090E2DF91CF910C94D102E091A001F0E064
:10060000EE0FFF1FEB59FE4F20813181F901FF27CB
:1006100095A1932B95A3EFE6F1E020813181D901DB
:10062000BB2780FF07C095962C919597932F9095A7
:10063000922304C095969C919597932B95969C93A5
:100640008695329691E0ED37F90739F7E62FF0E01D
:10065000EE0FFF1FEB59FE4F80819181FC01FF27B8
:1006600025A1892F8095822385A36093A0010895F9
:10067000009789F0FC012381621B67FD09C0772781
:1006800067FD7095248130E081E0621773070CF0FC
:1006900080E08170089580E00895CF93DF93FC019E
:1006A000822F309789F19181491770F52281821745
:1006B00058F52381621B67FD27C0A62FBB27A7FD26
:1006C000B095C481D0E0AC17BD07F4F4692F0E9447
:1006D000EC08480F658170E0CD010E94F508DC014F
:1006E0001696842F869586958695AE0FBF1FA80F08
:1006F000B11D2C9130E0477002C0359527954A9581
:10070000E2F7822F817001C080E0DF91CF910895E0
:10071000CF93DF93EC010E9423029E0140E050E062
:1007200062E17AE780E090E00E941A093093A40128
:100730002093A301DF91CF9108958091A101909121
:10074000A2010E9432028091A1019091A201209108
:10075000A3013091A401820F931F9093A201809373
:10076000A101089541E0611101C040E0692F0C949E
:100770008202692F0C94990241E0611101C040E0AE
:10078000692F0C9482026F927F928F929F92AF9208
:10079000BF92CF92DF92EF92FF920F931F93CF936E
:1007A000DF931F92CDB7DEB7862EB42E6C01862F55
:1007B000992787FD90958C199109C7FC9395072F70
:1007C000112707FD10950D191109D7FC139597FDF9
:1007D00003C0AA24A39402C0AA24AA9417FD03C0AC
:1007E0009924939402C099249A943C0197FF03C0E2
:1007F00071946194710817FF03C011950195110957
:100800006016710694F07301F594E794C81409F129
:100810006B2DC6010E94BC03E01AF10AF7FE03C06B
:10082000E60CF71CD90CCA0CF1CF7801F594E794CB
:10083000D71679F06B2DC60179830E94BC03E618A8
:10084000F7087981F7FE03C0E00EF11ECA0CD90C3F
:10085000EFCF6B2DC6010F90DF91CF911F910F91BC
:10086000FF90EF90DF90CF90BF90AF909F908F90D0
:100870007F906F900C94BC03FF920F931F93CF93C4
:10088000DF93182FF92E062FC72FD42F792F0E9410
:10089000C3034D2F612F7C2F812F9F2D0E94C303F7
:1008A0004D2F602F7C2F802F9F2D0E94C3034D2F33
:1008B000602F7C2F812F9C2F0E94C303DF91CF914B
:1008C0001F910F91FF9008950E94C20210921C0187
:1008D000109217010895DF92EF92FF920F931F93EA
:1008E000CF93DF93E82E8B01F62ED12E20910D01B0
:1008F00030910E01D0E02130310599F5D12EDD1A6D
:10090000E0911301F09114018181C0E0D817B8F48F
:10091000E0911301F09114018281C81770F42C2F1B
:100920004D2F6E2DCF010E944D03682F8C2F800F0D
:100930009D2D0E94BC03CF5FEBCFDF5FDFCFE09147
:100940001301F09114018281C81740F460E08C2FEC
:10095000800F9D2D0E94BC03CF5FF1CFDA9430C091
:10096000DF5FFD2EF00EE0911301F0911401818103
:10097000C0E0D817A8F4E0911301F091140182812E
:10098000C81770F72C2F4D2F6E2DCF010E944D03ED
:10099000682F8F2D9C2F910F0E94BC03CF5FEBCF50
:1009A000E0911301F09114018281C81740F460E0D6
:1009B0008F2D9C2F910F0E94BC03CF5FF1CFF3943A
:1009C0008F2D9D2DDF91CF911F910F91FF90EF9073
:1009D000DF9008951F93CF93DF93182FEC019C2F86
:1009E000911B8991882349F00E946B04BC019C2FC4
:1009F000911B653014F477FFF2CF892FDF91CF91EF
:100A00001F9108950F931F93CF93DF93EC019B01E8
:100A1000109217014093180110921B0100911301CD
:100A2000109114010115110509F448C0F8018181E4
:100A3000609111017091120190E00E94F508BC01D3
:100A400080911501909116010E940609CB016AE080
:100A500070E00E94F50890931A0180931901309379
:100A6000100120930F0140E250E0BE018CE191E0C3
:100A70000E945B0980910B0190910C010197F1F4A8
:100A8000FE0101900020E9F7CF010197F801618193
:100A900070E06F5F7F4F8C1B0E94EC0881502091AB
:100AA0000D0130910E012130310511F497E001C0A4
:100AB00095E0981718F48EEF80931B01DF91CF918A
:100AC0001F910F91089520910D0130910E01213059
:100AD000310511F476E001C070E04FEF60E00E9454
:100AE0000205089590E090931201809311010895FA
:100AF00090930C0180930B01089590930E018093C5
:100B00000D01089590931401809313010895CF93DC
:100B10008091A5019091A60101969093A6018093E2
:100B2000A5012091190130911A018217930708F449
:100B300068C01092A6011092A501E0911701F0E0A3
:100B4000E55FFE4F818981110AC0809118018230D2
:100B500008F457C081508093180110921701C0917A
:100B600017018C2F90E0FC01E55FFE4F21892223C5
:100B700009F447C020910B0130910C0140911B01F9
:100B80002115310521F02130310589F022C04111B4
:100B900020C060910F0170911001845E9E4F0E94F1
:100BA000EA049FEF9C0F980F9093170112C0609179
:100BB0000F017091100120910D0130910E01213033
:100BC000310511F4740F01C0641B845E9E4F0E94B6
:100BD000EA0420911B012F5F20931B01332727FD7F
:100BE0003095E0911301F0911401818190E082171A
:100BF00093073CF410921B01809117018F5F809343
:100C00001701CF910C94AE029093160180931501B9
:100C10000E94CD0284E190E0909312018093110133
:100C20000C946404182F092FF62E0E9423020E94B0
:100C30002D02C12FD02F8E819F810E943202E88128
:100C4000F9818A819B8109952E813F818C819D81CB
:100C5000280F391F3F832E830E942D02E12FF02F92
:100C60002FEF3FEF60E06F1531F3AE2F7F2F4681FE
:100C700057816C01C41AD50AA601BFEFCB16BFE796
:100C8000DB0610F4EF01D7CF51954195510942177A
:100C9000530718F0A901AC2F7D2F6F5F38969A018A
:100CA000CA2FD72FE0CF6230710511F160F46130A7
:100CB000710551F5FC01FF2784A19095892384A338
:100CC00085A189231EC06330710541F06430710530
:100CD000D9F4FC01FF2784A1892B10C0FC01FF2758
:100CE00084A1892B84A325A1892F8095822309C003
:100CF000FC01FF2784A1292F2095822384A385A1AD
:100D0000892B85A381E0089580E00895E82FF0E025
:100D1000EE0FFF1FE955FE4F8081882321F081816E
:100D200091E0892701C080E081700895E82FF0E00C
:100D3000EE0FFF1FE955FE4F8081811102C08181B6
:100D400001C080E081700895E82FF0E0EE0FFF1FF2
:100D5000E955FE4F80810895E82FF0E0EE0FFF1F68
:100D6000E955FE4F908181E0892708954F925F9267
:100D70007F928F929F92AF92BF92CF92DF92EF922B
:100D8000FF920F931F93CF93DF9300D0CDB7DEB7C1
:100D900057EA452E51E0552E68EAE62E61E0F62E20
:100DA0007DE7A72E71E0B72EE6E07E2EF20180816E
:100DB000F7018083F501019111915F016801DD2444
:100DC000F60184A1812E992425A130E02821392122
:100DD00041E0232B09F440E090E088219921892B00
:100DE00029F0442341F024E030E00AC0442331F0EC
:100DF00022E030E005C023E030E002C021E030E036
:100E000064E070E0C80129833A830E94530662E0DF
:100E100070E0C8010E945306872D8A95F1F7F6010C
:100E200083A190E08821992141E029813A81892B91
:100E300009F040E0F2014083B901C8010E94530665
:100E4000F2E04F0E511C82E0E80EF11CE1EB4E1671
:100E5000E1E05E0609F0AACF0F900F90DF91CF91ED
:100E60001F910F91FF90EF90DF90CF90BF90AF90C8
:100E70009F908F907F905F904F900895089581117B
:100E800005C0662311F0429A0895429808953A9A4F
:100E9000429A08950C94B1070C94D2070C94B707AA
:100EA0000C94BD070C94C3070E94C3070E94BD07A2
:100EB0008823E1F38CE291E00197F1F70E94B107FA
:100EC00081110C944C0708950C94D907CF93DF93AC
:100ED00000D01F92CDB7DEB780ED90E09A83898372
:100EE00088E08B83509A589A0E944E088FE690E0D3
:100EF0000E94E50781E090E00E943D0861E070E01B
:100F000081E090E00E9429080E941508CE01019618
:100F10000E9499070F900F900F90DF91CF91089545
:100F20009C01215031093093CD0081508093CC0039
:100F30000895CF93DF93EC01888199810E949007F7
:100F40008A819BEF980F943008F088E098E19093A5
:100F5000C9008550880F8093CA0081E0DF91CF914E
:100F600008958091C800881F8827881F0895809160
:100F7000C80085FB882780F908958091C80086FB0A
:100F8000882780F90895CF93C82F0E94B707882338
:100F9000E1F39091C80090649093C800C093CE0094
:100FA000CF9108958091C80087FFFCCF8091CE003B
:100FB0000895CF93DF93EC018991882319F00E9463
:100FC000C307FACFDF91CF910895CF93DF931F929C
:100FD000CDB7DEB79E012F5F3F4F45E067E871E078
:100FE0000E94580891E0980F90933C01998191508C
:100FF00097BD18BC95B5977039F025B590913C0117
:101000009770287F922B95BD298130E0E82FF0E082
:10101000E957FE4FC901008002C0880F991F0A944A
:10102000E2F70F90DF91CF91089585B3897F85BB5B
:1010300095B580913C018770987F892B85BD089577
:1010400085B5887F85BD089585B382FB882780F9A3
:101050000895009719F0019741F0089584B56295BD
:10106000660F660F607C8F7305C084B563706295F0
:10107000607F8F7C682B64BD0895009741F00197D5
:1010800059F484B58E7F84BD84B5826002C084B576
:101090008C7F84BD81E0089580E0089514BC15BC68
:1010A00016BC18BC81E090E00E943D0881E00895E4
:1010B000CF93DF93D62FFB0160E070E0A1E0B0E0BA
:1010C0005E2F5D1B5417B8F4C191BD010C2E02C0F8
:1010D000660F771F0A94E2F76F5F7F4F76956795EB
:1010E000680F791F02C076956795CA95E2F76F3F42
:1010F000710509F028F7F9016083852FDF91CF9101
:1011000008950F931F93CF93DF93CDB7DEB760970A
:101110000FB6F894DEBF0FBECDBF0E9413020E942F
:10112000660780E090E40E94530180E090E20E9414
:10113000530180E090E10E94530180E098E00E941A
:10114000530180E094E00E94530180E092E00E940D
:10115000530180E091E00E94530183E090E40E94FB
:10116000530180E090E80E94530183E090E10E94E7
:10117000530183E090E80E94530183E090E20E94D3
:1011800053018E010F5F1F4F80E1F80111928A9584
:10119000E9F78CEB91E09A8389838FE090E09E835E
:1011A0008D8389E590E09A87898785E39CE09E8717
:1011B0008D870E947F0262E0C8010E94120680E0D3
:1011C00090E060960FB6F894DEBF0FBECDBFDF9102
:1011D000CF911F910F910895002480FD060E660F98
:1011E00011F08695D1F7802D08950024552704C06D
:1011F000080E591F880F991F009729F0769567955B
:10120000B8F37105B9F7802D952F0895AA1BBB1B64
:1012100051E107C0AA1FBB1FA617B70710F0A61BF6
:10122000B70B881F991F5A95A9F780959095BC0117
:10123000CD010895052E97FB1EF400940E943109FC
:1012400057FD07D00E94390907FC03D04EF40C94D7
:10125000310950954095309521953F4F4F4F5F4F45
:10126000089590958095709561957F4F8F4F9F4F12
:101270000895A1E21A2EAA1BBB1BFD010DC0AA1FD7
:10128000BB1FEE1FFF1FA217B307E407F50720F0EF
:10129000A21BB30BE40BF50B661F771F881F991F6A
:1012A0001A9469F760957095809590959B01AC01B3
:1012B000BD01CF010895FB01DC014150504048F0D1
:1012C00001900D920020C9F701C01D92415050407D
:0812D000E0F70895F894FFCF48
:1012D800010002000300000000001C0000000000E4
:1012E80000140000000000000000000000000000E2
:1012F80000000000000000000000000000000000E6
:1013080000000000000000000000000001000804C8
:101318000C020A060E0109050D030B070F03400016
:101328008003100380032000400020001000080004
:101338000400020001034000800310038003200022
:101348004000200010000800040002000103800390
:0C13580040032000800310000306080A78
:00000001FF
