:100000000C9467000C9484000C9484000C9484007D
:100010000C9484000C9484000C9484000C94840050
:100020000C9484000C9484000C9484000C94840040
:100030000C9484000C9484000C9484000C94840030
:100040000C9484000C9484000C9484000C94840020
:100050000C9484000C9484000C9484000C94840010
:100060000C9484000C9484000C9484000C94840000
:100070000C94840008000000BE922449123EABAAF2
:10008000AA2ABECDCCCC4C3E00000080BEABAAAAB2
:10009000AA3E00000000BF000000803F00000000FA
:1000A00000084178D3BB4387D1133D190E3CC3BD33
:1000B0004282AD2B3E68EC8276BED98FE1A93E4CE0
:1000C00080EFFFBE01C4FF7F3F000000000011244D
:1000D0001FBECFEFD4E0DEBFCDBF12E0A0E0B1E0A5
:1000E000E8E9FCE102C005900D92A032B107D9F712
:1000F00012E0A0E2B2E001C01D92A036B107E1F724
:100100000E94C10A0C944A0E0C9400009C01FC0150
:10011000FF2784A1832B84A395A1892F832B85A3FB
:1001200081E00895E0914502F0914602EE0FFF1F35
:10013000EF50FE4F20813181F901FF2795A1932BCC
:1001400095A3EBEFF1E020E030E090E0AC01022E6F
:1001500002C0559547950A94E2F740FF0AC04081D6
:100160005181DA01BB2795964C919597509545237F
:1001700008C040815181DA01BB2795964C91959733
:10018000452B95964C932F5F3F4F32962730310584
:10019000E9F670E0FB01EE0FFF1FEF50FE4F80818C
:1001A0009181FC01FF2785A19095892385A37093F8
:1001B000460260934502089560915102E62FF0E0F7
:1001C000EE5BFE4F80810E949200809151028F5F12
:1001D000853018F4809351020895109251020895C9
:1001E00080913B02811104C080913A02882331F052
:1001F0000E94B40481E090E00C94A5040E94DC000D
:100200000E9417080C942E080E9421090E942909B7
:100210000E9454090E94DF090E949F0A0C94EE0973
:100220000E94A1010E94E305809140029091410249
:10023000892B31F480913902811102C00E94BE07DE
:100240008091400290914102029711F40C940401B4
:1002500008958CE291E00E9431058EE491E00E94C5
:10026000AF048AE00E949F0481E090E00E94A50410
:1002700081E090E00E94AA0489E092E00C9490044E
:10028000E1E6F0E080E880831082A89584B7877F5C
:1002900084BFE0E6F0E08081886180831082089569
:1002A0001092800084E0809381001092850010926B
:1002B0008400089580918400909185000895AC0198
:1002C00080918400909185009C01241B350B283E71
:1002D0003340B0F708952091840030918500820F5B
:1002E000931F0C945F0181110CC080912002882320
:1002F00029F08091210291E0892701C080E081707E
:10030000089580E0089581110AC080912002811132
:1003100003C08091210201C080E08170089580E0D7
:100320000895811103C080912002089580E008950E
:10033000811105C08091200291E08927089580E015
:100340000895E0E2F2E080818093210289B1881F64
:100350008827881F8083089557985F98089585306F
:10036000A0F4673090F421E030E0062E01C0220FA7
:100370000A94EAF7E82FF0E0ED5DFD4F822F8095BB
:10038000908189234111822B80830895853088F4E0
:10039000673078F4E82FF0E0ED5DFD4F21E030E0CC
:1003A000062E01C0220F0A94EAF79081922381E081
:1003B00009F480E0089560912202E62FF0E0ED5DFF
:1003C000FD4F80810E942A02809122028F5F85303A
:1003D00018F4809322020895109222020895109238
:1003E00023021092240210922502109226021092EB
:1003F000270208950E9408020C94EF01FC01FF27D8
:1004000084A1892B84A385A1892B85A381E00895EC
:10041000CF93DF93C4EDD1E0899199910E94FE01C1
:1004200081E0C23ED807C1F783E090E40E94FE015C
:1004300080E090E80E94FE0183E090E10E94FE01CE
:1004400083E090E80E94FE0183E090E2DF91CF918B
:100450000C94FE01E0912802F0E0EE0FFF1FE6533E
:10046000FE4F20813181F901FF2795A1932B95A3A0
:10047000E4EDF1E020813181D901BB2780FF07C085
:1004800095962C919597932F9095922304C09596CD
:100490009C919597932B95969C938695329691E097
:1004A000E23EF90739F7E62FF0E0EE0FFF1FE653C3
:1004B000FE4F80819181FC01FF2725A1892F809526
:1004C000822385A3609328020895009789F0FC0198
:1004D0002381621B67FD09C0772767FD7095248122
:1004E00030E081E0621773070CF080E081700895BE
:1004F00080E00895CF93DF93FC01822F309789F13C
:100500009181491770F52281821758F52381621B6A
:1005100067FD27C0A62FBB27A7FDB095C481D0E0FB
:10052000AC17BD07F4F4692F0E94C00D480F658118
:1005300070E0CD010E94C90DDC011696842F8695CE
:1005400086958695AE0FBF1FA80FB11D2C9130E088
:10055000477002C0359527954A95E2F7822F817042
:1005600001C080E0DF91CF910895CF93DF93EC013C
:100570000E9450019E0140E050E062E17AE780E095
:1005800090E00E94FA0D30932C0220932B02DF9111
:10059000CF9108958091290290912A020E945F01D3
:1005A0008091290290912A0220912B0230912C02F5
:1005B000820F931F90932A0280932902089541E0AD
:1005C000611101C040E0692F0C94AF01692F0C94B8
:1005D000C60141E0611101C040E0692F0C94AF01F8
:1005E0006F927F928F929F92AF92BF92CF92DF9243
:1005F000EF92FF920F931F93CF93DF931F92CDB78C
:10060000DEB7862EB42E6C01862F992787FD909534
:100610008C199109C7FC9395072F112707FD109599
:100620000D191109D7FC139597FD03C0AA24A394B3
:1006300002C0AA24AA9417FD03C09924939402C06F
:1006400099249A943C0197FF03C0719461947108B6
:1006500017FF03C01195019511096016710694F0FA
:100660007301F594E794C81409F16B2DC6010E943B
:10067000E902E01AF10AF7FE03C0E60CF71CD90CF8
:10068000CA0CF1CF7801F594E794D71679F06B2D69
:10069000C60179830E94E902E618F7087981F7FE1E
:1006A00003C0E00EF11ECA0CD90CEFCF6B2DC601B2
:1006B0000F90DF91CF911F910F91FF90EF90DF90FE
:1006C000CF90BF90AF909F908F907F906F900C9441
:1006D000E902FF920F931F93CF93DF93182FF92E08
:1006E000062FC72FD42F792F0E94F0024D2F612F94
:1006F0007C2F812F9F2D0E94F0024D2F602F7C2F89
:10070000802F9F2D0E94F0024D2F602F7C2F812F74
:100710009C2F0E94F002DF91CF911F910F91FF90CB
:1007200008950E94EF011092110110920C0108959A
:10073000DF92EF92FF920F931F93CF93DF93E82EF8
:100740008B01F62ED12E2091020130910301D0E0D1
:100750002130310599F5D12EDD1AE0910801F09193
:1007600009018181C0E0D817B8F4E0910801F09147
:1007700009018281C81770F42C2F4D2F6E2DCF01E7
:100780000E947A02682F8C2F800F9D2D0E94E90213
:10079000CF5FEBCFDF5FDFCFE0910801F091090180
:1007A0008281C81740F460E08C2F800F9D2D0E943D
:1007B000E902CF5FF1CFDA9430C0DF5FFD2EF00E9B
:1007C000E0910801F09109018181C0E0D817A8F4F7
:1007D000E0910801F09109018281C81770F72C2F70
:1007E0004D2F6E2DCF010E947A02682F8F2D9C2FE6
:1007F000910F0E94E902CF5FEBCFE0910801F091E9
:1008000009018281C81740F460E08F2D9C2F910F61
:100810000E94E902CF5FF1CFF3948F2D9D2DDF91E0
:10082000CF911F910F91FF90EF90DF9008951F934C
:10083000CF93DF93182FEC019C2F911B8991882374
:1008400049F00E949803BC019C2F911B653014F461
:1008500077FFF2CF892FDF91CF911F9108950F93EA
:100860001F93CF93DF93EC019B0110920C014093F7
:100870000D0110921001009108011091090101155C
:10088000110509F448C0F801818160910601709159
:10089000070190E00E94C90DBC0180910A0190916E
:1008A0000B010E94E60DCB016AE070E00E94C90DC9
:1008B00090930F0180930E01309305012093040162
:1008C00040E250E0BE0181E191E00E943B0E809148
:1008D0000001909101010197F1F4FE0101900020C7
:1008E000E9F7CF010197F801618170E06F5F7F4FF9
:1008F0008C1B0E94C00D8150209102013091030198
:100900002130310511F497E001C095E0981718F4F3
:100910008EEF80931001DF91CF911F910F91089579
:1009200020910201309103012130310511F476E06C
:1009300001C070E04FEF60E00E942F04089590E046
:10094000909307018093060108959093010180938D
:1009500000010895909303018093020108959093FC
:100960000901809308010895CF9380912D02909101
:100970002E02019690932E0280932D0220910E015B
:1009800030910F018217930708F468C010922E026D
:1009900010922D02E0910C01F0E0E050FF4F8189B0
:1009A00081110AC080910D01823008F457C0815036
:1009B00080930D0110920C01C0910C018C2F90E0DE
:1009C000FC01E050FF4F2189222309F447C0209108
:1009D000000130910101409110012115310521F0F4
:1009E0002130310589F022C0411120C060910401FD
:1009F000709105018F5E9E4F0E9417049FEF9C0F20
:100A0000980F90930C0112C0609104017091050140
:100A100020910201309103012130310511F4740F4E
:100A200001C0641B8F5E9E4F0E941704209110012D
:100A30002F5F20931001332727FD3095E0910801A7
:100A4000F0910901818190E0821793073CF41092A4
:100A5000100180910C018F5F80930C01CF910C9459
:100A6000DB0190930B0180930A010E94FA0184E15B
:100A700090E090930701809306010C949103182F46
:100A8000092FF62E0E9450010E945A01C12FD02F2B
:100A90008E819F810E945F01E881F9818A819B811B
:100AA00009952E813F818C819D81280F391F3F83BD
:100AB0002E830E945A01E12FF02F2FEF3FEF60E0CD
:100AC0006F1531F3AE2F7F2F468157816C01C41A09
:100AD000D50AA601BFEFCB16BFE7DB0610F4EF0186
:100AE000D7CF5195419551094217530718F0A901E5
:100AF000AC2F7D2F6F5F38969A01CA2FD72FE0CF8A
:100B00006230710511F160F46130710551F5FC013D
:100B1000FF2784A19095892384A385A189231EC0E2
:100B20006330710541F064307105D9F4FC01FF2791
:100B300084A1892B10C0FC01FF2784A1892B84A3E9
:100B400025A1892F8095822309C0FC01FF2784A15C
:100B5000292F2095822384A385A1892B85A381E059
:100B6000089580E00895E82FF0E0EE0FFF1FE15DAB
:100B7000FD4F8081882321F0818191E0892701C088
:100B800080E081700895E82FF0E0EE0FFF1FE15D37
:100B9000FD4F8081811102C0818101C080E08170A0
:100BA0000895E82FF0E0EE0FFF1FE15DFD4F80811B
:100BB0000895E82FF0E0EE0FFF1FE15DFD4F9081FB
:100BC00081E0892708954F925F927F928F929F9242
:100BD000AF92BF92CF92DF92EF92FF920F931F934B
:100BE000CF93DF9300D0CDB7DEB75FE2452E52E062
:100BF000552E60E3E62E62E0F62E72EEA72E71E02F
:100C0000B72EE6E07E2EF2018081F7018083F501A8
:100C1000019111915F016801DD24F60184A1812E0B
:100C2000992425A130E02821392141E0232B09F422
:100C300040E090E088219921892B29F0442341F05C
:100C400024E030E00AC0442331F022E030E005C067
:100C500023E030E002C021E030E064E070E0C80151
:100C600029833A830E94800562E070E0C8010E94F7
:100C70008005872D8A95F1F7F60183A190E0882100
:100C8000992141E029813A81892B09F040E0F20164
:100C90004083B901C8010E948005F2E04F0E511C4B
:100CA00082E0E80EF11CE9E34E16E2E05E0609F090
:100CB000AACF0F900F90DF91CF911F910F91FF90CE
:100CC000EF90DF90CF90BF90AF909F908F907F90EC
:100CD0005F904F9008950895811105C0662311F02B
:100CE000429A0895429808953A9A429A08950C9427
:100CF000DE060C94FF060C94E4060C94EA060C94B1
:100D0000F0060E94F0060E94EA068823E1F38CE2D6
:100D100091E00197F1F70E94DE0681110C947906AB
:100D200008950C940607CF93DF9300D01F92CDB7A0
:100D3000DEB780ED90E09A83898388E08B83509AB8
:100D4000589A0E947B078FE690E00E94120781E08C
:100D500090E00E946A0761E070E081E090E00E940C
:100D600056070E944207CE0101960E94C6060F90C8
:100D70000F900F90DF91CF9108959C012150310980
:100D80003093CD0081508093CC000895CF93DF93B2
:100D9000EC01888199810E94BD068A819BEF980FA2
:100DA000943008F088E098E19093C9008550880F4E
:100DB0008093CA0081E0DF91CF9108958091C800AF
:100DC000881F8827881F08958091C80085FB882781
:100DD00080F908958091C80086FB882780F90895DE
:100DE000CF93C82F0E94E4068823E1F39091C800B6
:100DF00090649093C800C093CE00CF9108958091E5
:100E0000C80087FFFCCF8091CE000895CF93DF9379
:100E1000EC018991882319F00E94F006FACFDF9146
:100E2000CF910895CF93DF931F92CDB7DEB79E0188
:100E30002F5F3F4F45E06CEE71E00E94850791E027
:100E4000980F909331019981915097BD18BC95B539
:100E5000977039F025B5909131019770287F922BCA
:100E600095BD298130E0E82FF0E0E451FE4FC90143
:100E7000008002C0880F991F0A94E2F70F90DF915B
:100E8000CF91089585B3897F85BB95B58091310158
:100E90008770987F892B85BD089585B5887F85BD2E
:100EA000089585B382FB882780F90895009719F08B
:100EB000019741F0089584B56295660F660F607CD6
:100EC0008F7305C084B563706295607F8F7C682BDB
:100ED00064BD0895009741F0019759F484B58E7F61
:100EE00084BD84B5826002C084B58C7F84BD81E0FE
:100EF000089580E0089514BC15BC16BC18BC81E0B0
:100F000090E00E946A0781E00895CF93DF93D62F87
:100F1000FB0160E070E0A1E0B0E05E2F5D1B5417C4
:100F2000B8F4C191BD010C2E02C0660F771F0A9460
:100F3000E2F76F5F7F4F76956795680F791F02C064
:100F400076956795CA95E2F76F3F710509F028F726
:100F5000F9016083852FDF91CF910895809142013F
:100F600090E00E94540890914402890F0E948106EB
:100F700081E080933D0210923E02089583E50E9435
:100F8000810681E090E090934102809340020895B1
:100F900087E50C9481060E947906833561F482E02E
:100FA00090E0909341028093400288E08093450155
:100FB00082E40C948106823449F481E080933F02FC
:100FC00082E090E0909341028093400208950E9455
:100FD0007906873551F490914701992331F081E0EA
:100FE00080933A02109247010895982F977090933A
:100FF00052028871803131F481E080934202809303
:10100000480207C0883029F481E08093420280932F
:101010004702973059F0892F90E00E9466080E949D
:1010200041088093420181E08093420208958091BB
:101030003C02882349F080914201882329F00E94D4
:10104000AE0710923C02089580913E02882329F059
:101050008091420181110C94AE0708950E94770699
:10106000882371F08091400290914102019731F400
:1010700080913902811102C00C94CB070C94E707D0
:101080000895E82FEF70F0E0EE5CFE4F9081990F2D
:10109000990F990FE82FE695E695E695F0E0EE5C5E
:1010A000FE4F8081892B0895682F70E080E090E0EA
:1010B0000E94CF0B0E94650C28E132E741E35FE319
:1010C0000E942E0B0E94A00B862F089521E030E095
:1010D00040E050E090E0481759072CF4220F331FEE
:1010E0004F5F5F4FF8CF822F089582E00E94B305D3
:1010F000882381F080914601803760F4880F8093C7
:10110000460180914302811105C080914501880FFD
:1011100080934501089580E00E94B305882381F003
:1011200080914601883060F08695809346018091D9
:101130004302811105C08091450186958093450148
:10114000089580913F0281110EC080914302811168
:101150000AC084E00E94B305882329F081E08093CF
:101160003C0280934302089580913A02811105C0A8
:1011700080913B02882309F463C080E00E947301E0
:10118000882309F45DC080913A02882331F088E019
:101190008093450110923F0203C081E080933F029B
:1011A00089E092E00E94900483E090E090934D01EA
:1011B00080934C0182E090E090934B0180934A0130
:1011C0001092500221E030E0309349012093480111
:1011D00010924F0210924E0210924D0210924C0249
:1011E00010924B0210924A02109249021092480249
:1011F0001092470210924602109245021092440249
:101200001092430210924202909341028093400256
:1012100010923E0210923D0210923C0210923B024C
:1012200010923A0281E08093470180933902109234
:10123000420110924301109244018CE180934601D7
:1012400008950E9475080E948B080E94A1080C94C2
:10125000B408809143028823F1F080914A01909173
:101260004B0197FD18C020914C0130914D01F901BF
:10127000EE5BFE4F4081DC01AE5BBE4F4C931082B3
:101280002150310930934D0120934C0101979093E7
:101290004B0180934A0180913D02882321F01092F6
:1012A000420110923D02089580915002882379F006
:1012B00080915B02809346011092500281E08093FE
:1012C0003B0284E192E00E9490040C94C8070895C8
:1012D00083E090E090935D0280935C0282E090E076
:1012E00090935F0280935E0281E080934A02809334
:1012F0003E0210924D0280E180934402089583E003
:1013000090E0909358028093570282E090E090938F
:1013100056028093550281E080934B0280933E02F7
:1013200010924402089583E090E090935A028093D3
:10133000590282E090E0909354028093530281E03E
:101340008093490280933E0210924C0288E0809381
:10135000440208959091460120914501822F892BE6
:10136000891751F090935B028093460110924501DA
:1013700081E080935002089567E00E94DA0D8213A5
:1013800002C00C94680990E0880F991F30E0821722
:10139000930711F40C947F090C94930981E090E079
:1013A000909349018093480110924F0210924E028F
:1013B00010924202109248021092470208958091C2
:1013C0004202882351F0809148019091490104978D
:1013D00021F40E94AA090C94CE090895809142023A
:1013E000882399F120914801309149012430310539
:1013F00064F540914802F901EE5BFE4F80914E0288
:1014000090914F02442331F0DC01AE5BBE4F4C9112
:10141000440F0BC040914702DC01AE5BBE4F44233A
:1014200019F04C91469501C04C914083FC01EE5B54
:10143000FE4F1082019690934F0280934E022F5FD1
:101440003F4F309349012093480108958091550200
:10145000909156022091570230915802F901EE5BAB
:10146000FE4F4081DC01AE5BBE4F4C931082215099
:1014700031093093580220935702019790935602F6
:1014800080935502089540915C0250915D02FA01EB
:10149000EE5BFE4F808120915E0230915F02D901A8
:1014A000AE5BBE4F803439F090914D02911103C074
:1014B000880F8C9308C086958C9381E080934D02B1
:1014C00080E18093440210824150510950935D02A3
:1014D00040935C022150310930935F0220935E02F9
:1014E00008954091590250915A02FA01EE5BFE4F65
:1014F00080812091530230915402D901AE5BBE4FDE
:10150000813039F090914C02911103C086958C93F3
:1015100008C0880F8C9381E080934C0288E0809310
:10152000440210824150510950935A02409359028B
:101530002150310930935402209353020895809131
:101540004B02882339F0809155029091560297FF03
:101550000E94260A80914A02882339F080915E0217
:1015600090915F0297FF0E94430A8091490288236D
:1015700039F0809153029091540297FF0C94710AB4
:1015800008950F931F93CF93DF93CDB7DEB7609786
:101590000FB6F894DEBF0FBECDBF0E9440010E947F
:1015A000930680E090E40E94860080E090E20E9432
:1015B000860080E090E10E94860080E098E00E9432
:1015C000860080E094E00E94860080E092E00E9425
:1015D000860080E091E00E94860083E090E40E9413
:1015E000860080E090E80E94860083E090E10E94FF
:1015F000860083E090E80E94860083E090E20E94EB
:1016000086000E9429018E010F5F1F4F80E1F801C3
:1016100011928A95E9F780EF90E09A8389838DE7AC
:1016200090E09E838D8380E191E09A87898780E7AF
:1016300091E19E878D870E94AC0162E0C8010E9403
:101640003F0580E090E060960FB6F894DEBF0FBED5
:10165000CDBFDF91CF911F910F9108950E94420B52
:101660000C94230C0E941C0C58F00E94150C40F0A6
:1016700029F45F3F29F00C940C0C51110C94570C79
:101680000C94120C0E94340C68F39923B1F3552387
:1016900091F3951B550BBB27AA2762177307840785
:1016A00038F09F5F5F4F220F331F441FAA1FA9F31B
:1016B00035D00E2E3AF0E0E832D091505040E69509
:1016C000001CCAF72BD0FE2F29D0660F771F881F6A
:1016D000BB1F261737074807AB07B0E809F0BB0B5D
:1016E000802DBF01FF2793585F4F3AF09E3F510571
:1016F00078F00C940C0C0C94570C5F3FE4F3983E7C
:10170000D4F3869577956795B795F7959F5FC9F759
:10171000880F911D9695879597F90895E1E0660FDA
:10172000771F881FBB1F621773078407BA0720F053
:10173000621B730B840BBA0BEE1F88F7E0950895BC
:101740000E943C0C88F09F5798F0B92F9927B75109
:10175000B0F0E1F0660F771F881F991F1AF0BA9555
:10176000C9F714C0B13091F00E94560CB1E0089551
:101770000C94560C672F782F8827B85F39F0B93F43
:10178000CCF3869577956795B395D9F73EF4909508
:101790008095709561957F4F8F4F9F4F0895E89486
:1017A00009C097FB3EF490958095709561957F4FA9
:1017B0008F4F9F4F9923A9F0F92F96E9BB27939557
:1017C000F695879577956795B795F111F8CFFAF467
:1017D000BB0F11F460FF1BC06F5F7F4F8F4F9F4F98
:1017E00016C0882311F096E911C0772321F09EE8F6
:1017F000872F762F05C0662371F096E8862F70E05C
:1018000060E02AF09A95660F771F881FDAF7880F35
:101810009695879597F9089597F99F6780E870E006
:1018200060E008959FEF80EC089500240A94161656
:10183000170618060906089500240A9412161306BE
:10184000140605060895092E0394000C11F488234C
:1018500052F0BB0F40F4BF2B11F460FF04C06F5F68
:101860007F4F8F4F9F4F089557FD9058440F551F3E
:1018700059F05F3F71F04795880F97FB991F61F012
:101880009F3F79F087950895121613061406551F89
:10189000F2CF4695F1DF08C0161617061806991FF5
:1018A000F1CF86957105610508940895E894BB27EA
:1018B00066277727CB0197F9089516F00C948B0DC6
:1018C0000C94120C68940C940C0C0E943C0CA8F321
:1018D0009923C1F3AEF3DF93CF931F930F93FF923E
:1018E000C92FDD2788232AF02197660F771F881FCD
:1018F000DAF720E030E040E85FEB9FE3883920F042
:10190000803E38F021968F770E941F0DE4E7F0E0CB
:1019100004C00E941F0DE1EAF0E00E94990D8B01C6
:10192000BE01EC01FB2E6F5771097595771F880B6F
:10193000990B0E94D10B28E132E741E35FE30E945B
:10194000BB0CAF2D9801AE01FF900F911F91CF916D
:10195000DF910E94360D0C94230C0E94150C38F078
:101960000E941C0C20F0952311F00C940C0C0C948C
:10197000120C0C94570C0E94340C78F39923C9F381
:101980005523B9F3950F50E0551FAA27EE27FF27DF
:10199000BB2700240894679520F4E20FF31FB41FBF
:1019A0000A1E220F331F441FAA1F6695A9F77795B9
:1019B00030F4F30FB41F0A1E121E08F46395330FA0
:1019C000441FAA1F221F769599F7879520F4B40F1C
:1019D0000A1E121E631F440FAA1F221F331F869563
:1019E000A9F7862F712D602D11249F5750409AF032
:1019F000F1F088234AF0EE0FFF1FBB1F661F771F11
:101A0000881F91505040A9F79E3F510580F00C94DB
:101A10000C0C0C94570C5F3FE4F3983ED4F386957E
:101A200077956795B795F795E7959F5FC1F7FE2B7B
:101A3000880F911D9695879597F908955058BB2763
:101A4000AA270E94360D0C94230C0E94150C38F026
:101A50000E941C0C20F039F49F3F19F426F40C94DA
:101A6000120C0EF4E095E7FB0C940C0CE92F0E948D
:101A7000340C58F3BA17620773078407950720F0F0
:101A800079F4A6F50C94560C0EF4E0950B2EBA2FB3
:101A9000A02D0B01B90190010C01CA01A001112474
:101AA000FF27591B99F0593F50F4503E68F11A1620
:101AB000F040A22F232F342F4427585FF3CF4695B1
:101AC00037952795A795F0405395C9F77EF41F16D3
:101AD000BA0B620B730B840BBAF09150A1F0FF0F9D
:101AE000BB1F661F771F881FC2F70EC0BA0F621F89
:101AF000731F841F48F4879577956795B795F79579
:101B00009E3F08F0B0CF9395880F08F09927EE0F0D
:101B10009795879508959F3F31F0915020F48795D0
:101B200077956795B795880F911D9695879597F945
:101B30000895DF93CF931F930F93FF92EF92DF925D
:101B40007B018C01689406C0DA2EEF010E94BB0C69
:101B5000FE01E894A5912591359145915591A6F303
:101B6000EF010E94360DFE019701A801DA9469F792
:101B7000DF90EF90FF900F911F91CF91DF9108952B
:101B8000002480FD060E660F11F08695D1F7802D9A
:101B900008950024552704C0080E591F880F991F67
:101BA000009729F076956795B8F37105B9F7802D00
:101BB000952F0895991B79E004C0991F961708F096
:101BC000961B881F7A95C9F780950895AA1BBB1BA1
:101BD00051E107C0AA1FBB1FA617B70710F0A61B2D
:101BE000B70B881F991F5A95A9F780959095BC014E
:101BF000CD010895052E97FB1EF400940E94110E4E
:101C000057FD07D00E94190E07FC03D04EF40C9428
:101C1000110E50954095309521953F4F4F4F5F4F96
:101C2000089590958095709561957F4F8F4F9F4F48
:101C30000895A1E21A2EAA1BBB1BFD010DC0AA1F0D
:101C4000BB1FEE1FFF1FA217B307E407F50720F025
:101C5000A21BB30BE40BF50B661F771F881F991FA0
:101C60001A9469F760957095809590959B01AC01E9
:101C7000BD01CF010895FB01DC014150504048F007
:101C800001900D920020C9F701C01D9241505040B3
:081C9000E0F70895F894FFCF7E
:101C98000000000000001400000000000000000028
:101CA800000000000000000000000000000000002C
:101CB800000000000000000000000000000000001C
:101CC80000010008040C020A060E0109050D030BA9
:101CD800070F000000001C010100020003000103BF
:101CE80005203B0200009220EB737D5FDE3DA5528C
:101CF800EA7A14004A222229BA2ED0050014C0011B
:101D08000020A4126A2B9A74A372A338ED498F3865
:101D1800CE2AA712AA2AAE49100410145444380E29
:101D280011152A250000EA5BEB3A4F726B3BCF7323
:101D3800CF134F7AED5B9774247B5D564972FD5B38
:101D48006F5B6F7BEF136F7FEF57CE3897246D7BF8
:101D58006D2BED5FAD5AAD24A772034000800310D0
:101D68000380032000400020001000080004000247
:101D780000010380034003200080031000030608CD
:101D88000A03400080031003800320004000200065
:101D9800100008000400020001594F5520574F4E0B
:101DA800203A2900594F55204C4F5354203A2800C7
:00000001FF
