:100000000C9467000C9484000C9484000C9484007D
:100010000C9484000C9484000C9484000C94840050
:100020000C9484000C9484000C9484000C94840040
:100030000C9484000C9484000C9484000C94840030
:100040000C9484000C9484000C9484000C94840020
:100050000C9484000C9484000C9484000C94840010
:100060000C9484000C9484000C9484000C94840000
:100070000C94840008000000BE922449123EABAAF2
:10008000AA2ABECDCCCC4C3E00000080BEABAAAAB2
:10009000AA3E00000000BF000000803F00000000FA
:1000A00000084178D3BB4387D1133D190E3CC3BD33
:1000B0004282AD2B3E68EC8276BED98FE1A93E4CE0
:1000C00080EFFFBE01C4FF7F3F000000000011244D
:1000D0001FBECFEFD4E0DEBFCDBF11E0A0E0B1E0A6
:1000E000E0EFFAE102C005900D92AC38B107D9F704
:1000F00011E0ACE8B1E001C01D92A83CB107E1F706
:100100000E94EF090C94760D0C9400009C01FC01F8
:10011000FF2784A1832B84A395A1892F832B85A3FB
:1001200081E00895E82FEF70F0E0EE5CFE4F9081E3
:10013000990F990F990FE82FE695E695E695F0E06F
:10014000EE5CFE4F8081892B0895682F70E080E07F
:1001500090E00E94FB0A0E94910B28E132E741E304
:100160005FE30E945A0A0E94CC0A862F089521E07C
:1001700030E040E050E090E0481759072CF4220F9F
:10018000331F4F5F5F4FF8CF822F0895E091AD018D
:10019000F091AE01EE0FFF1FEC58FE4F2081318130
:1001A000F901FF2795A1932B95A3EEE7F1E020E05D
:1001B00030E090E0AC01022E02C0559547950A94BC
:1001C000E2F740FF0AC040815181DA01BB279596D2
:1001D0004C9195975095452308C040815181DA0193
:1001E000BB2795964C919597452B95964C932F5FF1
:1001F0003F4F329627303105E9F670E0FB01EE0FF4
:10020000FF1FEC58FE4F80819181FC01FF2785A1E3
:100210009095892385A37093AE016093AD010895F5
:100220000E949E08833561F482E090E09093A901DA
:100230008093A80188E08093450182E40C94A6088D
:10024000823449F481E08093A70182E090E09093AA
:10025000A9018093A80108950E949E08982F877095
:100260008093BA019871903131F491E09093AA0192
:100270009093B00107C0983029F491E09093AA01BF
:100280009093AF01873049F00E94B7000E9492001E
:100290008093420181E08093AA0108956091B901A1
:1002A000E62FF0E0EE5BFE4F80810E94C600809159
:1002B000B9018F5F853018F48093B90102C01092A4
:1002C000B9018091AB01811104C08091A6018823FE
:1002D00029F08091420181110E94D3090E949C085B
:1002E000882351F08091A8019091A901019711F400
:1002F0000C9410010C942C01089582E00E94D80700
:10030000882381F080914601803760F4880F8093C4
:1003100046018091AB01811105C080914501880F94
:100320008093450180E00E94D807882381F0809166
:100330004601883060F08695809346018091AB013C
:10034000811105C08091450186958093450180917A
:10035000A70181110CC08091AB01811108C084E01C
:100360000E94D807882319F081E08093AB0108959B
:100370008091AB018823F1F08091490190914A016D
:1003800097FD18C020914B0130914C01F901EE5BB3
:10039000FE4F4081DC01AE5BBE4F4C93108221507A
:1003A000310930934C0120934B01019790934A01FE
:1003B000809349018091A501882321F01092420188
:1003C0001092A50108958091B801882331F08091A1
:1003D000C301809346011092B801089583E090E034
:1003E0009093C5018093C40182E090E09093C7018F
:1003F0008093C60181E08093B2018093A6011092A0
:10040000B50180E18093AC01089583E090E0909382
:10041000C0018093BF0182E090E09093BE01809381
:10042000BD0181E08093B3018093A6011092AC01DD
:10043000089583E090E09093C2018093C10182E02F
:1004400090E09093BC018093BB0181E08093B10167
:100450008093A6011092B40188E08093AC010895C6
:100460009091460120914501822F892B891751F0E7
:100470009093C301809346011092450181E08093DF
:10048000B801089567E00E94060D821302C00C9423
:10049000EE0190E0880F991F30E08217930711F466
:1004A0000C9405020C94190281E090E090934801AD
:1004B000809347011092B7011092B6011092AA01E1
:1004C0001092B0011092AF0108958091BD019091FA
:1004D000BE012091BF013091C001F901EE5BFE4FDA
:1004E0004081DC01AE5BBE4F4C931082215031093C
:1004F0003093C0012093BF0101979093BE01809378
:10050000BD0108954091C4015091C501FA01EE5B0F
:10051000FE4F80812091C6013091C701D901AE5BA9
:10052000BE4F803439F09091B501911103C0880F0E
:100530008C9308C086958C9381E08093B50180E10F
:100540008093AC011082415051095093C5014093F2
:10055000C401215031093093C7012093C601089589
:100560004091C1015091C201FA01EE5BFE4F8081C2
:100570002091BB013091BC01D901AE5BBE4F8130EF
:1005800039F09091B401911103C086958C9308C005
:10059000880F8C9381E08093B40188E08093AC0154
:1005A0001082415051095093C2014093C101215022
:1005B00031093093BC012093BB0108958091AA01B9
:1005C000882399F120914701309148012430310569
:1005D00064F54091B001F901EE5BFE4F8091B601E8
:1005E0009091B701442331F0DC01AE5BBE4F4C91DA
:1005F000440F0BC04091AF01DC01AE5BBE4F442302
:1006000019F04C91469501C04C914083FC01EE5B82
:10061000FE4F108201969093B7018093B6012F5F31
:100620003F4F309348012093470108958091AA01DC
:10063000882351F08091470190914801049721F45B
:100640000E9430020E9454028091B301882339F045
:100650008091BD019091BE0197FF0E94650280913B
:10066000B201882339F08091C6019091C70197FFAC
:100670000E9482028091B101882339F08091BB01F0
:100680009091BC0197FF0C94B00208950E947D01E7
:100690000E94B8010E94E3010E9416030C94DE023E
:1006A0000E94C6030E9408088091A8019091A901A8
:1006B000892B11F40E94E5098091A8019091A9016C
:1006C000029711F40C9446030895E1E6F0E080E807
:1006D00080831082A89584B7877F84BFE0E6F0E02E
:1006E000808188618083108208951092800084E068
:1006F000809381001092850010928400089580916B
:100700008400909185000895AC01809184009091BF
:1007100085009C01241B350B283E3340B0F708951B
:100720002091840030918500820F931F0C948403E4
:1007300081110CC080918C01882329F080918D015A
:1007400091E0892701C080E08170089580E00895DC
:1007500081110AC080918C01811103C080918D01AB
:1007600001C080E08170089580E00895811103C088
:1007700080918C01089580E00895811105C08091D9
:100780008C0191E08927089580E00895ECE8F1E07C
:10079000808180938D0189B1881F8827881F80837D
:1007A000089557985F9808958530A0F4673090F4C5
:1007B00021E030E0062E01C0220F0A94EAF7E82F6C
:1007C000F0E0E157FE4F822F8095908189234111FF
:1007D000822B80830895853088F4673078F4E82F81
:1007E000F0E0E157FE4F21E030E0062E01C0220F7D
:1007F0000A94EAF79081922381E009F480E0089559
:1008000060918E01E62FF0E0E157FE4F80810E945B
:100810004F0480918E018F5F853018F480938E0194
:10082000089510928E01089510928F0110929001F8
:1008300010929101109292011092930108950E94DA
:100840002D040C941404FC01FF2784A1892B84A39C
:1008500085A1892B85A381E00895CF93DF93C7E518
:10086000D1E0899199910E94230481E0C536D8078F
:10087000C1F783E090E40E94230480E090E80E94A6
:10088000230483E090E10E94230483E090E80E9427
:10089000230483E090E2DF91CF910C942304E09154
:1008A0009401F0E0EE0FFF1FE35BFE4F20813181EA
:1008B000F901FF2795A1932B95A3E7E5F1E02081AE
:1008C0003181D901BB2780FF07C095962C91959760
:1008D000932F9095922304C095969C919597932B76
:1008E00095969C938695329691E0E536F90739F70F
:1008F000E62FF0E0EE0FFF1FE35BFE4F808191815A
:10090000FC01FF2725A1892F8095822385A3609371
:1009100094010895009789F0FC012381621B67FD13
:1009200009C0772767FD7095248130E081E0621768
:1009300073070CF080E08170089580E00895CF93F4
:10094000DF93FC01822F309789F19181491770F56F
:100950002281821758F52381621B67FD27C0A62FCD
:10096000BB27A7FDB095C481D0E0AC17BD07F4F458
:10097000692F0E94EC0C480F658170E0CD010E9448
:10098000F50CDC011696842F869586958695AE0F1C
:10099000BF1FA80FB11D2C9130E0477002C03595E4
:1009A00027954A95E2F7822F817001C080E0DF91A0
:1009B000CF910895CF93DF93EC010E9475039E01C0
:1009C00040E050E062E17AE780E090E00E94260D8E
:1009D0003093980120939701DF91CF9108958091F2
:1009E0009501909196010E948403809195019091C8
:1009F00096012091970130919801820F931F909357
:100A0000960180939501089541E0611101C040E095
:100A1000692F0C94D403692F0C94EB0341E061110E
:100A200001C040E0692F0C94D4036F927F928F92A3
:100A30009F92AF92BF92CF92DF92EF92FF920F936D
:100A40001F93CF93DF931F92CDB7DEB7862EB42EC0
:100A50006C01862F992787FD90958C199109C7FC09
:100A60009395072F112707FD10950D191109D7FC34
:100A7000139597FD03C0AA24A39402C0AA24AA94A4
:100A800017FD03C09924939402C099249A943C01C1
:100A900097FF03C071946194710817FF03C011950B
:100AA000019511096016710694F07301F594E794AD
:100AB000C81409F16B2DC6010E940E05E01AF10A57
:100AC000F7FE03C0E60CF71CD90CCA0CF1CF780175
:100AD000F594E794D71679F06B2DC60179830E94BF
:100AE0000E05E618F7087981F7FE03C0E00EF11E47
:100AF000CA0CD90CEFCF6B2DC6010F90DF91CF91AF
:100B00001F910F91FF90EF90DF90CF90BF90AF902B
:100B10009F908F907F906F900C940E05FF920F9393
:100B20001F93CF93DF93182FF92E062FC72FD42FA3
:100B3000792F0E9415054D2F612F7C2F812F9F2D1E
:100B40000E9415054D2F602F7C2F802F9F2D0E9416
:100B500015054D2F602F7C2F812F9C2F0E9415058E
:100B6000DF91CF911F910F91FF9008950E9414047F
:100B70001092110110920C010895DF92EF92FF92F2
:100B80000F931F93CF93DF93E82E8B01F62ED12E78
:100B90002091020130910301D0E02130310599F517
:100BA000D12EDD1AE0910801F09109018181C0E0A8
:100BB000D817B8F4E0910801F09109018281C817B3
:100BC00070F42C2F4D2F6E2DCF010E949F04682FA3
:100BD0008C2F800F9D2D0E940E05CF5FEBCFDF5F26
:100BE000DFCFE0910801F09109018281C81740F43C
:100BF00060E08C2F800F9D2D0E940E05CF5FF1CFFE
:100C0000DA9430C0DF5FFD2EF00EE0910801F09124
:100C100009018181C0E0D817A8F4E0910801F091A2
:100C200009018281C81770F72C2F4D2F6E2DCF012F
:100C30000E949F04682F8F2D9C2F910F0E940E05FC
:100C4000CF5FEBCFE0910801F09109018281C817D5
:100C500040F460E08F2D9C2F910F0E940E05CF5F16
:100C6000F1CFF3948F2D9D2DDF91CF911F910F9197
:100C7000FF90EF90DF9008951F93CF93DF93182F8D
:100C8000EC019C2F911B8991882349F00E94BD059E
:100C9000BC019C2F911B653014F477FFF2CF892F94
:100CA000DF91CF911F9108950F931F93CF93DF93FF
:100CB000EC019B0110920C0140930D011092100168
:100CC00000910801109109010115110509F448C0AE
:100CD000F8018181609106017091070190E00E9406
:100CE000F50CBC0180910A0190910B010E94120D3C
:100CF000CB016AE070E00E94F50C90930F018093A5
:100D00000E01309305012093040140E250E0BE0142
:100D100081E191E00E94670D8091000190910101B5
:100D20000197F1F4FE0101900020E9F7CF0101974E
:100D3000F801618170E06F5F7F4F8C1B0E94EC0CAB
:100D4000815020910201309103012130310511F4CD
:100D500097E001C095E0981718F48EEF809310018A
:100D6000DF91CF911F910F91089520910201309151
:100D700003012130310511F476E001C070E04FEF3E
:100D800060E00E945406089590E0909307018093DC
:100D900006010895909301018093000108959093B6
:100DA0000301809302010895909309018093080143
:100DB0000895CF938091990190919A010196909313
:100DC0009A018093990120910E0130910F018217B1
:100DD000930708F468C010929A0110929901E0916B
:100DE0000C01F0E0E050FF4F818981110AC0809131
:100DF0000D01823008F457C0815080930D0110928C
:100E00000C01C0910C018C2F90E0FC01E050FF4FD1
:100E10002189222309F447C020910001309101016A
:100E2000409110012115310521F02130310589F063
:100E300022C0411120C060910401709105018F5EB4
:100E40009E4F0E943C069FEF9C0F980F90930C01C1
:100E500012C060910401709105012091020130914E
:100E600003012130310511F4740F01C0641B8F5E42
:100E70009E4F0E943C06209110012F5F209310018D
:100E8000332727FD3095E0910801F0910901818118
:100E900090E0821793073CF41092100180910C01AE
:100EA0008F5F80930C01CF910C94000490930B0101
:100EB00080930A010E941F0484E190E0909307014F
:100EC000809306010C94B605182F092FF62E0E9468
:100ED00075030E947F03C12FD02F8E819F810E94B6
:100EE0008403E881F9818A819B8109952E813F8164
:100EF0008C819D81280F391F3F832E830E947F03A1
:100F0000E12FF02F2FEF3FEF60E06F1531F3AE2FA1
:100F10007F2F468157816C01C41AD50AA601BFEF05
:100F2000CB16BFE7DB0610F4EF01D7CF5195419503
:100F300051094217530718F0A901AC2F7D2F6F5F9D
:100F400038969A01CA2FD72FE0CF6230710511F180
:100F500060F46130710551F5FC01FF2784A1909583
:100F6000892384A385A189231EC06330710541F0C4
:100F700064307105D9F4FC01FF2784A1892B10C0CE
:100F8000FC01FF2784A1892B84A325A1892F8095AB
:100F9000822309C0FC01FF2784A1292F20958223E9
:100FA00084A385A1892B85A381E0089580E008951D
:100FB000E82FF0E0EE0FFF1FE556FE4F80818823FB
:100FC00021F0818191E0892701C080E0817008953E
:100FD000E82FF0E0EE0FFF1FE556FE4F80818111F4
:100FE00002C0818101C080E081700895E82FF0E0A7
:100FF000EE0FFF1FE556FE4F80810895E82FF0E0C9
:10100000EE0FFF1FE556FE4F908181E0892708957E
:101010004F925F927F928F929F92AF92BF92CF92A8
:10102000DF92EF92FF920F931F93CF93DF9300D045
:10103000CDB7DEB75BE9452E51E0552E6CE9E62EC3
:1010400061E0F62E75E6A72E71E0B72EE6E07E2E63
:10105000F2018081F7018083F501019111915F0117
:101060006801DD24F60184A1812E992425A130E0B8
:101070002821392141E0232B09F440E090E0882128
:101080009921892B29F0442341F024E030E00AC063
:10109000442331F022E030E005C023E030E002C01C
:1010A00021E030E064E070E0C80129833A830E94C7
:1010B000A50762E070E0C8010E94A507872D8A9508
:1010C000F1F7F60183A190E08821992141E029817F
:1010D0003A81892B09F040E0F2014083B901C8014F
:1010E0000E94A507F2E04F0E511C82E0E80EF11CB1
:1010F000E5EA4E16E1E05E0609F0AACF0F900F90E8
:10110000DF91CF911F910F91FF90EF90DF90CF90E3
:10111000BF90AF909F908F907F905F904F90089579
:101120000895811105C0662311F0429A08954298EE
:1011300008953A9A429A08950C9403090C9424094C
:101140000C9409090C940F090C9415090E941509B7
:101150000E940F098823E1F38CE291E00197F1F7F7
:101160000E94030981110C949E0808950C942B0988
:10117000CF93DF9300D01F92CDB7DEB780ED90E024
:101180009A83898388E08B83509A589A0E94A00999
:101190008FE690E00E94370981E090E00E948F097D
:1011A00061E070E081E090E00E947B090E946709A5
:1011B000CE0101960E94EB080F900F900F90DF91E7
:1011C000CF9108959C01215031093093CD00815079
:1011D0008093CC000895CF93DF93EC0188819981AF
:1011E0000E94E2088A819BEF980F943008F088E013
:1011F00098E19093C9008550880F8093CA0081E0E0
:10120000DF91CF9108958091C800881F8827881F9B
:1012100008958091C80085FB882780F90895809102
:10122000C80086FB882780F90895CF93C82F0E94B5
:1012300009098823E1F39091C80090649093C80055
:10124000C093CE00CF9108958091C80087FFFCCF56
:101250008091CE000895CF93DF93EC01899188238C
:1012600019F00E941509FACFDF91CF910895CF931D
:10127000DF931F92CDB7DEB79E012F5F3F4F45E052
:101280006FE671E00E94AA0991E0980F90933101F6
:101290009981915097BD18BC95B5977039F025B5D7
:1012A000909131019770287F922B95BD298130E074
:1012B000E82FF0E0E159FE4FC901008002C0880F1D
:1012C000991F0A94E2F70F90DF91CF91089585B3AB
:1012D000897F85BB95B5809131018770987F892B77
:1012E00085BD089585B5887F85BD089585B382FB4A
:1012F000882780F90895009719F0019741F0089523
:1013000084B56295660F660F607C8F7305C084B5E7
:1013100063706295607F8F7C682B64BD0895009731
:1013200041F0019759F484B58E7F84BD84B5826005
:1013300002C084B58C7F84BD81E0089580E008956B
:1013400014BC15BC16BC18BC81E090E00E948F094B
:1013500081E00895CF93DF93D62FFB0160E070E02A
:10136000A1E0B0E05E2F5D1B5417B8F4C191BD0140
:101370000C2E02C0660F771F0A94E2F76F5F7F4F53
:1013800076956795680F791F02C076956795CA951F
:10139000E2F76F3F710509F028F7F9016083852FA7
:1013A000DF91CF9108958091420190E00E94A500C5
:1013B0009091AC01890F0E94A60881E08093A5015D
:1013C0001092AB011092A601089583E50E94A60831
:1013D00081E090E09093A9018093A80108950F9374
:1013E0001F93CF93DF93CDB7DEB760970FB6F89416
:1013F000DEBF0FBECDBF0E9465030E94B80880E02B
:1014000090E40E94860080E090E20E94860080E0E6
:1014100090E10E94860080E098E00E94860080E0D3
:1014200094E00E94860080E092E00E94860080E0C6
:1014300091E00E94860083E090E40E94860080E0B4
:1014400090E80E94860083E090E10E94860083E09D
:1014500090E80E94860083E090E20E9486008E0160
:101460000F5F1F4F80E1F80111928A95E9F78EE432
:1014700091E09A8389838DE790E09E838D8380E558
:1014800093E09A87898780E791E19E878D870E9404
:10149000D10362E0C8010E94640780E090E060969A
:1014A0000FB6F894DEBF0FBECDBFDF91CF911F9175
:1014B0000F9108950E946E0A0C944F0B0E94480BE6
:1014C00058F00E94410B40F029F45F3F29F00C9442
:1014D000380B51110C94830B0C943E0B0E94600B43
:1014E00068F39923B1F3552391F3951B550BBB2753
:1014F000AA2762177307840738F09F5F5F4F220F98
:10150000331F441FAA1FA9F335D00E2E3AF0E0E88E
:1015100032D091505040E695001CCAF72BD0FE2FD8
:1015200029D0660F771F881FBB1F2617370748076C
:10153000AB07B0E809F0BB0B802DBF01FF27935824
:101540005F4F3AF09E3F510578F00C94380B0C94A5
:10155000830B5F3FE4F3983ED4F3869577956795C8
:10156000B795F7959F5FC9F7880F911D9695879559
:1015700097F90895E1E0660F771F881FBB1F621778
:1015800073078407BA0720F0621B730B840BBA0B36
:10159000EE1F88F7E09508950E94680B88F09F572A
:1015A00098F0B92F9927B751B0F0E1F0660F771F87
:1015B000881F991F1AF0BA95C9F714C0B13091F07D
:1015C0000E94820BB1E008950C94820B672F782F54
:1015D0008827B85F39F0B93FCCF386957795679542
:1015E000B395D9F73EF490958095709561957F4FAE
:1015F0008F4F9F4F0895E89409C097FB3EF4909554
:101600008095709561957F4F8F4F9F4F9923A9F0DB
:10161000F92F96E9BB279395F6958795779567956A
:10162000B795F111F8CFFAF4BB0F11F460FF1BC0AE
:101630006F5F7F4F8F4F9F4F16C0882311F096E941
:1016400011C0772321F09EE8872F762F05C06623EF
:1016500071F096E8862F70E060E02AF09A95660FA8
:10166000771F881FDAF7880F9695879597F9089561
:1016700097F99F6780E870E060E008959FEF80EC45
:10168000089500240A9416161706180609060895E8
:1016900000240A9412161306140605060895092E4E
:1016A0000394000C11F4882352F0BB0F40F4BF2BBD
:1016B00011F460FF04C06F5F7F4F8F4F9F4F0895FD
:1016C00057FD9058440F551F59F05F3F71F04795F3
:1016D000880F97FB991F61F09F3F79F087950895D8
:1016E000121613061406551FF2CF4695F1DF08C0F7
:1016F000161617061806991FF1CF86957105610514
:1017000008940895E894BB2766277727CB0197F9BB
:10171000089516F00C94B70C0C943E0B68940C943E
:10172000380B0E94680BA8F39923C1F3AEF3DF9343
:10173000CF931F930F93FF92C92FDD2788232AF0A1
:101740002197660F771F881FDAF720E030E040E826
:101750005FEB9FE3883920F0803E38F021968F7749
:101760000E944B0CE4E7F0E004C00E944B0CE1EA5D
:10177000F0E00E94C50C8B01BE01EC01FB2E6F57FF
:1017800071097595771F880B990B0E94FD0A28E156
:1017900032E741E35FE30E94E70BAF2D9801AE0112
:1017A000FF900F911F91CF91DF910E94620C0C94DA
:1017B0004F0B0E94410B38F00E94480B20F09523FC
:1017C00011F00C94380B0C943E0B0C94830B0E947C
:1017D000600B78F39923C9F35523B9F3950F50E0C3
:1017E000551FAA27EE27FF27BB27002408946795DB
:1017F00020F4E20FF31FB41F0A1E220F331F441FF1
:10180000AA1F6695A9F7779530F4F30FB41F0A1E47
:10181000121E08F46395330F441FAA1F221F7695EA
:1018200099F7879520F4B40F0A1E121E631F440F08
:10183000AA1F221F331F8695A9F7862F712D602DB1
:1018400011249F5750409AF0F1F088234AF0EE0F90
:10185000FF1FBB1F661F771F881F91505040A9F7BD
:101860009E3F510580F00C94380B0C94830B5F3F26
:10187000E4F3983ED4F3869577956795B795F795F9
:10188000E7959F5FC1F7FE2B880F911D9695879571
:1018900097F908955058BB27AA270E94620C0C9410
:1018A0004F0B0E94410B38F00E94480B20F039F496
:1018B0009F3F19F426F40C943E0B0EF4E095E7FBE1
:1018C0000C94380BE92F0E94600B58F3BA1762078B
:1018D00073078407950720F079F4A6F50C94820B22
:1018E0000EF4E0950B2EBA2FA02D0B01B90190013B
:1018F0000C01CA01A0011124FF27591B99F0593F7F
:1019000050F4503E68F11A16F040A22F232F342FC6
:101910004427585FF3CF469537952795A795F04014
:101920005395C9F77EF41F16BA0B620B730B840B29
:10193000BAF09150A1F0FF0FBB1F661F771F881FE1
:10194000C2F70EC0BA0F621F731F841F48F4879539
:1019500077956795B795F7959E3F08F0B0CF93952B
:10196000880F08F09927EE0F9795879508959F3F68
:1019700031F0915020F4879577956795B795880F4A
:10198000911D9695879597F90895DF93CF931F93AF
:101990000F93FF92EF92DF927B018C01689406C057
:1019A000DA2EEF010E94E70BFE01E894A591259144
:1019B000359145915591A6F3EF010E94620CFE010D
:1019C0009701A801DA9469F7DF90EF90FF900F91EB
:1019D0001F91CF91DF910895002480FD060E660FC0
:1019E00011F08695D1F7802D08950024552704C065
:1019F000080E591F880F991F009729F07695679553
:101A0000B8F37105B9F7802D952F0895991B79E0EA
:101A100004C0991F961708F0961B881F7A95C9F77E
:101A200080950895AA1BBB1B51E107C0AA1FBB1FCD
:101A3000A617B70710F0A61BB70B881F991F5A955A
:101A4000A9F780959095BC01CD010895052E97FBCF
:101A50001EF400940E943D0D57FD07D00E94450DD5
:101A600007FC03D04EF40C943D0D509540953095F5
:101A700021953F4F4F4F5F4F0895909580957095FA
:101A800061957F4F8F4F9F4F0895A1E21A2EAA1B99
:101A9000BB1BFD010DC0AA1FBB1FEE1FFF1FA2171E
:101AA000B307E407F50720F0A21BB30BE40BF50B1B
:101AB000661F771F881F991F1A9469F760957095A4
:101AC000809590959B01AC01BD01CF010895FB016C
:101AD000DC014150504048F001900D920020C9F7C0
:101AE00001C01D9241505040E0F70895F894FFCF97
:101AF00000000000000014000000000000000000D2
:101B000000000000000000000000000000000000D5
:101B100000000000000000000000000000000000C5
:101B200000010008040C020A060E0109050D030B52
:101B3000070F000000001C0100020003000340002A
:101B400080031003800320004000200010000800E4
:101B50000400020001038003400320008003100002
:101B60000306080A0340008003100380032000409E
:0C1B70000020001000080004000200012A
:00000001FF
