:100000000C9467000C9484000C9484000C9484007D
:100010000C9484000C9484000C9484000C94840050
:100020000C9484000C9484000C9484000C94840040
:100030000C9484000C9484000C9484000C94840030
:100040000C9484000C9484000C9484000C94840020
:100050000C9484000C9484000C9484000C94840010
:100060000C9484000C9484000C9484000C94840000
:100070000C94840008000000BE922449123EABAAF2
:10008000AA2ABECDCCCC4C3E00000080BEABAAAAB2
:10009000AA3E00000000BF000000803F00000000FA
:1000A00000084178D3BB4387D1133D190E3CC3BD33
:1000B0004282AD2B3E68EC8276BED98FE1A93E4CE0
:1000C00080EFFFBE01C4FF7F3F000000000011244D
:1000D0001FBECFEFD4E0DEBFCDBF12E0A0E0B1E0A5
:1000E000EAE9FBE102C005900D92A032B107D9F711
:1000F00012E0A0E2B2E001C01D92AF35B107E1F716
:100100000E94420A0C94CB0D0C9400009C01FC014F
:10011000FF2784A1832B84A395A1892F832B85A3FB
:1001200081E00895E0914402F0914502EE0FFF1F37
:10013000EF50FE4F20813181F901FF2795A1932BCC
:1001400095A3EBEFF1E020E030E090E0AC01022E6F
:1001500002C0559547950A94E2F740FF0AC04081D6
:100160005181DA01BB2795964C919597509545237F
:1001700008C040815181DA01BB2795964C91959733
:10018000452B95964C932F5F3F4F32962730310584
:10019000E9F670E0FB01EE0FFF1FEF50FE4F80818C
:1001A0009181FC01FF2785A19095892385A37093F8
:1001B000450260934402089560915002E62FF0E0FA
:1001C000EE5BFE4F80810E949200809150028F5F13
:1001D000853018F4809350020895109250020895CB
:1001E00080913A02811104C080913902882331F054
:1001F0000E94B00481E090E00C94A1040E94DC0015
:100200000E9413080C942A080E946D080E94AA08F4
:100210000E94D5080E9460090E94200A0C946F0970
:100220000E949D010E94DF0580913F029091400253
:10023000892B11F40E94BA0780913F0290914002ED
:10024000029711F40C94040108958CE291E00E944D
:100250002D058EE491E00E94AB048AE00E949B048D
:1002600081E090E00E94A10481E090E00E94A60459
:1002700089E092E00C948C04E1E6F0E080E8808371
:100280001082A89584B7877F84BFE0E6F0E0808184
:1002900088618083108208951092800084E08093AA
:1002A000810010928500109284000895809184004E
:1002B000909185000895AC01809184009091850013
:1002C0009C01241B350B283E3340B0F70895209144
:1002D000840030918500820F931F0C945B01811183
:1002E0000CC080912002882329F08091210291E0A6
:1002F000892701C080E08170089580E00895811110
:100300000AC080912002811103C08091210201C0A6
:1003100080E08170089580E00895811103C080918C
:100320002002089580E00895811105C08091200287
:1003300091E08927089580E00895E0E2F2E080816D
:100340008093210289B1881F8827881F80830895A0
:1003500057985F9808958530A0F4673090F421E0B5
:1003600030E0062E01C0220F0A94EAF7E82FF0E0F1
:10037000ED5DFD4F822F8095908189234111822B65
:1003800080830895853088F4673078F4E82FF0E0B2
:10039000ED5DFD4F21E030E0062E01C0220F0A94F2
:1003A000EAF79081922381E009F480E0089560915A
:1003B0002202E62FF0E0ED5DFD4F80810E942602D3
:1003C000809122028F5F853018F480932202089575
:1003D0001092220208951092230210922402109289
:1003E0002502109226021092270208950E9404020C
:1003F0000C94EB01FC01FF2784A1892B84A385A128
:10040000892B85A381E00895CF93DF93C4EDD1E0DC
:10041000899199910E94FA0181E0C23ED807C1F703
:1004200083E090E40E94FA0180E090E80E94FA01E3
:1004300083E090E10E94FA0183E090E80E94FA01D3
:1004400083E090E2DF91CF910C94FA01E0912802D1
:10045000F0E0EE0FFF1FE653FE4F20813181F901DE
:10046000FF2795A1932B95A3E4EDF1E02081318145
:10047000D901BB2780FF07C095962C919597932FA4
:100480009095922304C095969C919597932B959661
:100490009C938695329691E0E23EF90739F7E62F74
:1004A000F0E0EE0FFF1FE653FE4F80819181FC01CB
:1004B000FF2725A1892F8095822385A36093280299
:1004C0000895009789F0FC012381621B67FD09C034
:1004D000772767FD7095248130E081E0621773070C
:1004E0000CF080E08170089580E00895CF93DF9351
:1004F000FC01822F309789F19181491770F5228193
:10050000821758F52381621B67FD27C0A62FBB27E2
:10051000A7FDB095C481D0E0AC17BD07F4F4692FF6
:100520000E94410D480F658170E0CD010E944A0D87
:10053000DC011696842F869586958695AE0FBF1F93
:10054000A80FB11D2C9130E0477002C0359527955A
:100550004A95E2F7822F817001C080E0DF91CF9150
:100560000895CF93DF93EC010E944C019E0140E07F
:1005700050E062E17AE780E090E00E947B0D3093EA
:100580002C0220932B02DF91CF91089580912902B4
:1005900090912A020E945B018091290290912A0287
:1005A00020912B0230912C02820F931F90932A02EC
:1005B00080932902089541E0611101C040E0692F54
:1005C0000C94AB01692F0C94C20141E0611101C090
:1005D00040E0692F0C94AB016F927F928F929F92B3
:1005E000AF92BF92CF92DF92EF92FF920F931F9341
:1005F000CF93DF931F92CDB7DEB7862EB42E6C015A
:10060000862F992787FD90958C199109C7FC9395A2
:10061000072F112707FD10950D191109D7FC139508
:1006200097FD03C0AA24A39402C0AA24AA9417FD8C
:1006300003C09924939402C099249A943C0197FF93
:1006400003C071946194710817FF03C0119501955F
:1006500011096016710694F07301F594E794C814BB
:1006600009F16B2DC6010E94E502E01AF10AF7FEBE
:1006700003C0E60CF71CD90CCA0CF1CF7801F59435
:10068000E794D71679F06B2DC60179830E94E502B5
:10069000E618F7087981F7FE03C0E00EF11ECA0CD8
:1006A000D90CEFCF6B2DC6010F90DF91CF911F9129
:1006B0000F91FF90EF90DF90CF90BF90AF909F9001
:1006C0008F907F906F900C94E502FF920F931F9391
:1006D000CF93DF93182FF92E062FC72FD42F792F02
:1006E0000E94EC024D2F612F7C2F812F9F2D0E94A5
:1006F000EC024D2F602F7C2F802F9F2D0E94EC024B
:100700004D2F602F7C2F812F9C2F0E94EC02DF91B8
:10071000CF911F910F91FF9008950E94EB011092CD
:10072000110110920C010895DF92EF92FF920F9346
:100730001F93CF93DF93E82E8B01F62ED12E2091BD
:10074000020130910301D0E02130310599F5D12E1D
:10075000DD1AE0910801F09109018181C0E0D8170C
:10076000B8F4E0910801F09109018281C81770F492
:100770002C2F4D2F6E2DCF010E947602682F8C2FCB
:10078000800F9D2D0E94E502CF5FEBCFDF5FDFCFB3
:10079000E0910801F09109018281C81740F460E0FE
:1007A0008C2F800F9D2D0E94E502CF5FF1CFDA9450
:1007B00030C0DF5FFD2EF00EE0910801F0910901DD
:1007C0008181C0E0D817A8F4E0910801F0910901F7
:1007D0008281C81770F72C2F4D2F6E2DCF010E94EC
:1007E0007602682F8F2D9C2F910F0E94E502CF5F1C
:1007F000EBCFE0910801F09109018281C81740F424
:1008000060E08F2D9C2F910F0E94E502CF5FF1CF0A
:10081000F3948F2D9D2DDF91CF911F910F91FF901C
:10082000EF90DF9008951F93CF93DF93182FEC0183
:100830009C2F911B8991882349F00E949403BC014D
:100840009C2F911B653014F477FFF2CF892FDF9135
:10085000CF911F9108950F931F93CF93DF93EC01D6
:100860009B0110920C0140930D0110921001009118
:100870000801109109010115110509F448C0F8019A
:100880008181609106017091070190E00E944A0DFC
:10089000BC0180910A0190910B010E94670DCB0170
:1008A0006AE070E00E944A0D90930F0180930E0160
:1008B000309305012093040140E250E0BE0181E144
:1008C00091E00E94BC0D809100019091010101977F
:1008D000F1F4FE0101900020E9F7CF010197F80142
:1008E000618170E06F5F7F4F8C1B0E94410D8150D2
:1008F00020910201309103012130310511F497E07C
:1009000001C095E0981718F48EEF80931001DF91E5
:10091000CF911F910F910895209102013091030111
:100920002130310511F476E001C070E04FEF60E056
:100930000E942B04089590E0909307018093060194
:10094000089590930101809300010895909303010D
:1009500080930201089590930901809308010895FE
:10096000CF9380912D0290912E02019690932E02AA
:1009700080932D0220910E0130910F018217930771
:1009800008F468C010922E0210922D02E0910C0122
:10099000F0E0E050FF4F818981110AC080910D0184
:1009A000823008F457C0815080930D0110920C01E1
:1009B000C0910C018C2F90E0FC01E050FF4F218989
:1009C000222309F447C02091000130910101409198
:1009D00010012115310521F02130310589F022C0A7
:1009E000411120C060910401709105018F5E9E4FFE
:1009F0000E9413049FEF9C0F980F90930C0112C05C
:100A00006091040170910501209102013091030170
:100A10002130310511F4740F01C0641B8F5E9E4FAD
:100A20000E941304209110012F5F2093100133279F
:100A300027FD3095E0910801F0910901818190E056
:100A4000821793073CF41092100180910C018F5F84
:100A500080930C01CF910C94D70190930B0180935C
:100A60000A010E94F60184E190E0909307018093CF
:100A700006010C948D03182F092FF62E0E944C01AD
:100A80000E945601C12FD02F8E819F810E945B0151
:100A9000E881F9818A819B8109952E813F818C8132
:100AA0009D81280F391F3F832E830E945601E12F1D
:100AB000F02F2FEF3FEF60E06F1531F3AE2F7F2F58
:100AC000468157816C01C41AD50AA601BFEFCB1627
:100AD000BFE7DB0610F4EF01D7CF519541955109DF
:100AE0004217530718F0A901AC2F7D2F6F5F38967E
:100AF0009A01CA2FD72FE0CF6230710511F160F44F
:100B00006130710551F5FC01FF2784A1909589237F
:100B100084A385A189231EC06330710541F0643030
:100B20007105D9F4FC01FF2784A1892B10C0FC01B9
:100B3000FF2784A1892B84A325A1892F8095822357
:100B400009C0FC01FF2784A1292F2095822384A3BB
:100B500085A1892B85A381E0089580E00895E82F81
:100B6000F0E0EE0FFF1FE15DFD4F8081882321F053
:100B7000818191E0892701C080E081700895E82F8C
:100B8000F0E0EE0FFF1FE15DFD4F8081811102C09B
:100B9000818101C080E081700895E82FF0E0EE0FC0
:100BA000FF1FE15DFD4F80810895E82FF0E0EE0F1B
:100BB000FF1FE15DFD4F908181E0892708954F92ED
:100BC0005F927F928F929F92AF92BF92CF92DF926D
:100BD000EF92FF920F931F93CF93DF9300D0CDB787
:100BE000DEB75FE2452E52E0552E60E3E62E62E06E
:100BF000F62E72EEA72E71E0B72EE6E07E2EF20101
:100C00008081F7018083F501019111915F016801F5
:100C1000DD24F60184A1812E992425A130E028212C
:100C2000392141E0232B09F440E090E0882199210B
:100C3000892B29F0442341F024E030E00AC044230A
:100C400031F022E030E005C023E030E002C021E0D6
:100C500030E064E070E0C80129833A830E947C059B
:100C600062E070E0C8010E947C05872D8A95F1F74B
:100C7000F60183A190E08821992141E029813A8100
:100C8000892B09F040E0F2014083B901C8010E94BC
:100C90007C05F2E04F0E511C82E0E80EF11CE9E306
:100CA0004E16E2E05E0609F0AACF0F900F90DF919A
:100CB000CF911F910F91FF90EF90DF90CF90BF9059
:100CC000AF909F908F907F905F904F900895089580
:100CD000811105C0662311F0429A08954298089543
:100CE0003A9A429A08950C94DA060C94FB060C94F6
:100CF000E0060C94E6060C94EC060E94EC060E94BA
:100D0000E6068823E1F38CE291E00197F1F70E9477
:100D1000DA0681110C94750608950C940207CF939E
:100D2000DF9300D01F92CDB7DEB780ED90E09A83BD
:100D3000898388E08B83509A589A0E9477078FE6C0
:100D400090E00E940E0781E090E00E94660761E05B
:100D500070E081E090E00E9452070E943E07CE01C1
:100D600001960E94C2060F900F900F90DF91CF91D5
:100D700008959C01215031093093CD00815080931A
:100D8000CC000895CF93DF93EC01888199810E9474
:100D9000B9068A819BEF980F943008F088E098E1BB
:100DA0009093C9008550880F8093CA0081E0DF913D
:100DB000CF9108958091C800881F8827881F0895C3
:100DC0008091C80085FB882780F908958091C8002C
:100DD00086FB882780F90895CF93C82F0E94E006EC
:100DE0008823E1F39091C80090649093C800C09369
:100DF000CE00CF9108958091C80087FFFCCF8091ED
:100E0000CE000895CF93DF93EC018991882319F0E8
:100E10000E94EC06FACFDF91CF910895CF93DF9334
:100E20001F92CDB7DEB79E012F5F3F4F45E06CEEBE
:100E300071E00E94810791E0980F909331019981B0
:100E4000915097BD18BC95B5977039F025B5909124
:100E500031019770287F922B95BD298130E0E82FD2
:100E6000F0E0E451FE4FC901008002C0880F991FD5
:100E70000A94E2F70F90DF91CF91089585B3897FAF
:100E800085BB95B5809131018770987F892B85BD91
:100E9000089585B5887F85BD089585B382FB882731
:100EA00080F90895009719F0019741F0089584B5ED
:100EB0006295660F660F607C8F7305C084B56370A2
:100EC0006295607F8F7C682B64BD0895009741F028
:100ED000019759F484B58E7F84BD84B5826002C0C9
:100EE00084B58C7F84BD81E0089580E0089514BCB2
:100EF00015BC16BC18BC81E090E00E94660781E03A
:100F00000895CF93DF93D62FFB0160E070E0A1E05E
:100F1000B0E05E2F5D1B5417B8F4C191BD010C2EDB
:100F200002C0660F771F0A94E2F76F5F7F4F7695D6
:100F30006795680F791F02C076956795CA95E2F7A5
:100F40006F3F710509F028F7F9016083852FDF9164
:100F5000CF9108958091420190E00E944C089091B9
:100F60004302890F0E947D0681E080933C0210922B
:100F70003D02089583E50E947D0681E090E0909314
:100F8000400280933F02089587E50C947D060E94FD
:100F90007506833561F482E090E09093400280937F
:100FA0003F0288E08093450182E40C947D06823400
:100FB00049F481E080933E0282E090E09093400209
:100FC00080933F0208950E947506873551F49091F1
:100FD0004701992331F081E0809339021092470153
:100FE0000895982F9770909351028871803131F451
:100FF00081E0809341028093470207C0883029F442
:1010000081E08093410280934602973059F0892F06
:1010100090E00E945E080E9439088093420181E0BE
:1010200080934102089580913B02882349F080918A
:101030004201882329F00E94AA0710923B020895DA
:1010400080913D02882329F08091420181110C9406
:10105000AA0708950E947306882351F080913F02E9
:1010600090914002019711F40C94C7070C94E30788
:101070000895E82FEF70F0E0EE5CFE4F9081990F3D
:10108000990F990FE82FE695E695E695F0E0EE5C6E
:10109000FE4F8081892B0895682F70E080E090E0FA
:1010A0000E94500B0E94E60B28E132E741E35FE328
:1010B0000E94AF0A0E94210B862F089521E030E0A4
:1010C00040E050E090E0481759072CF4220F331FFE
:1010D0004F5F5F4FF8CF822F089582E00E94AF05E7
:1010E000882381F080914601803760F4880F8093D7
:1010F000460180914202811105C080914501880F0F
:101100008093450180E00E94AF05882381F08091A3
:101110004601883060F086958093460180914202B6
:10112000811105C08091450186958093450180918C
:101130003E0281110EC08091420281110AC084E0FA
:101140000E94AF05882329F081E080933B028093C1
:1011500042020895809142028823F1F080914A0171
:1011600090914B0197FD18C020914C0130914D0199
:10117000F901EE5BFE4F4081DC01AE5BBE4F4C934C
:1011800010822150310930934D0120934C01019779
:1011900090934B0180934A0180913C02882321F077
:1011A0001092420110923C02089580914F028823D0
:1011B00079F080915A028093460110924F0281E0AB
:1011C00080933A0284E192E00E948C040C94C4075C
:1011D000089583E090E090935C0280935B0282E04C
:1011E00090E090935E0280935D0281E080934902DB
:1011F00080933D0210924C0280E180934302089557
:1012000083E090E0909357028093560282E090E052
:10121000909355028093540281E080934A02809318
:101220003D0210924302089583E090E090935902AA
:101230008093580282E090E0909353028093520290
:1012400081E08093480280933D0210924B0288E037
:101250008093430208959091460120914501822F89
:10126000892B891751F090935A028093460110926E
:10127000450181E080934F02089567E00E945B0D75
:10128000821302C00C94E90890E0880F991F30E0A7
:101290008217930711F40C9400090C94140981E04F
:1012A00090E0909349018093480110924E02109271
:1012B0004D02109241021092470210924602089588
:1012C00080914102882351F0809148019091490119
:1012D000049721F40E942B090C944F0908958091E2
:1012E0004102882399F1209148013091490124302D
:1012F000310564F540914702F901EE5BFE4F8091A4
:101300004D0290914E02442331F0DC01AE5BBE4FA2
:101310004C91440F0BC040914602DC01AE5BBE4FC6
:10132000442319F04C91469501C04C914083FC0137
:10133000EE5BFE4F1082019690934E0280934D0219
:101340002F5F3F4F309349012093480108958091CA
:101350005402909155022091560230915702F901A2
:10136000EE5BFE4F4081DC01AE5BBE4F4C931082C2
:1013700021503109309357022093560201979093E0
:10138000550280935402089540915B0250915C0293
:10139000FA01EE5BFE4F808120915D0230915E028A
:1013A000D901AE5BBE4F803439F090914C0291115F
:1013B00003C0880F8C9308C086958C9381E080933E
:1013C0004C0280E1809343021082415051095093B6
:1013D0005C0240935B022150310930935E022093FE
:1013E0005D0208954091580250915902FA01EE5B56
:1013F000FE4F80812091520230915302D901AE5BA1
:10140000BE4F813039F090914B02911103C0869507
:101410008C9308C0880F8C9381E080934B0288E006
:1014200080934302108241505109509359024093D6
:1014300058022150310930935302209352020895EB
:1014400080914A02882339F080915402909155028C
:1014500097FF0E94A70980914902882339F0809163
:101460005D0290915E0297FF0E94C409809148023C
:10147000882339F0809152029091530297FF0C9487
:10148000F20908950F931F93CF93DF93CDB7DEB783
:1014900060970FB6F894DEBF0FBECDBF0E943C012F
:1014A0000E948F0680E090E40E94860080E090E237
:1014B0000E94860080E090E10E94860080E098E033
:1014C0000E94860080E094E00E94860080E092E026
:1014D0000E94860080E091E00E94860083E090E414
:1014E0000E94860080E090E80E94860083E090E100
:1014F0000E94860083E090E80E94860083E090E2EC
:101500000E9486000E9425018E010F5F1F4F80E11F
:10151000F80111928A95E9F780EF90E09A83898328
:101520008DE790E09E838D8380E191E09A878987A3
:1015300080E791E19E878D870E94A80162E0C80143
:101540000E943B0580E090E060960FB6F894DEBF05
:101550000FBECDBFDF91CF911F910F9108950E94D3
:10156000C30A0C94A40B0E949D0B58F00E94960B8A
:1015700040F029F45F3F29F00C948D0B51110C942D
:10158000D80B0C94930B0E94B50B68F39923B1F31D
:10159000552391F3951B550BBB27AA276217730799
:1015A000840738F09F5F5F4F220F331F441FAA1F2D
:1015B000A9F335D00E2E3AF0E0E832D091505040E9
:1015C000E695001CCAF72BD0FE2F29D0660F771F97
:1015D000881FBB1F261737074807AB07B0E809F07D
:1015E000BB0B802DBF01FF2793585F4F3AF09E3F02
:1015F000510578F00C948D0B0C94D80B5F3FE4F3FD
:10160000983ED4F3869577956795B795F7959F5F44
:10161000C9F7880F911D9695879597F90895E1E090
:10162000660F771F881FBB1F621773078407BA07EF
:1016300020F0621B730B840BBA0BEE1F88F7E0954A
:1016400008950E94BD0B88F09F5798F0B92F9927F5
:10165000B751B0F0E1F0660F771F881F991F1AF09D
:10166000BA95C9F714C0B13091F00E94D70BB1E020
:1016700008950C94D70B672F782F8827B85F39F01F
:10168000B93FCCF3869577956795B395D9F73EF436
:1016900090958095709561957F4F8F4F9F4F0895DE
:1016A000E89409C097FB3EF49095809570956195FC
:1016B0007F4F8F4F9F4F9923A9F0F92F96E9BB27B2
:1016C0009395F695879577956795B795F111F8CF2E
:1016D000FAF4BB0F11F460FF1BC06F5F7F4F8F4F99
:1016E0009F4F16C0882311F096E911C0772321F08F
:1016F0009EE8872F762F05C0662371F096E8862F27
:1017000070E060E02AF09A95660F771F881FDAF77D
:10171000880F9695879597F9089597F99F6780E8C0
:1017200070E060E008959FEF80EC089500240A9433
:101730001616170618060906089500240A941216AC
:101740001306140605060895092E0394000C11F4DF
:10175000882352F0BB0F40F4BF2B11F460FF04C08C
:101760006F5F7F4F8F4F9F4F089557FD9058440FE5
:10177000551F59F05F3F71F04795880F97FB991FF0
:1017800061F09F3F79F087950895121613061406AD
:10179000551FF2CF4695F1DF08C01616170618063A
:1017A000991FF1CF86957105610508940895E89415
:1017B000BB2766277727CB0197F9089516F00C947D
:1017C0000C0D0C94930B68940C948D0B0E94BD0B24
:1017D000A8F39923C1F3AEF3DF93CF931F930F9335
:1017E000FF92C92FDD2788232AF02197660F771FE4
:1017F000881FDAF720E030E040E85FEB9FE38839AC
:1018000020F0803E38F021968F770E94A00CE4E70C
:10181000F0E004C00E94A00CE1EAF0E00E941A0D82
:101820008B01BE01EC01FB2E6F5771097595771F77
:10183000880B990B0E94520B28E132E741E35FE3EA
:101840000E943C0CAF2D9801AE01FF900F911F91AB
:10185000CF91DF910E94B70C0C94A40B0E94960BC1
:1018600038F00E949D0B20F0952311F00C948D0B05
:101870000C94930B0C94D80B0E94B50B78F399231E
:10188000C9F35523B9F3950F50E0551FAA27EE274A
:10189000FF27BB2700240894679520F4E20FF31F6D
:1018A000B41F0A1E220F331F441FAA1F6695A9F7F3
:1018B000779530F4F30FB41F0A1E121E08F46395D7
:1018C000330F441FAA1F221F769599F7879520F49E
:1018D000B40F0A1E121E631F440FAA1F221F331FBC
:1018E0008695A9F7862F712D602D11249F575040A2
:1018F0009AF0F1F088234AF0EE0FFF1FBB1F661F1E
:10190000771F881F91505040A9F79E3F510580F0E6
:101910000C948D0B0C94D80B5F3FE4F3983ED4F3FA
:10192000869577956795B795F795E7959F5FC1F78A
:10193000FE2B880F911D9695879597F9089550581D
:10194000BB27AA270E94B70C0C94A40B0E94960BED
:1019500038F00E949D0B20F039F49F3F19F426F4D3
:101960000C94930B0EF4E095E7FB0C948D0BE92F90
:101970000E94B50B58F3BA176207730784079507DF
:1019800020F079F4A6F50C94D70B0EF4E0950B2E0D
:10199000BA2FA02D0B01B90190010C01CA01A001C1
:1019A0001124FF27591B99F0593F50F4503E68F11C
:1019B0001A16F040A22F232F342F4427585FF3CF5D
:1019C000469537952795A795F0405395C9F77EF42E
:1019D0001F16BA0B620B730B840BBAF09150A1F077
:1019E000FF0FBB1F661F771F881FC2F70EC0BA0FFD
:1019F000621F731F841F48F4879577956795B79585
:101A0000F7959E3F08F0B0CF9395880F08F099277F
:101A1000EE0F9795879508959F3F31F0915020F4F0
:101A2000879577956795B795880F911D96958795BA
:101A300097F90895DF93CF931F930F93FF92EF923F
:101A4000DF927B018C01689406C0DA2EEF010E94C0
:101A50003C0CFE01E894A591259135914591559155
:101A6000A6F3EF010E94B70CFE019701A801DA94DA
:101A700069F7DF90EF90FF900F911F91CF91DF9169
:101A80000895002480FD060E660F11F08695D1F7AB
:101A9000802D08950024552704C0080E591F880F73
:101AA000991F009729F076956795B8F37105B9F7F6
:101AB000802D952F0895991B79E004C0991F9617E2
:101AC00008F0961B881F7A95C9F780950895AA1B80
:101AD000BB1B51E107C0AA1FBB1FA617B70710F019
:101AE000A61BB70B881F991F5A95A9F7809590954B
:101AF000BC01CD010895052E97FB1EF400940E94B1
:101B0000920D57FD07D00E949A0D07FC03D04EF4AA
:101B10000C94920D50954095309521953F4F4F4F25
:101B20005F4F089590958095709561957F4F8F4F89
:101B30009F4F0895A1E21A2EAA1BBB1BFD010DC0E9
:101B4000AA1FBB1FEE1FFF1FA217B307E407F5076D
:101B500020F0A21BB30BE40BF50B661F771F881F49
:101B6000991F1A9469F760957095809590959B01DF
:101B7000AC01BD01CF010895FB01DC014150504093
:101B800048F001900D920020C9F701C01D9241500C
:0A1B90005040E0F70895F894FFCFED
:101B9A000000000000001400000000000000000027
:101BAA00000000000000000000000000000000002B
:101BBA00000000000000000000000000000000001B
:101BCA0000010008040C020A060E0109050D030BA8
:101BDA00070F000000001C010100020003000103BE
:101BEA0005203B0200009220EB737D5FDE3DA5528B
:101BFA00EA7A14004A222229BA2ED0050014C0011A
:101C0A000020A4126A2B9A74A372A338ED498F3864
:101C1A00CE2AA712AA2AAE49100410145444380E28
:101C2A0011152A250000EA5BEB3A4F726B3BCF7322
:101C3A00CF134F7AED5B9774247B5D564972FD5B37
:101C4A006F5B6F7BEF136F7FEF57CE3897246D7BF7
:101C5A006D2BED5FAD5AAD24A772034000800310CF
:101C6A000380032000400020001000080004000246
:101C7A0000010380034003200080031000030608CC
:101C8A000A03400080031003800320004000200064
:101C9A00100008000400020001594F5520574F4E0A
:101CAA00203A2900594F55204C4F5354203A2800C6
:00000001FF
