:100000000C943A000C9457000C9457000C94570031
:100010000C9457000C9457000C9457000C94570004
:100020000C9457000C9457000C9457000C945700F4
:100030000C9457000C9457000C9457000C945700E4
:100040000C9457000C9457000C9457000C945700D4
:100050000C9457000C9457000C9457000C945700C4
:100060000C9457000C9457000C9457000C945700B4
:100070000C94570011241FBECFEFD4E0DEBFCDBFDC
:1000800011E0A0E0B1E0EEE1F2E102C005900D92D6
:10009000AC37B107D9F711E0ACE7B1E001C01D9270
:1000A000AE39B107E1F70E9410080C940D090C94C9
:1000B00000000E94450682E00E941506882381F018
:1000C00080910A01803760F4880F80930A01809143
:1000D0008101811105C080910901880F8093090178
:1000E00080E00E94150690918101882379F080912B
:1000F0000A01883058F0869580930A01911106C054
:100100008091090186958093090102C091110AC06E
:1001100084E00E941506882329F081E08093800105
:1001200080938101809181018823F1F08091020107
:100130009091030197FD18C02091040130910501B1
:10014000F901EA5FFE4F4081DC01AA5FBE4F4C938C
:100150001082215031093093050120930401019749
:10016000909303018093020180917F01882309F419
:1001700042C0209100013091010180917D01909158
:100180007E01FC01EA5FFE4F4081D901AA5FBE4FAC
:100190004C931082019690937E0180937D012F5F96
:1001A0003F4F30930101209300012330310519F5B1
:1001B0008091090190910A01892B90E067E070E03D
:1001C0000E94A908892BB9F481E080937C0182E028
:1001D00090E09093030180930201309305012093F6
:1001E000040181E090E0909301018093000110925E
:1001F0007E0110927D0180917C01882301F1209184
:100200000201309103018091040190910501FC01EC
:10021000EA5FFE4F4081D901AA5FBE4F4C93108226
:100220000197909305018093040121503109309387
:10023000030120930201892B11F410927C0108958F
:10024000FC01FF2784A1892B84A385A1892B85A389
:1002500081E00895E0918301F0918401EE0FFF1F8A
:10026000E35CFE4F20813181F901FF2795A1932B9B
:1002700095A3E7E4F1E020E030E090E0AC01022E4D
:1002800002C0559547950A94E2F740FF0BC04081A4
:100290005181DA01BB2795967C919597452F409522
:1002A000472308C040815181DA01BB2795964C91C4
:1002B0009597452B95964C932F5F3F4F329627305D
:1002C0003105E1F670E0FB01EE0FFF1FE35CFE4F2E
:1002D00080819181FC01FF2725A1892F80958223B0
:1002E00085A37093840160938301089560918201D6
:1002F00070E0FB01EA5FFE4F808190E00E942A01DE
:10030000809182018F5F853018F48093820102C052
:100310001092820180918101882341F08091060131
:10032000882321F00E94E306109206010E94D9065C
:10033000882339F00E94DB068093060181E08093D8
:100340007F010895E1E6F0E080E880831082A895BF
:1003500084B7877F84BFE0E6F0E080818861808396
:10036000108208951092800084E0809381001092A2
:1003700085001092840008958091840090918500FA
:100380000895AC0180918400909185009C01241B0C
:10039000350B283E3340B0F708952091840030910A
:1003A0008500820F931F0C94C10181110CC08091B4
:1003B0008501882329F08091860191E0892701C079
:1003C00080E08170089580E0089581110AC08091D5
:1003D0008501811103C08091860101C080E0817098
:1003E000089580E00895811103C0809185010895EA
:1003F00080E00895811105C08091850191E08927F1
:10040000089580E00895E5E8F1E080818093860119
:1004100089B1881F8827881F8083089557985F981F
:1004200008958530A0F4673090F421E030E0062E86
:1004300001C0220F0A94EAF7E82FF0E0E857FE4FD8
:10044000822F8095908189234111822B808308958A
:10045000853088F4673078F4E82FF0E0E857FE4FF5
:1004600021E030E0062E01C0220F0A94EAF79081C5
:10047000922381E009F480E0089560918701E62FDE
:10048000F0E0E857FE4F80810E948C028091870146
:100490008F5F853018F4809387010895109287014B
:1004A0000895109288011092890110928A01109289
:1004B0008B0110928C0108950E946A020C945102E3
:1004C000FC01FF2784A1892B84A385A1892B85A307
:1004D00081E00895CF93DF93CFE5D1E089919991A1
:1004E0000E94600281E0CD36D807C1F783E090E436
:1004F0000E94600280E090E80E94600283E090E148
:100500000E94600283E090E80E94600283E090E233
:10051000DF91CF910C946002E0918D01F0E0EE0F3D
:10052000FF1FEB5AFE4F20813181F901FF2795A172
:10053000932B95A3EFE5F1E020813181D901BB2711
:1005400080FF07C095962C919597932F90959223B5
:1005500004C095969C919597932B95969C93869520
:10056000329691E0ED36F90739F7E62FF0E0EE0F1D
:10057000FF1FEB5AFE4F80819181FC01FF2725A1CF
:10058000892F8095822385A360938D01089500971C
:1005900089F0FC012381621B67FD09C0772767FD95
:1005A0007095248130E081E0621773070CF080E0E1
:1005B0008170089580E00895CF93DF93FC01822F2E
:1005C000309789F19181491770F52281821758F58A
:1005D0002381621B67FD27C0A62FBB27A7FDB0950F
:1005E000C481D0E0AC17BD07F4F4692F0E947B08EA
:1005F000480F658170E0CD010E948408DC011696E9
:10060000842F869586958695AE0FBF1FA80FB11DC6
:100610002C9130E0477002C0359527954A95E2F756
:10062000822F817001C080E0DF91CF910895CF9338
:10063000DF93EC010E94B2019E0140E050E062E1D4
:100640007AE780E090E00E94BD083093910120930A
:100650009001DF91CF91089580918E0190918F014B
:100660000E94C10180918E0190918F012091900193
:1006700030919101820F931F90938F0180938E018F
:10068000089541E0611101C040E0692F0C9411020E
:10069000692F0C94280241E0611101C040E0692FEC
:1006A0000C9411026F927F928F929F92AF92BF92A1
:1006B000CF92DF92EF92FF920F931F93CF93DF932E
:1006C0001F92CDB7DEB7862EB42E6C01862F9927E8
:1006D00087FD90958C199109C7FC9395072F1127D9
:1006E00007FD10950D191109D7FC139597FD03C04F
:1006F000AA24A39402C0AA24AA9417FD03C0992493
:10070000939402C099249A943C0197FF03C071947A
:100710006194710817FF03C01195019511096016C6
:10072000710694F07301F594E794C81409F16B2DE8
:10073000C6010E944B03E01AF10AF7FE03C0E60C63
:10074000F71CD90CCA0CF1CF7801F594E794D716B1
:1007500079F06B2DC60179830E944B03E618F708E8
:100760007981F7FE03C0E00EF11ECA0CD90CEFCF61
:100770006B2DC6010F90DF91CF911F910F91FF90CC
:10078000EF90DF90CF90BF90AF909F908F907F9031
:100790006F900C944B03FF920F931F93CF93DF93B3
:1007A000182FF92E062FC72FD42F792F0E9452030E
:1007B0004D2F612F7C2F812F9F2D0E9452034D2F93
:1007C000602F7C2F802F9F2D0E9452034D2F602F72
:1007D0007C2F812F9C2F0E945203DF91CF911F917C
:1007E0000F91FF9008950E94510210921C011092E7
:1007F00017010895DF92EF92FF920F931F93CF930B
:10080000DF93E82E8B01F62ED12E20910D01309131
:100810000E01D0E02130310599F5D12EDD1AE0919D
:100820001301F09114018181C0E0D817B8F4E09170
:100830001301F09114018281C81770F42C2F4D2FF1
:100840006E2DCF010E94DC02682F8C2F800F9D2D12
:100850000E944B03CF5FEBCFDF5FDFCFE09113014F
:10086000F09114018281C81740F460E08C2F800F52
:100870009D2D0E944B03CF5FF1CFDA9430C0DF5F34
:10088000FD2EF00EE0911301F09114018181C0E082
:10089000D817A8F4E0911301F09114018281C817D0
:1008A00070F72C2F4D2F6E2DCF010E94DC02682F88
:1008B0008F2D9C2F910F0E944B03CF5FEBCFE091C8
:1008C0001301F09114018281C81740F460E08F2D6C
:1008D0009C2F910F0E944B03CF5FF1CFF3948F2D8C
:1008E0009D2DDF91CF911F910F91FF90EF90DF90A1
:1008F00008951F93CF93DF93182FEC019C2F911B2A
:100900008991882349F00E94FA03BC019C2F911B16
:10091000653014F477FFF2CF892FDF91CF911F91CB
:1009200008950F931F93CF93DF93EC019B011092D7
:1009300017014093180110921B01009113011091AF
:1009400014010115110509F448C0F8018181609175
:1009500011017091120190E00E948408BC01809105
:100960001501909116010E949508CB016AE070E094
:100970000E94840890931A0180931901309310010A
:1009800020930F0140E250E0BE018CE191E00E9413
:10099000FE0880910B0190910C010197F1F4FE018A
:1009A00001900020E9F7CF010197F801618170E023
:1009B0006F5F7F4F8C1B0E947B08815020910D013F
:1009C00030910E012130310511F497E001C095E01E
:1009D000981718F48EEF80931B01DF91CF911F9130
:1009E0000F91089520910D0130910E0121303105B4
:1009F00011F476E001C070E04FEF60E00E949104D6
:100A0000089590E0909312018093110108959093BE
:100A10000C0180930B01089590930E0180930D01BA
:100A2000089590931401809313010895CF938091BA
:100A3000920190919301019690939301809392017A
:100A40002091190130911A018217930708F468C0A8
:100A50001092930110929201E0911701F0E0E55F8E
:100A6000FE4F818981110AC080911801823008F4FB
:100A700057C081508093180110921701C09117013F
:100A80008C2F90E0FC01E55FFE4F2189222309F4C1
:100A900047C020910B0130910C0140911B012115A1
:100AA000310521F02130310589F022C0411120C0EB
:100AB00060910F0170911001845E9E4F0E94790435
:100AC0009FEF9C0F980F9093170112C060910F0138
:100AD0007091100120910D0130910E0121303105EE
:100AE00011F4740F01C0641B845E9E4F0E94790450
:100AF00020911B012F5F20931B01332727FD309589
:100B0000E0911301F0911401818190E08217930725
:100B10003CF410921B01809117018F5F80931701A5
:100B2000CF910C943D0290931601809315010E9481
:100B30005C0284E190E090931201809311010C9487
:100B4000F303182F092FF62E0E94B2010E94BC0158
:100B5000C12FD02F8E819F810E94C101E881F98130
:100B60008A819B8109952E813F818C819D81280FEF
:100B7000391F3F832E830E94BC01E12FF02F2FEFFE
:100B80003FEF60E06F1531F3AE2F7F2F4681578125
:100B90006C01C41AD50AA601BFEFCB16BFE7DB066E
:100BA00010F4EF01D7CF51954195510942175307E2
:100BB00018F0A901AC2F7D2F6F5F38969A01CA2FCC
:100BC000D72FE0CF6230710511F160F4613071050B
:100BD00051F5FC01FF2784A19095892384A385A169
:100BE00089231EC06330710541F064307105D9F46A
:100BF000FC01FF2784A1892B10C0FC01FF2784A1E1
:100C0000892B84A325A1892F8095822309C0FC010B
:100C1000FF2784A1292F2095822384A385A1892BD6
:100C200085A381E0089580E00895E82FF0E0EE0FBD
:100C3000FF1FEC56FE4F8081882321F0818191E0D7
:100C4000892701C080E081700895E82FF0E0EE0F61
:100C5000FF1FEC56FE4F8081811102C0818101C0CF
:100C600080E081700895E82FF0E0EE0FFF1FEC5652
:100C7000FE4F80810895E82FF0E0EE0FFF1FEC5645
:100C8000FE4F908181E0892708954F925F927F9275
:100C90008F929F92AF92BF92CF92DF92EF92FF928C
:100CA0000F931F93CF93DF9300D0CDB7DEB754E9F6
:100CB000452E51E0552E65E9E62E61E0F62E7DE6E3
:100CC000A72E71E0B72EE6E07E2EF2018081F701BB
:100CD0008083F501019111915F016801DD24F60126
:100CE00084A1812E992425A130E02821392141E0D9
:100CF000232B09F440E090E088219921892B29F0E9
:100D0000442341F024E030E00AC0442331F022E0E3
:100D100030E005C023E030E002C021E030E064E0D4
:100D200070E0C80129833A830E94E20562E070E026
:100D3000C8010E94E205872D8A95F1F7F60183A18B
:100D400090E08821992141E029813A81892B09F09D
:100D500040E0F2014083B901C8010E94E205F2E0DF
:100D60004F0E511C82E0E80EF11CEEE94E16E1E058
:100D70005E0609F0AACF0F900F90DF91CF911F91DF
:100D80000F91FF90EF90DF90CF90BF90AF909F902A
:100D90008F907F905F904F9008950895811105C0C6
:100DA000662311F0429A0895429808953A9A429A19
:100DB00008950C9440070C9461070C9446070C941A
:100DC0004C070C9452070E9452070E944C0788233C
:100DD000E1F38CE291E00197F1F70E944007811165
:100DE0000C94DB0608950C946807CF93DF9300D032
:100DF0001F92CDB7DEB780ED90E09A83898388E0BB
:100E00008B83509A589A0E94DD078FE690E00E94EB
:100E1000740781E090E00E94CC0761E070E081E01F
:100E200090E00E94B8070E94A407CE0101960E949C
:100E300028070F900F900F90DF91CF9108959C019C
:100E4000215031093093CD0081508093CC0008951A
:100E5000CF93DF93EC01888199810E941F078A81DB
:100E60009BEF980F943008F088E098E19093C900C8
:100E70008550880F8093CA0081E0DF91CF9108955B
:100E80008091C800881F8827881F08958091C80016
:100E900085FB882780F908958091C80086FB882704
:100EA00080F90895CF93C82F0E9446078823E1F365
:100EB0009091C80090649093C800C093CE00CF91E9
:100EC00008958091C80087FFFCCF8091CE000895DF
:100ED000CF93DF93EC018991882319F00E94520788
:100EE000FACFDF91CF910895CF93DF931F92CDB7C3
:100EF000DEB79E012F5F3F4F45E067E771E00E943C
:100F0000E70791E0980F90933C019981915097BD2C
:100F100018BC95B5977039F025B590913C01977044
:100F2000287F922B95BD298130E0E82FF0E0E95829
:100F3000FE4FC901008002C0880F991F0A94E2F792
:100F40000F90DF91CF91089585B3897F85BB95B5CB
:100F500080913C018770987F892B85BD089585B568
:100F6000887F85BD089585B382FB882780F9089521
:100F7000009719F0019741F0089584B56295660FC6
:100F8000660F607C8F7305C084B563706295607F67
:100F90008F7C682B64BD0895009741F0019759F448
:100FA00084B58E7F84BD84B5826002C084B58C7F99
:100FB00084BD81E0089580E0089514BC15BC16BC82
:100FC00018BC81E090E00E94CC0781E00895CF93A7
:100FD000DF93D62FFB0160E070E0A1E0B0E05E2F70
:100FE0005D1B5417B8F4C191BD010C2E02C0660FF1
:100FF000771F0A94E2F76F5F7F4F76956795680FCA
:10100000791F02C076956795CA95E2F76F3F710523
:1010100009F028F7F9016083852FDF91CF910895BA
:101020000F931F93CF93DF93CDB7DEB760970FB6C3
:10103000F894DEBF0FBECDBF0E94A2010E94F5064C
:1010400080E090E40E94200180E090E20E94200174
:1010500080E090E10E94200180E098E00E94200161
:1010600080E094E00E94200180E092E00E94200154
:1010700080E091E00E94200183E090E40E94200142
:1010800080E090E80E94200183E090E10E9420012E
:1010900083E090E80E94200183E090E20E9420011A
:1010A0008E010F5F1F4F80E1F80111928A95E9F7D9
:1010B00086E791E09A8389838FE090E09E838D8319
:1010C00089E590E09A87898785E39CE09E878D87F4
:1010D0000E940E0262E0C8010E94A10580E090E03B
:1010E00060960FB6F894DEBF0FBECDBFDF91CF91F3
:1010F0001F910F910895002480FD060E660F11F0D8
:101100008695D1F7802D08950024552704C0080E38
:10111000591F880F991F009729F076956795B8F3A6
:101120007105B9F7802D952F0895AA1BBB1B51E1BE
:1011300007C0AA1FBB1FA617B70710F0A61BB70B47
:10114000881F991F5A95A9F780959095BC01CD01EC
:10115000089597FB072E16F4009407D077FD09D069
:101160000E94950807FC05D03EF4909581959F4F0D
:101170000895709561957F4F0895052E97FB1EF495
:1011800000940E94D40857FD07D00E94DC0807FC99
:1011900003D04EF40C94D408509540953095219589
:1011A0003F4F4F4F5F4F0895909580957095619593
:1011B0007F4F8F4F9F4F0895A1E21A2EAA1BBB1B92
:1011C000FD010DC0AA1FBB1FEE1FFF1FA217B30713
:1011D000E407F50720F0A21BB30BE40BF50B661F29
:1011E000771F881F991F1A9469F7609570958095ED
:1011F00090959B01AC01BD01CF010895FB01DC017D
:101200004150504048F001900D920020C9F701C0B4
:0E1210001D9241505040E0F70895F894FFCF32
:10121E00010002000300000000081C000000000096
:10122E00001400000000000000000000000000009C
:10123E0000000000000000000000000000000000A0
:10124E00000000000000000000000000010340004C
:10125E0080031003800320004000200010000800CF
:10126E0004000200010340008003100380032000ED
:10127E00400020001000080004000200010380035B
:0C128E0040032000800310000306080A43
:00000001FF
