:100000000C9467000C9484000C9484000C9484007D
:100010000C9484000C9484000C9484000C94840050
:100020000C9484000C9484000C9484000C94840040
:100030000C9484000C9484000C9484000C94840030
:100040000C9484000C9484000C9484000C94840020
:100050000C9484000C9484000C9484000C94840010
:100060000C9484000C9484000C9484000C94840000
:100070000C94840008000000BE922449123EABAAF2
:10008000AA2ABECDCCCC4C3E00000080BEABAAAAB2
:10009000AA3E00000000BF000000803F00000000FA
:1000A00000084178D3BB4387D1133D190E3CC3BD33
:1000B0004282AD2B3E68EC8276BED98FE1A93E4CE0
:1000C00080EFFFBE01C4FF7F3F000000000011244D
:1000D0001FBECFEFD4E0DEBFCDBF12E0A0E0B1E0A5
:1000E000E2E6FBE102C005900D92AC31B107D9F711
:1000F00012E0ACE1B2E001C01D92A835B107E1F712
:100100000E94670A0C94AF0D0C9400009C01FC0146
:10011000FF2784A1832B84A395A1892F832B85A3FB
:1001200081E008958CE291E00E9407058EE491E061
:100130000E9485048AE00E94750481E090E00E949C
:100140007B0481E090E00E94800489E092E00C94BE
:100150006604E0914602F0914702EE0FFF1FEF5058
:10016000FE4F20813181F901FF2795A1932B95A3A3
:10017000EBEFF1E020E030E090E0AC01022E02C0B5
:10018000559547950A94E2F740FF0AC04081518196
:10019000DA01BB2795964C9195975095452308C059
:1001A00040815181DA01BB2795964C919597452B5B
:1001B00095964C932F5F3F4F329627303105E9F6E5
:1001C00070E0FB01EE0FFF1FEF50FE4F8081918129
:1001D000FC01FF2785A19095892385A37093470291
:1001E00060934602089560914902E62FF0E0EE5CCC
:1001F000FE4F80810E94A900809149028F5F853067
:1002000018F480934902089510924902089580914C
:100210003302811104C080913202882331F00E94A0
:100220008A0481E090E00C947B040E94F3000E9419
:10023000E2070C94F9070E94C7080E94CF080E94A9
:10024000FA080E9485090E94450A0C9494090E94AC
:10025000A1010E94B90580913A0290913B02892B3D
:1002600031F480913102811102C00E94890780918E
:100270003A0290913B02029711F40C941B010895ED
:10028000E1E6F0E080E880831082A89584B7877F5C
:1002900084BFE0E6F0E08081886180831082089569
:1002A0001092800084E0809381001092850010926B
:1002B0008400089580918400909185000895AC0198
:1002C00080918400909185009C01241B350B283E71
:1002D0003340B0F708952091840030918500820F5B
:1002E000931F0C945F0181110CC080911C02882324
:1002F00029F080911D0291E0892701C080E0817082
:10030000089580E0089581110AC080911C02811136
:1003100003C080911D0201C080E08170089580E0DB
:100320000895811103C080911C02089580E0089512
:10033000811105C080911C0291E08927089580E019
:100340000895ECE1F2E0808180931D0289B1881F5D
:100350008827881F8083089557985F98089585306F
:10036000A0F4673090F421E030E0062E01C0220FA7
:100370000A94EAF7E82FF0E0E15EFD4F822F8095C6
:10038000908189234111822B80830895853088F4E0
:10039000673078F4E82FF0E0E15EFD4F21E030E0D7
:1003A000062E01C0220F0A94EAF79081922381E081
:1003B00009F480E0089560911E02E62FF0E0E15E0E
:1003C000FD4F80810E942A0280911E028F5F85303E
:1003D00018F480931E02089510921E020895109240
:1003E0001F021092200210922102109222021092FB
:1003F000230208950E9408020C94EF01FC01FF27DC
:1004000084A1892B84A385A1892B85A381E00895EC
:10041000CF93DF93C4EDD1E0899199910E94FE01C1
:1004200081E0C23ED807C1F783E090E40E94FE015C
:1004300080E090E80E94FE0183E090E10E94FE01CE
:1004400083E090E80E94FE0183E090E2DF91CF918B
:100450000C94FE01E0912402F0E0EE0FFF1FE65342
:10046000FE4F20813181F901FF2795A1932B95A3A0
:10047000E4EDF1E020813181D901BB2780FF07C085
:1004800095962C919597932F9095922304C09596CD
:100490009C919597932B95969C938695329691E097
:1004A000E23EF90739F7E62FF0E0EE0FFF1FE653C3
:1004B000FE4F80819181FC01FF2725A1892F809526
:1004C000822385A3609324020895009789F0FC019C
:1004D0002381621B67FD09C0772767FD7095248122
:1004E00030E081E0621773070CF080E081700895BE
:1004F00080E00895CF93DF93FC01822F309789F13C
:100500009181491770F52281821758F52381621B6A
:1005100067FD27C0A62FBB27A7FDB095C481D0E0FB
:10052000AC17BD07F4F4692F0E94660D480F658172
:1005300070E0CD010E946F0DDC011696842F869528
:1005400086958695AE0FBF1FA80FB11D2C9130E088
:10055000477002C0359527954A95E2F7822F817042
:1005600001C080E0DF91CF91089541E0611101C0A9
:1005700040E0692F0C94AF01692F0C94C60141E053
:10058000611101C040E0692F0C94AF016F927F921E
:100590008F929F92AF92BF92CF92DF92EF92FF9293
:1005A0000F931F93CF93DF931F92CDB7DEB7862EA5
:1005B000B42E6C01862F992787FD90958C1991098F
:1005C000C7FC9395072F112707FD10950D191109E9
:1005D000D7FC139597FD03C0AA24A39402C0AA24B4
:1005E000AA9417FD03C09924939402C099249A9465
:1005F0003C0197FF03C071946194710817FF03C019
:100600001195019511096016710694F07301F59426
:10061000E794C81409F16B2DC6010E94BF02E01ACD
:10062000F10AF7FE03C0E60CF71CD90CCA0CF1CF97
:100630007801F594E794D71679F06B2DC60179838C
:100640000E94BF02E618F7087981F7FE03C0E00EAA
:10065000F11ECA0CD90CEFCF6B2DC6010F90DF91A4
:10066000CF911F910F91FF90EF90DF90CF90BF90AF
:10067000AF909F908F907F906F900C94BF02FF92ED
:100680000F931F93CF93DF93182FF92E062FC72FA9
:10069000D42F792F0E94C6024D2F612F7C2F812FDE
:1006A0009F2D0E94C6024D2F602F7C2F802F9F2DE3
:1006B0000E94C6024D2F602F7C2F812F9C2F0E94FD
:1006C000C602DF91CF911F910F91FF9008950E9474
:1006D000EF011092110110920C010895DF92EF9238
:1006E000FF920F931F93CF93DF93E82E8B01F62E8B
:1006F000D12E2091020130910301D0E0213031054B
:1007000099F5D12EDD1AE0910801F091090181815E
:10071000C0E0D817B8F4E0910801F0910901828196
:10072000C81770F42C2F4D2F6E2DCF010E947A0226
:10073000682F8C2F800F9D2D0E94BF02CF5FEBCFC3
:10074000DF5FDFCFE0910801F09109018281C817D6
:1007500040F460E08C2F800F9D2D0E94BF02CF5F80
:10076000F1CFDA9430C0DF5FFD2EF00EE09108018A
:10077000F09109018181C0E0D817A8F4E091080147
:10078000F09109018281C81770F72C2F4D2F6E2D23
:10079000CF010E947A02682F8F2D9C2F910F0E940B
:1007A000BF02CF5FEBCFE0910801F0910901828198
:1007B000C81740F460E08F2D9C2F910F0E94BF025C
:1007C000CF5FF1CFF3948F2D9D2DDF91CF911F91AE
:1007D0000F91FF90EF90DF9008951F93CF93DF93D9
:1007E000182FEC019C2F911B8991882349F00E94BE
:1007F0006E03BC019C2F911B653014F477FFF2CF80
:10080000892FDF91CF911F9108950F931F93CF935D
:10081000DF93EC019B0110920C0140930D011092AB
:10082000100100910801109109010115110509F449
:1008300048C0F8018181609106017091070190E044
:100840000E946F0DBC0180910A0190910B010E94E2
:100850008C0DCB016AE070E00E946F0D90930F0148
:1008600080930E01309305012093040140E250E093
:10087000BE0181E191E00E94A00D80910001909164
:1008800001010197F1F4FE0101900020E9F7CF0189
:100890000197F801618170E06F5F7F4F8C1B0E94B0
:1008A000660D815020910201309103012130310504
:1008B00011F497E001C095E0981718F48EEF80933B
:1008C0001001DF91CF911F910F91089520910201A6
:1008D000309103012130310511F476E001C070E060
:1008E0004FEF60E00E940504089590E090930701A7
:1008F000809306010895909301018093000108956B
:1009000090930301809302010895909309018093CD
:1009100008010895CF9380912502909126020196B7
:10092000909326028093250220910E0130910F01B1
:100930008217930708F468C01092260210922502CD
:10094000E0910C01F0E0E050FF4F818981110AC075
:1009500080910D01823008F457C0815080930D01C1
:1009600010920C01C0910C018C2F90E0FC01E05022
:10097000FF4F2189222309F447C0209100013091C3
:100980000101409110012115310521F0213031057F
:1009900089F022C0411120C06091040170910501CD
:1009A0008F5E9E4F0E94ED039FEF9C0F980F9093D8
:1009B0000C0112C0609104017091050120910201A7
:1009C000309103012130310511F4740F01C0641B13
:1009D0008F5E9E4F0E94ED03209110012F5F2093A8
:1009E0001001332727FD3095E0910801F0910901AE
:1009F000818190E0821793073CF41092100180915E
:100A00000C018F5F80930C01CF910C94DB019093CC
:100A10000B0180930A010E94FA0184E190E0909317
:100A20000701809306010C946703182F092FF62EF7
:100A30000E9450010E945A01C12FD02F8E819F81A8
:100A40000E945F01E881F9818A819B8109952E814D
:100A50003F818C819D81280F391F3F832E830E9407
:100A60005A01E12FF02F2FEF3FEF60E06F1531F3C8
:100A7000AE2F7F2F468157816C01C41AD50AA6017B
:100A8000BFEFCB16BFE7DB0610F4EF01D7CF5195D0
:100A9000419551094217530718F0A901AC2F7D2F3A
:100AA0006F5F38969A01CA2FD72FE0CF6230710559
:100AB00011F160F46130710551F5FC01FF2784A14B
:100AC0009095892384A385A189231EC06330710575
:100AD00041F064307105D9F4FC01FF2784A1892B12
:100AE00010C0FC01FF2784A1892B84A325A1892F95
:100AF0008095822309C0FC01FF2784A1292F20951E
:100B0000822384A385A1892B85A381E0089580E0B9
:100B10000895E82FF0E0EE0FFF1FE95DFD4F8081A3
:100B2000882321F0818191E0892701C080E08170D4
:100B30000895E82FF0E0EE0FFF1FE95DFD4F808183
:100B4000811102C0818101C080E081700895E82F89
:100B5000F0E0EE0FFF1FE95DFD4F80810895E82F63
:100B6000F0E0EE0FFF1FE95DFD4F908181E08927E6
:100B700008954F925F927F928F929F92AF92BF9211
:100B8000CF92DF92EF92FF920F931F93CF93DF9359
:100B900000D0CDB7DEB757E2452E52E0552E68E2C1
:100BA000E62E62E0F62E72EEA72E71E0B72EE6E09A
:100BB0007E2EF2018081F7018083F5010191119170
:100BC0005F016801DD24F60184A1812E992425A10D
:100BD00030E02821392141E0232B09F440E090E066
:100BE00088219921892B29F0442341F024E030E029
:100BF0000AC0442331F022E030E005C023E030E0B9
:100C000002C021E030E064E070E0C80129833A834B
:100C10000E94560562E070E0C8010E945605872DCB
:100C20008A95F1F7F60183A190E08821992141E0AE
:100C300029813A81892B09F040E0F2014083B90112
:100C4000C8010E945605F2E04F0E511C82E0E80EEA
:100C5000F11CE1E34E16E2E05E0609F0AACF0F9028
:100C60000F90DF91CF911F910F91FF90EF90DF9048
:100C7000CF90BF90AF909F908F907F905F904F905C
:100C8000089508950C94A9060C94CA060C94AF0616
:100C90000C94B5060C94BB060E94BB060E94B506D8
:100CA0008823E1F38CE291E00197F1F70E94A90615
:100CB00081110C94440608950C94D106CF93DF93D0
:100CC00000D01F92CDB7DEB780ED90E09A83898384
:100CD00088E08B83509A589A0E9446078FE690E0EE
:100CE0000E94DD0681E090E00E94350761E070E03F
:100CF00081E090E00E9421070E940D07CE0101963D
:100D00000E9491060F900F900F90DF91CF91089560
:100D10009C01215031093093CD0081508093CC004B
:100D20000895CF93DF93EC01888199810E94880612
:100D30008A819BEF980F943008F088E098E19093B7
:100D4000C9008550880F8093CA0081E0DF91CF9160
:100D500008958091C800881F8827881F0895809172
:100D6000C80085FB882780F908958091C80086FB1C
:100D7000882780F90895CF93C82F0E94AF06882353
:100D8000E1F39091C80090649093C800C093CE00A6
:100D9000CF9108958091C80087FFFCCF8091CE004D
:100DA0000895CF93DF93EC018991882319F00E9475
:100DB000BB06FACFDF91CF910895CF93DF931F92B7
:100DC000CDB7DEB79E012F5F3F4F45E06CEE71E07F
:100DD0000E94500791E0980F9093310199819150B2
:100DE00097BD18BC95B5977039F025B59091310134
:100DF0009770287F922B95BD298130E0E82FF0E095
:100E0000E451FE4FC901008002C0880F991F0A9467
:100E1000E2F70F90DF91CF91089585B3897F85BB6D
:100E200095B5809131018770987F892B85BD089594
:100E300085B5887F85BD089585B382FB882780F9B5
:100E40000895009719F0019741F0089584B56295CF
:100E5000660F660F607C8F7305C084B56370629502
:100E6000607F8F7C682B64BD0895009741F00197E7
:100E700059F484B58E7F84BD84B5826002C084B588
:100E80008C7F84BD81E0089580E0089514BC15BC7A
:100E900016BC18BC81E090E00E94350781E00895FF
:100EA000CF93DF93D62FFB0160E070E0A1E0B0E0CC
:100EB0005E2F5D1B5417B8F4C191BD010C2E02C00A
:100EC000660F771F0A94E2F76F5F7F4F76956795FD
:100ED000680F791F02C076956795CA95E2F76F3F54
:100EE000710509F028F7F9016083852FDF91CF9113
:100EF00008958091320190E00E941F08909148026D
:100F0000890F0E944C0681E08093350210923602D0
:100F1000089583E50E944C0681E090E090933B02A7
:100F200080933A02089587E50C944C060E9444068B
:100F3000833561F482E090E090933B0280933A0223
:100F400088E08093350182E40C944C06823449F4A5
:100F500081E08093370282E090E090933B0280939F
:100F60003A0208950E944406873551F49091370162
:100F7000992331F081E08093320210923701089575
:100F8000982F977090934A028871803131F481E0F4
:100F90008093380280933D0207C0883029F481E0B5
:100FA0008093380280933C02973059F0892F90E06B
:100FB0000E9431080E940C088093320181E08093E6
:100FC0003802089580913402882349F080913201DB
:100FD000882329F00E9479071092340208958091A5
:100FE0003602882329F08091320181110C9479070F
:100FF00008950E944206882371F080913A029091F0
:101000003B02019731F480913102811102C00C94AE
:1010100096070C94B2070895E82FEF70F0E0E25CB9
:10102000FE4F9081990F990F990FE82FE695E6955D
:10103000E695F0E0E25CFE4F8081892B0895682FF1
:1010400070E080E090E00E94750B0E940B0C28E19C
:1010500032E741E35FE30E94D40A0E94460B862FE9
:10106000089521E030E040E050E090E04817590753
:101070002CF4220F331F4F5F5F4FF8CF822F08955C
:1010800082E00E948905882381F0809136018037B3
:1010900060F4880F8093360180913902811105C078
:1010A00080913501880F80933501089580E00E947A
:1010B0008905882381F080913601883060F086951B
:1010C0008093360180913902811105C080913501EC
:1010D00086958093350108958091370281110EC065
:1010E0008091390281110AC084E00E948905882319
:1010F00029F081E08093340280933902089589E0D9
:1011000092E00E94660483E090E090933D0180931A
:101110003C0182E090E090933B0180933A01109271
:101120004702109246021092480210923902109221
:101130003502109233021092320281E0809337011F
:1011400080933102E2E3F1E01082118212828CE19D
:101150008483089580913202811104C0809133020A
:101160008823A1F080E00E947301882379F08091A8
:101170003202882331F088E08093350110923702E3
:1011800003C081E0809337020C947F0808950E9489
:1011900040080E9456080E946C080C94AA0880918E
:1011A00039028823F1F080913A0190913B0197FD3B
:1011B00018C020913C0130913D01F901EE5CFE4FD9
:1011C0004081DC01AE5CBE4F4C931082215031094E
:1011D00030933D0120933C01019790933B01809314
:1011E0003A0180913502882321F010923201109249
:1011F0003502089580914302882379F0809153024B
:10120000809336011092430281E08093330283E1A0
:1012100092E00E9466040C949307089583E090E0A6
:10122000909355028093540282E090E0909357028D
:101230008093560281E0809341028093360210929F
:101240003F0280E180934802089583E090E090930C
:10125000500280934F0282E090E090934E02809380
:101260004D0281E080934202809336021092480240
:10127000089583E090E0909352028093510282E0BF
:1012800090E090934C0280934B0281E08093400267
:101290008093360210923E0288E0809348020895BF
:1012A0009091360120913501822F892B891751F0B9
:1012B00090935302809336011092350181E0809320
:1012C0004302089567E00E94800D821302C00C94CF
:1012D0000E0990E0880F991F30E08217930711F4F0
:1012E0000C9425090C94390981E090E09093390120
:1012F00080933801109245021092440210923802F5
:1013000010923D0210923C02089580913802882389
:1013100051F08091380190913901049721F40E9495
:1013200050090C947409089580913802882399F12A
:1013300020913801309139012430310564F5409114
:101340003D02F901EE5CFE4F80914402909145020E
:10135000442331F0DC01AE5CBE4F4C91440F0BC016
:1013600040913C02DC01AE5CBE4F442319F04C912D
:10137000469501C04C914083FC01EE5CFE4F10820B
:10138000019690934502809344022F5F3F4F309324
:10139000390120933801089580914D0290914E02B9
:1013A00020914F0230915002F901EE5CFE4F4081D6
:1013B000DC01AE5CBE4F4C9310822150310930935A
:1013C000500220934F02019790934E0280934D025A
:1013D00008954091540250915502FA01EE5CFE4F7F
:1013E00080812091560230915702D901AE5CBE4FE8
:1013F000803439F090913F02911103C0880F8C9393
:1014000008C086958C9381E080933F0280E18093B1
:1014100048021082415051095093550240935402A2
:10142000215031093093570220935602089540917C
:10143000510250915202FA01EE5CFE4F80812091E0
:101440004B0230914C02D901AE5CBE4F813039F075
:1014500090913E02911103C086958C9308C0880F2D
:101460008C9381E080933E0288E080934802108252
:101470004150510950935202409351022150310979
:1014800030934C0220934B020895809142028823AE
:1014900039F080914D0290914E0297FF0E94CC0945
:1014A00080914102882339F0809156029091570231
:1014B00097FF0E94E90980914002882339F08091CA
:1014C0004B0290914C0297FF0C94170A08950F93CA
:1014D0001F93CF93DF93CDB7DEB760970FB6F89425
:1014E000DEBF0FBECDBF0E9440010E945E0680E0BD
:1014F00090E40E94860080E090E20E94860080E0F6
:1015000090E10E94860080E098E00E94860080E0E2
:1015100094E00E94860080E092E00E94860080E0D5
:1015200091E00E94860083E090E40E94860080E0C3
:1015300090E80E94860083E090E10E94860083E0AC
:1015400090E80E94860083E090E20E9486000E945C
:1015500092008E010F5F1F4F80E1F80111928A9572
:10156000E9F787E091E09A8389838DE790E09E8395
:101570008D8387E291E09A87898780E791E19E8752
:101580008D870E94AC0162E0C8010E94150580E0D1
:1015900090E060960FB6F894DEBF0FBECDBFDF912E
:1015A000CF911F910F9108950E94E80A0C94C90BE6
:1015B0000E94C20B58F00E94BB0B40F029F45F3F21
:1015C00029F00C94B20B51110C94FD0B0C94B80B38
:1015D0000E94DA0B68F39923B1F3552391F3951B1D
:1015E000550BBB27AA2762177307840738F09F5F44
:1015F0005F4F220F331F441FAA1FA9F335D00E2EB1
:101600003AF0E0E832D091505040E695001CCAF71D
:101610002BD0FE2F29D0660F771F881FBB1F2617E0
:1016200037074807AB07B0E809F0BB0B802DBF01B7
:10163000FF2793585F4F3AF09E3F510578F00C9486
:10164000B20B0C94FD0B5F3FE4F3983ED4F3869508
:1016500077956795B795F7959F5FC9F7880F911DA7
:101660009695879597F90895E1E0660F771F881F93
:10167000BB1F621773078407BA0720F0621B730B46
:10168000840BBA0BEE1F88F7E09508950E94E20BD9
:1016900088F09F5798F0B92F9927B751B0F0E1F033
:1016A000660F771F881F991F1AF0BA95C9F714C0E3
:1016B000B13091F00E94FC0BB1E008950C94FC0B4A
:1016C000672F782F8827B85F39F0B93FCCF386951C
:1016D00077956795B395D9F73EF490958095709579
:1016E00061957F4F8F4F9F4F0895E89409C097FBF6
:1016F0003EF490958095709561957F4F8F4F9F4FE9
:101700009923A9F0F92F96E9BB279395F69587952C
:1017100077956795B795F111F8CFFAF4BB0F11F4EF
:1017200060FF1BC06F5F7F4F8F4F9F4F16C0882396
:1017300011F096E911C0772321F09EE8872F762FCC
:1017400005C0662371F096E8862F70E060E02AF00D
:101750009A95660F771F881FDAF7880F96958795F9
:1017600097F9089597F99F6780E870E060E0089521
:101770009FEF80EC089500240A94161617061806A9
:101780000906089500240A94121613061406050685
:101790000895092E0394000C11F4882352F0BB0F16
:1017A00040F4BF2B11F460FF04C06F5F7F4F8F4F79
:1017B0009F4F089557FD9058440F551F59F05F3FB4
:1017C00071F04795880F97FB991F61F09F3F79F063
:1017D00087950895121613061406551FF2CF4695E5
:1017E000F1DF08C0161617061806991FF1CF869567
:1017F0007105610508940895E894BB27662777274B
:10180000CB0197F9089516F00C94310D0C94B80B98
:1018100068940C94B20B0E94E20BA8F39923C1F3D5
:10182000AEF3DF93CF931F930F93FF92C92FDD2762
:1018300088232AF02197660F771F881FDAF720E0A8
:1018400030E040E85FEB9FE3883920F0803E38F0DD
:1018500021968F770E94C50CE4E7F0E004C00E9457
:10186000C50CE1EAF0E00E943F0D8B01BE01EC01E6
:10187000FB2E6F5771097595771F880B990B0E9486
:10188000770B28E132E741E35FE30E94610CAF2D63
:101890009801AE01FF900F911F91CF91DF910E94AF
:1018A000DC0C0C94C90B0E94BB0B38F00E94C20BDD
:1018B00020F0952311F00C94B20B0C94B80B0C94FF
:1018C000FD0B0E94DA0B78F39923C9F35523B9F382
:1018D000950F50E0551FAA27EE27FF27BB270024AE
:1018E0000894679520F4E20FF31FB41F0A1E220F1D
:1018F000331F441FAA1F6695A9F7779530F4F30F9D
:10190000B41F0A1E121E08F46395330F441FAA1F4A
:10191000221F769599F7879520F4B40F0A1E121EA0
:10192000631F440FAA1F221F331F8695A9F7862F16
:10193000712D602D11249F5750409AF0F1F08823AB
:101940004AF0EE0FFF1FBB1F661F771F881F9150C5
:101950005040A9F79E3F510580F00C94B20B0C94B7
:10196000FD0B5F3FE4F3983ED4F38695779567953A
:10197000B795F795E7959F5FC1F7FE2B880F911DEF
:101980009695879597F908955058BB27AA270E94E6
:10199000DC0C0C94C90B0E94BB0B38F00E94C20BEC
:1019A00020F039F49F3F19F426F40C94B80B0EF490
:1019B000E095E7FB0C94B20BE92F0E94DA0B58F389
:1019C000BA17620773078407950720F079F4A6F524
:1019D0000C94FC0B0EF4E0950B2EBA2FA02D0B01EE
:1019E000B90190010C01CA01A0011124FF27591B64
:1019F00099F0593F50F4503E68F11A16F040A22F6A
:101A0000232F342F4427585FF3CF469537952795DA
:101A1000A795F0405395C9F77EF41F16BA0B620BD9
:101A2000730B840BBAF09150A1F0FF0FBB1F661F20
:101A3000771F881FC2F70EC0BA0F621F731F841F63
:101A400048F4879577956795B795F7959E3F08F089
:101A5000B0CF9395880F08F09927EE0F979587954B
:101A600008959F3F31F0915020F4879577956795C1
:101A7000B795880F911D9695879597F90895DF93EF
:101A8000CF931F930F93FF92EF92DF927B018C0114
:101A9000689406C0DA2EEF010E94610CFE01E89402
:101AA000A5912591359145915591A6F3EF010E949D
:101AB000DC0CFE019701A801DA9469F7DF90EF9042
:101AC000FF900F911F91CF91DF910895002480FD29
:101AD000060E660F11F08695D1F7802D089500242B
:101AE000552704C0080E591F880F991F009729F029
:101AF00076956795B8F37105B9F7802D952F089500
:101B0000991B79E004C0991F961708F0961B881F4F
:101B10007A95C9F780950895AA1BBB1B51E107C0B0
:101B2000AA1FBB1FA617B70710F0A61BB70B881F6D
:101B3000991F5A95A9F780959095BC01CD010895FC
:101B4000FB01DC014150504048F001900D92002013
:101B5000C9F701C01D9241505040E0F70895F89434
:021B6000FFCFB5
:101B6200000000000000140000000000000000005F
:101B72000000000000000000000000000000000063
:101B82000000000000000000000000000000000053
:101B92000001000000001C01010002000300000817
:101BA200040C020A060E0109050D030B070F0103BF
:101BB20005203B0200009220EB737D5FDE3DA552C3
:101BC200EA7A14004A222229BA2ED0050014C00152
:101BD2000020A4126A2B9A74A372A338ED498F389D
:101BE200CE2AA712AA2AAE49100410145444380E61
:101BF20011152A250000EA5BEB3A4F726B3BCF735B
:101C0200CF134F7AED5B9774247B5D564972FD5B6F
:101C12006F5B6F7BEF136F7FEF57CE3897246D7B2F
:101C22006D2BED5FAD5AAD24A77203400080031007
:101C3200038003200040002000100008000400027E
:101C42000001038003400320008003100003060804
:101C52000A0340008003100380032000400020009C
:101C620010000800040002000157494E4E45522060
:0C1C72003A29004C4F534552203A2800FC
:00000001FF
