:100000000C943A000C9457000C9457000C94570031
:100010000C9457000C9457000C9457000C94570004
:100020000C9457000C9457000C9457000C945700F4
:100030000C9457000C9457000C9457000C945700E4
:100040000C9457000C9457000C9457000C945700D4
:100050000C9457000C9457000C9457000C945700C4
:100060000C9457000C9457000C9457000C945700B4
:100070000C94570011241FBECFEFD4E0DEBFCDBFDC
:1000800011E0A0E0B1E0E4E1FFE002C005900D92D4
:10009000A637B107D9F711E0A6E7B1E001C01D927C
:1000A000A339B107E1F70E9497060C9488070C94D6
:1000B0000000FC01FF2785A1892B85A30895FC0181
:1000C000FF2725A1892F8095822385A30895EF928C
:1000D000FF920F931F93CF93DF93E0917701F0E0AE
:1000E000EB5FFE4FE080E0917801F0917901EE0F37
:1000F000FF1FE55CFE4F808191810E94590005E45D
:1001000011E0C0E0D0E0F12CC7010C2E02C09595A3
:1001100087950A94E2F7F80180FF05C080819181FC
:100120000E945F0004C0808191810E945900219645
:100130000E5F1F4FC730D10539F7E0917701F0E02E
:10014000EE0FFF1FE55CFE4F808191810E945F00F2
:1001500020917701822F90E090937901809378012C
:1001600081E0820F853018F48093770102C01092ED
:100170007701DF91CF911F910F91FF90EF9008953C
:10018000EF92FF920F931F93CF93DF93E09177014C
:10019000F0E0E050FF4FE080E0917801F0917901CC
:1001A000EE0FFF1FE55CFE4F808191810E94590098
:1001B00005E411E0C0E0D0E0F12CC7010C2E02C034
:1001C000959587950A94E2F7F80180FF05C0808134
:1001D00091810E945F0004C0808191810E9459003A
:1001E00021960E5F1F4FC730D10539F7E091770197
:1001F000F0E0EE0FFF1FE55CFE4F808191810E94D1
:100200005F0020917701822F90E090937901809395
:10021000780181E0820F853018F48093770102C065
:1002200010927701DF91CF911F910F91FF90EF9086
:100230000895FC01FF2784A1892B84A385A1892B24
:1002400085A381E00895E3E0F1E0808110821092BF
:100250000201809300011092010108950E940E0690
:1002600082E00E94DE05882381F0809109018037B9
:1002700060F4880F8093090180917601811105C097
:1002800080910301880F8093030180E00E94DE05C6
:10029000882381F080910901883060F086958093F1
:1002A000090180917601811105C080910301869535
:1002B0008093030184E00E94DE05882359F0809139
:1002C0007601811107C00E9423011092030181E091
:1002D000809376010895E1E6F0E080E88083108263
:1002E000A89584B7877F84BFE0E6F0E080818861CD
:1002F0008083108208951092800084E080938100B2
:10030000109285001092840008958091840090914D
:1003100085000895AC0180918400909185009C0136
:10032000241B350B283E3340B0F7089520918400FC
:1003300030918500820F931F0C948A0181110CC0AB
:1003400080917A01882329F080917B0191E08927AF
:1003500001C080E08170089580E0089581110AC095
:1003600080917A01811103C080917B0101C080E0FE
:100370008170089580E00895811103C080917A0111
:10038000089580E00895811105C080917A0191E07F
:100390008927089580E00895EAE7F1E0808180935D
:1003A0007B0189B1881F8827881F8083089557980B
:1003B0005F9808958530A0F4673090F421E030E034
:1003C000062E01C0220F0A94EAF7E82FF0E0E35866
:1003D000FE4F822F8095908189234111822B80834B
:1003E0000895853088F4673078F4E82FF0E0E3581A
:1003F000FE4F21E030E0062E01C0220F0A94EAF7FA
:100400009081922381E009F480E0089560917C015D
:10041000E62FF0E0E358FE4F80810E945502809164
:100420007C018F5F853018F480937C0108951092D1
:100430007C01089510927D0110927E0110927F013F
:10044000109280011092810108950E9433020C9451
:100450001A02FC01FF2784A1892B84A385A1892B83
:1004600085A381E00895CF93DF93CDE5D1E0899115
:1004700099910E94290281E0CB36D807C1F783E029
:1004800090E40E94290280E090E80E94290283E023
:1004900090E10E94290283E090E80E94290283E013
:1004A00090E2DF91CF910C942902E0918201F0E07B
:1004B000EE0FFF1FED5AFE4F20813181F901FF271A
:1004C00095A1932B95A3EDE5F1E020813181D90130
:1004D000BB2780FF07C095962C919597932F9095F9
:1004E000922304C095969C919597932B95969C93F7
:1004F0008695329691E0EB36F90739F7E62FF0E072
:10050000EE0FFF1FED5AFE4F80819181FC01FF2706
:1005100025A1892F8095822385A360938201089568
:10052000009789F0FC012381621B67FD09C07727D2
:1005300067FD7095248130E081E0621773070CF04D
:1005400080E08170089580E00895CF93DF93FC01EF
:10055000822F309789F19181491770F52281821796
:1005600058F52381621B67FD27C0A62FBB27A7FD77
:10057000B095C481D0E0AC17BD07F4F4692F0E9498
:100580000A07480F658170E0CD010E941307DC0166
:100590001696842F869586958695AE0FBF1FA80F59
:1005A000B11D2C9130E0477002C0359527954A95D2
:1005B000E2F7822F817001C080E0DF91CF91089532
:1005C000CF93DF93EC010E947B019E0140E050E05D
:1005D00062E17AE780E090E00E943807309386017C
:1005E00020938501DF91CF910895809183019091AF
:1005F00084010E948A01809183019091840120915D
:10060000850130918601820F931F9093840180931E
:100610008301089541E0611101C040E0692F0C940D
:10062000DA01692F0C94F10141E0611101C040E051
:10063000692F0C94DA016F927F928F929F92AF9202
:10064000BF92CF92DF92EF92FF920F931F93CF93BF
:10065000DF931F92CDB7DEB7862EB42E6C01862FA6
:10066000992787FD90958C199109C7FC9395072FC1
:10067000112707FD10950D191109D7FC139597FD4A
:1006800003C0AA24A39402C0AA24AA9417FD03C0FD
:100690009924939402C099249A943C0197FF03C033
:1006A00071946194710817FF03C0119501951109A8
:1006B0006016710694F07301F594E794C81409F17B
:1006C0006B2DC6010E941403E01AF10AF7FE03C065
:1006D000E60CF71CD90CCA0CF1CF7801F594E7941D
:1006E000D71679F06B2DC60179830E941403E618A2
:1006F000F7087981F7FE03C0E00EF11ECA0CD90C91
:10070000EFCF6B2DC6010F90DF91CF911F910F910D
:10071000FF90EF90DF90CF90BF90AF909F908F9021
:100720007F906F900C941403FF920F931F93CF93BD
:10073000DF93182FF92E062FC72FD42F792F0E9461
:100740001B034D2F612F7C2F812F9F2D0E941B0398
:100750004D2F602F7C2F802F9F2D0E941B034D2F2C
:10076000602F7C2F812F9C2F0E941B03DF91CF9144
:100770001F910F91FF9008950E941A0210921B0181
:10078000109216010895DF92EF92FF920F931F933C
:10079000CF93DF93E82E8B01F62ED12E20910C0102
:1007A00030910D01D0E02130310599F5D12EDD1ABF
:1007B000E0911201F09113018181C0E0D817B8F4E3
:1007C000E0911201F09113018281C81770F42C2F6F
:1007D0004D2F6E2DCF010E94A502682F8C2F800F08
:1007E0009D2D0E941403CF5FEBCFDF5FDFCFE09141
:1007F0001201F09113018281C81740F460E08C2F40
:10080000800F9D2D0E941403CF5FF1CFDA9430C08A
:10081000DF5FFD2EF00EE0911201F0911301818156
:10082000C0E0D817A8F4E0911201F0911301828181
:10083000C81770F72C2F4D2F6E2DCF010E94A502E7
:10084000682F8F2D9C2F910F0E941403CF5FEBCF49
:10085000E0911201F09113018281C81740F460E029
:100860008F2D9C2F910F0E941403CF5FF1CFF39433
:100870008F2D9D2DDF91CF911F910F91FF90EF90C4
:10088000DF9008951F93CF93DF93182FEC019C2FD7
:10089000911B8991882349F00E94C303BC019C2FBE
:1008A000911B653014F477FFF2CF892FDF91CF9140
:1008B0001F9108950F931F93CF93DF93EC019B013A
:1008C000109216014093170110921A010091120123
:1008D000109113010115110509F448C0F801818137
:1008E000609110017091110190E00E941307BC010A
:1008F00080911401909115010E942407CB016AE0B8
:1009000070E00E94130790931901809318013093AF
:100910000F0120930E0140E250E0BE018BE191E017
:100920000E94790780910A0190910B010197F1F4DF
:10093000FE0101900020E9F7CF010197F8016181E4
:1009400070E06F5F7F4F8C1B0E940A0781502091DF
:100950000C0130910D012130310511F497E001C0F7
:1009600095E0981718F48EEF80931A01DF91CF91DC
:100970001F910F91089520910C0130910D012130AC
:10098000310511F476E001C070E04FEF60E00E94A5
:100990005A04089590E090931101809310010895F6
:1009A00090930B0180930A01089590930D01809319
:1009B0000C01089590931301809312010895CF9331
:1009C000809187019091880101969093880180938E
:1009D000870120911801309119018217930708F4BB
:1009E00068C01092880110928701E0911601F0E032
:1009F000E65FFE4F818981110AC080911701823024
:100A000008F457C081508093170110921601C091CD
:100A100016018C2F90E0FC01E65FFE4F2189222316
:100A200009F447C020910A0130910B0140911A014D
:100A30002115310521F02130310589F022C0411105
:100A400020C060910E0170910F01855E9E4F0E9443
:100A500042049FEF9C0F980F9093160112C0609173
:100A60000E0170910F0120910C0130910D01213088
:100A7000310511F4740F01C0641B855E9E4F0E9406
:100A8000420420911A012F5F20931A01332727FD7A
:100A90003095E0911201F0911301818190E082176D
:100AA00093073CF410921A01809116018F5F809396
:100AB0001601CF910C9406029093150180931401B6
:100AC0000E94250284E190E090931101809310012F
:100AD0000C94BC03182F092FF62E0E947B010E9454
:100AE0008501C12FD02F8E819F810E948A01E881CC
:100AF000F9818A819B8109952E813F818C819D811D
:100B0000280F391F3F832E830E948501E12FF02F8C
:100B10002FEF3FEF60E06F1531F3AE2F7F2F46814F
:100B200057816C01C41AD50AA601BFEFCB16BFE7E7
:100B3000DB0610F4EF01D7CF5195419551094217CB
:100B4000530718F0A901AC2F7D2F6F5F38969A01DB
:100B5000CA2FD72FE0CF6230710511F160F46130F8
:100B6000710551F5FC01FF2784A19095892384A389
:100B700085A189231EC06330710541F06430710581
:100B8000D9F4FC01FF2784A1892B10C0FC01FF27A9
:100B900084A1892B84A325A1892F8095822309C054
:100BA000FC01FF2784A1292F2095822384A385A1FE
:100BB000892B85A381E0089580E00895E82FF0E077
:100BC000EE0FFF1FE757FE4F8081882321F08181C0
:100BD00091E0892701C080E081700895E82FF0E05E
:100BE000EE0FFF1FE757FE4F8081811102C0818108
:100BF00001C080E081700895E82FF0E0EE0FFF1F44
:100C0000E757FE4F80810895E82FF0E0EE0FFF1FB9
:100C1000E757FE4F908181E0892708954F925F92B8
:100C20007F928F929F92AF92BF92CF92DF92EF927C
:100C3000FF920F931F93CF93DF9300D0CDB7DEB712
:100C400059E8452E51E0552E6AE8E62E61E0F62E71
:100C50007BE6A72E71E0B72EE6E07E2EF2018081C2
:100C6000F7018083F501019111915F016801DD2495
:100C7000F60184A1812E992425A130E02821392173
:100C800041E0232B09F440E090E088219921892B51
:100C900029F0442341F024E030E00AC0442331F03D
:100CA00022E030E005C023E030E002C021E030E087
:100CB00064E070E0C80129833A830E94AB0562E0DA
:100CC00070E0C8010E94AB05872D8A95F1F7F60107
:100CD00083A190E08821992141E029813A81892BE3
:100CE00009F040E0F2014083B901C8010E94AB0560
:100CF000F2E04F0E511C82E0E80EF11CE3E94E16C3
:100D0000E1E05E0609F0AACF0F900F90DF91CF913E
:100D10001F910F91FF90EF90DF90CF90BF90AF9019
:100D20009F908F907F905F904F90089508950F93BC
:100D30001F93CF93DF93CDB7DEB768970FB6F894C4
:100D4000DEBF0FBECDBF0E946B0180E090E40E9429
:100D5000190180E090E20E94190180E090E10E9478
:100D6000190180E098E00E94190180E094E00E945F
:100D7000190180E092E00E94190180E091E00E9458
:100D8000190183E090E40E94190180E090E80E943C
:100D9000190183E090E10E94190183E090E80E942C
:100DA000190183E090E20E9419018E010F5F1F4F2D
:100DB00088E1F80111928A95E9F787E690E09A8335
:100DC00089838FE090E09E838D8380EC90E09A870A
:100DD000898789E190E09E878D878EE291E09A8BEA
:100DE000898B88E391E09E8B8D8B0E946B010E9422
:100DF000D70163E0C8010E946A0580E090E0689630
:100E00000FB6F894DEBF0FBECDBFDF91CF911F911B
:100E10000F910895002480FD060E660F11F086954F
:100E2000D1F7802D08950024552704C0080E591FBE
:100E3000880F991F009729F076956795B8F371058B
:100E4000B9F7802D952F0895AA1BBB1B51E107C050
:100E5000AA1FBB1FA617B70710F0A61BB70B881F4A
:100E6000991F5A95A9F780959095BC01CD010895D9
:100E7000052E97FB1EF400940E944F0757FD07D0E4
:100E80000E94570707FC03D04EF40C944F0750956F
:100E90004095309521953F4F4F4F5F4F0895909566
:100EA0008095709561957F4F8F4F9F4F0895A1E278
:100EB0001A2EAA1BBB1BFD010DC0AA1FBB1FEE1FD4
:100EC000FF1FA217B307E407F50720F0A21BB30B1F
:100ED000E40BF50B661F771F881F991F1A9469F79B
:100EE00060957095809590959B01AC01BD01CF01F7
:100EF0000895FB01DC014150504048F001900D92F3
:100F00000020C9F701C01D9241505040E0F70895FC
:040F1000F894FFCF83
:100F14000000000800000000001C000000000000A9
:100F240014000000000000000000000000000000A9
:100F340000000000000000000000000000000000AD
:100F440000000000000000000000000340008003D7
:100F5400100380032000400020001000080004005B
:100F640002000103400080031003800320004000BE
:100F74002000100008000400020001038003400365
:060F8400200080031000B4
:00000001FF
