:100000000C9467000C9484000C9484000C9484007D
:100010000C9484000C9484000C9484000C94840050
:100020000C9484000C9484000C9484000C94840040
:100030000C9484000C9484000C9484000C94840030
:100040000C9484000C9484000C9484000C94840020
:100050000C9484000C9484000C9484000C94840010
:100060000C9484000C9484000C9484000C94840000
:100070000C94840008000000BE922449123EABAAF2
:10008000AA2ABECDCCCC4C3E00000080BEABAAAAB2
:10009000AA3E00000000BF000000803F00000000FA
:1000A00000084178D3BB4387D1133D190E3CC3BD33
:1000B0004282AD2B3E68EC8276BED98FE1A93E4CE0
:1000C00080EFFFBE01C4FF7F3F000000000011244D
:1000D0001FBECFEFD4E0DEBFCDBF11E0A0E0B1E0A6
:1000E000E8EEFAE102C005900D92AC38B107D9F7FD
:1000F00011E0ACE8B1E001C01D92A83CB107E1F706
:100100000E94EB090C94720D0C9400009C01FC0100
:10011000FF2784A1832B84A395A1892F832B85A3FB
:1001200081E00895E82FEF70F0E0E35CFE4F9081EE
:10013000990F990F990FE82FE695E695E695F0E06F
:10014000E35CFE4F8081892B0895682F70E080E08A
:1001500090E00E94F70A0E948D0B28E132E741E30C
:100160005FE30E94560A0E94C80A862F089521E084
:1001700030E040E050E090E0481759072CF4220F9F
:10018000331F4F5F5F4FF8CF822F0895E0919F019B
:10019000F091A001EE0FFF1FE35BFE4F2081318144
:1001A000F901FF2795A1932B95A3E7E5F1E020E066
:1001B00030E090E0AC01022E02C0559547950A94BC
:1001C000E2F740FF0AC040815181DA01BB279596D2
:1001D0004C9195975095452308C040815181DA0193
:1001E000BB2795964C919597452B95964C932F5FF1
:1001F0003F4F329627303105E9F670E0FB01EE0FF4
:10020000FF1FE35BFE4F80819181FC01FF2785A1E9
:100210009095892385A37093A00160939F01089511
:10022000809100010E94A50090919C01890F0E947D
:10023000BE0881E080938C0110929B0110928F0187
:1002400008950E94B608833561F482E090E09093AF
:1002500092018093910188E08093030182E40C94E1
:10026000BE08823449F481E08093900182E090E0FE
:10027000909392018093910108950E94B608982F5F
:1002800087708093BA019871903131F491E0909326
:100290009A0190938E0107C0983029F491E09093D1
:1002A0009A0190938D01873049F00E94B7000E9417
:1002B00092008093000181E080939A0108956091FB
:1002C0009D01E62FF0E0E050FF4F80810E94C600C4
:1002D00080919D018F5F853018F480939D0102C04D
:1002E00010929D0180919B01811104C080918F012A
:1002F000882329F08091000181110E9410010E9441
:10030000B408882351F08091910190919201019756
:1003100011F40C9421010C943D01089582E00E9497
:10032000F007882381F080910401803760F4880F02
:100330008093040180919B01811105C0809103018C
:10034000880F8093030180E00E94F007882381F0EA
:1003500080910401883060F086958093040180913B
:100360009B01811105C08091030186958093030153
:100370008091900181110CC080919B01811108C076
:1003800084E00E94F007882319F081E080939B01AC
:10039000089580919B018823F1F08091070190914D
:1003A000080197FD18C02091090130910A01F90157
:1003B000E050FF4F4081DC01A050BF4F4C931082B2
:1003C0002150310930930A0120930901019790933C
:1003D00008018093070180918C01882321F01092FD
:1003E000000110928C01089580919E01882331F0C4
:1003F0008091C3018093040110929E01089583E0CF
:1004000090E09093C5018093C40182E090E09093C6
:10041000C7018093C60181E08093940180938F018E
:100420001092990180E180939C01089583E090E00F
:100430009093C0018093BF0182E090E09093BE0151
:100440008093BD0181E08093950180938F0110928C
:100450009C01089583E090E09093C2018093C101D4
:1004600082E090E09093BC018093BB0181E0809397
:10047000930180938F011092980188E080939C01F2
:1004800008959091040120910301822F892B8917EF
:1004900051F09093C301809304011092030181E015
:1004A00080939E01089567E00E94020D821302C0AE
:1004B0000C94FF0190E0880F991F30E0821793079A
:1004C00011F40C9416020C942A0281E090E09093AF
:1004D00006018093050110929701109296011092E7
:1004E0009A0110928E0110928D0108958091BD01A4
:1004F0009091BE012091BF013091C001F901E050FF
:10050000FF4F4081DC01A050BF4F4C93108221501F
:1005100031093093C0012093BF0101979093BE0130
:100520008093BD0108954091C4015091C501FA0125
:10053000E050FF4F80812091C6013091C701D90161
:10054000A050BF4F803439F090919901911103C0B0
:10055000880F8C9308C086958C9381E080939901D5
:1005600080E180939C011082415051095093C50154
:100570004093C401215031093093C7012093C60133
:1005800008954091C1015091C201FA01E050FF4F1E
:1005900080812091BB013091BC01D901A050BF4F97
:1005A000813039F090919801911103C086958C9318
:1005B00008C0880F8C9381E08093980188E0809335
:1005C0009C011082415051095093C2014093C101D6
:1005D000215031093093BC012093BB0108958091D3
:1005E0009A01882399F12091050130910601243068
:1005F000310564F540918E01F901E050FF4F809183
:10060000960190919701442331F0DC01A050BF4F37
:100610004C91440F0BC040918D01DC01A050BF4FA5
:10062000442319F04C91469501C04C914083FC0144
:10063000E050FF4F108201969093970180939601AE
:100640002F5F3F4F3093060120930501089580915D
:100650009A01882351F08091050190910601049739
:1006600021F40E9441020E94650280919501882335
:1006700039F08091BD019091BE0197FF0E947602F2
:1006800080919401882339F08091C6019091C7012F
:1006900097FF0E94930280919301882339F0809103
:1006A000BB019091BC0197FF0C94C10208950E9478
:1006B0008E010E94C9010E94F4010E9427030C943C
:1006C000EF020E94DE030E94200880919101909128
:1006D0009201892B49F483E50E94BE0881E090E0F5
:1006E0009093920180939101809191019091920158
:1006F000029711F40C9457030895E1E6F0E080E8C6
:1007000080831082A89584B7877F84BFE0E6F0E0FD
:10071000808188618083108208951092800084E037
:10072000809381001092850010928400089580913A
:100730008400909185000895AC018091840090918F
:1007400085009C01241B350B283E3340B0F70895EB
:100750002091840030918500820F931F0C949C039C
:1007600081110CC08091A101882329F08091A20100
:1007700091E0892701C080E08170089580E00895AC
:1007800081110AC08091A101811103C08091A20151
:1007900001C080E08170089580E00895811103C058
:1007A0008091A101089580E00895811105C0809194
:1007B000A10191E08927089580E00895E1EAF1E040
:1007C00080818093A20189B1881F8827881F808338
:1007D000089557985F9808958530A0F4673090F495
:1007E00021E030E0062E01C0220F0A94EAF7E82F3C
:1007F000F0E0EC55FE4F822F8095908189234111C6
:10080000822B80830895853088F4673078F4E82F50
:10081000F0E0EC55FE4F21E030E0062E01C0220F43
:100820000A94EAF79081922381E009F480E0089528
:100830006091A301E62FF0E0EC55FE4F80810E940D
:1008400067048091A3018F5F853018F48093A30122
:1008500008951092A30108951092A4011092A50189
:100860001092A6011092A7011092A80108950E946B
:1008700045040C942C04FC01FF2784A1892B84A33C
:1008800085A1892B85A381E00895CF93DF93CFE6DF
:10089000D1E0899199910E943B0481E0CD37D8073E
:1008A000C1F783E090E40E943B0480E090E80E945E
:1008B0003B0483E090E10E943B0483E090E80E94C7
:1008C0003B0483E090E2DF91CF910C943B04E091F4
:1008D000A901F0E0EE0FFF1FEB59FE4F208131819F
:1008E000F901FF2795A1932B95A3EFE6F1E0208175
:1008F0003181D901BB2780FF07C095962C91959730
:10090000932F9095922304C095969C919597932B45
:1009100095969C938695329691E0ED37F90739F7D5
:10092000E62FF0E0EE0FFF1FEB59FE4F8081918123
:10093000FC01FF2725A1892F8095822385A3609341
:10094000A9010895009789F0FC012381621B67FDCE
:1009500009C0772767FD7095248130E081E0621738
:1009600073070CF080E08170089580E00895CF93C4
:10097000DF93FC01822F309789F19181491770F53F
:100980002281821758F52381621B67FD27C0A62F9D
:10099000BB27A7FDB095C481D0E0AC17BD07F4F428
:1009A000692F0E94E80C480F658170E0CD010E941C
:1009B000F10CDC011696842F869586958695AE0FF0
:1009C000BF1FA80FB11D2C9130E0477002C03595B4
:1009D00027954A95E2F7822F817001C080E0DF9170
:1009E000CF910895CF93DF93EC010E948D039E0178
:1009F00040E050E062E17AE780E090E00E94220D62
:100A00003093AD012093AC01DF91CF910895809197
:100A1000AA019091AB010E949C038091AA01909140
:100A2000AB012091AC013091AD01820F931F9093E7
:100A3000AB018093AA01089541E0611101C040E03B
:100A4000692F0C94EC03692F0C94030441E06111AD
:100A500001C040E0692F0C94EC036F927F928F925B
:100A60009F92AF92BF92CF92DF92EF92FF920F933D
:100A70001F93CF93DF931F92CDB7DEB7862EB42E90
:100A80006C01862F992787FD90958C199109C7FCD9
:100A90009395072F112707FD10950D191109D7FC04
:100AA000139597FD03C0AA24A39402C0AA24AA9474
:100AB00017FD03C09924939402C099249A943C0191
:100AC00097FF03C071946194710817FF03C01195DB
:100AD000019511096016710694F07301F594E7947D
:100AE000C81409F16B2DC6010E942605E01AF10A0F
:100AF000F7FE03C0E60CF71CD90CCA0CF1CF780145
:100B0000F594E794D71679F06B2DC60179830E948E
:100B10002605E618F7087981F7FE03C0E00EF11EFE
:100B2000CA0CD90CEFCF6B2DC6010F90DF91CF917E
:100B30001F910F91FF90EF90DF90CF90BF90AF90FB
:100B40009F908F907F906F900C942605FF920F934B
:100B50001F93CF93DF93182FF92E062FC72FD42F73
:100B6000792F0E942D054D2F612F7C2F812F9F2DD6
:100B70000E942D054D2F602F7C2F802F9F2D0E94CE
:100B80002D054D2F602F7C2F812F9C2F0E942D052E
:100B9000DF91CF911F910F91FF9008950E942C0437
:100BA00010921C01109217010895DF92EF92FF92AC
:100BB0000F931F93CF93DF93E82E8B01F62ED12E48
:100BC00020910D0130910E01D0E02130310599F5D1
:100BD000D12EDD1AE0911301F09114018181C0E062
:100BE000D817B8F4E0911301F09114018281C8176D
:100BF00070F42C2F4D2F6E2DCF010E94B704682F5B
:100C00008C2F800F9D2D0E942605CF5FEBCFDF5FDD
:100C1000DFCFE0911301F09114018281C81740F4F5
:100C200060E08C2F800F9D2D0E942605CF5FF1CFB5
:100C3000DA9430C0DF5FFD2EF00EE0911301F091E9
:100C400014018181C0E0D817A8F4E0911301F0915C
:100C500014018281C81770F72C2F4D2F6E2DCF01F4
:100C60000E94B704682F8F2D9C2F910F0E9426059C
:100C7000CF5FEBCFE0911301F09114018281C8178F
:100C800040F460E08F2D9C2F910F0E942605CF5FCE
:100C9000F1CFF3948F2D9D2DDF91CF911F910F9167
:100CA000FF90EF90DF9008951F93CF93DF93182F5D
:100CB000EC019C2F911B8991882349F00E94D50556
:100CC000BC019C2F911B653014F477FFF2CF892F64
:100CD000DF91CF911F9108950F931F93CF93DF93CF
:100CE000EC019B01109217014093180110921B0117
:100CF00000911301109114010115110509F448C068
:100D0000F8018181609111017091120190E00E94BF
:100D1000F10CBC0180911501909116010E940E0DFD
:100D2000CB016AE070E00E94F10C90931A0180936D
:100D300019013093100120930F0140E250E0BE01F1
:100D40008CE191E00E94630D80910B0190910C0168
:100D50000197F1F4FE0101900020E9F7CF0101971E
:100D6000F801618170E06F5F7F4F8C1B0E94E80C7F
:100D7000815020910D0130910E012130310511F487
:100D800097E001C095E0981718F48EEF80931B014F
:100D9000DF91CF911F910F91089520910D01309116
:100DA0000E012130310511F476E001C070E04FEF03
:100DB00060E00E946C06089590E090931201809389
:100DC0001101089590930C0180930B010895909365
:100DD0000E0180930D0108959093140180931301E7
:100DE0000895CF938091AE019091AF0101969093B9
:100DF000AF018093AE012091190130911A01821741
:100E0000930708F468C01092AF011092AE01E09110
:100E10001701F0E0E55FFE4F818981110AC08091E2
:100E20001801823008F457C0815080931801109245
:100E30001701C09117018C2F90E0FC01E55FFE4F78
:100E40002189222309F447C020910B0130910C0124
:100E500040911B012115310521F02130310589F028
:100E600022C0411120C060910F0170911001845E79
:100E70009E4F0E9454069FEF9C0F980F909317016E
:100E800012C060910F017091100120910D013091FD
:100E90000E012130310511F4740F01C0641B845E12
:100EA0009E4F0E94540620911B012F5F20931B012F
:100EB000332727FD3095E0911301F09114018181D2
:100EC00090E0821793073CF410921B018091170168
:100ED0008F5F80931701CF910C94180490931601A3
:100EE000809315010E94370484E190E090931201F1
:100EF000809311010C94CE05182F092FF62E0E9415
:100F00008D030E949703C12FD02F8E819F810E9455
:100F10009C03E881F9818A819B8109952E813F811B
:100F20008C819D81280F391F3F832E830E94970358
:100F3000E12FF02F2FEF3FEF60E06F1531F3AE2F71
:100F40007F2F468157816C01C41AD50AA601BFEFD5
:100F5000CB16BFE7DB0610F4EF01D7CF51954195D3
:100F600051094217530718F0A901AC2F7D2F6F5F6D
:100F700038969A01CA2FD72FE0CF6230710511F150
:100F800060F46130710551F5FC01FF2784A1909553
:100F9000892384A385A189231EC06330710541F094
:100FA00064307105D9F4FC01FF2784A1892B10C09E
:100FB000FC01FF2784A1892B84A325A1892F80957B
:100FC000822309C0FC01FF2784A1292F20958223B9
:100FD00084A385A1892B85A381E0089580E00895ED
:100FE000E82FF0E0EE0FFF1FE055FE4F80818823D1
:100FF00021F0818191E0892701C080E0817008950E
:10100000E82FF0E0EE0FFF1FE055FE4F80818111C9
:1010100002C0818101C080E081700895E82FF0E076
:10102000EE0FFF1FE055FE4F80810895E82FF0E09E
:10103000EE0FFF1FE055FE4F908181E08927089554
:101040004F925F927F928F929F92AF92BF92CF9278
:10105000DF92EF92FF920F931F93CF93DF9300D015
:10106000CDB7DEB750EB452E51E0552E61EBE62EA5
:1010700061E0F62E7DE7A72E71E0B72EE6E07E2E2A
:10108000F2018081F7018083F501019111915F01E7
:101090006801DD24F60184A1812E992425A130E088
:1010A0002821392141E0232B09F440E090E08821F8
:1010B0009921892B29F0442341F024E030E00AC033
:1010C000442331F022E030E005C023E030E002C0EC
:1010D00021E030E064E070E0C80129833A830E9497
:1010E000BD0762E070E0C8010E94BD07872D8A95A8
:1010F000F1F7F60183A190E08821992141E029814F
:101100003A81892B09F040E0F2014083B901C8011E
:101110000E94BD07F2E04F0E511C82E0E80EF11C68
:10112000EAEB4E16E1E05E0609F0AACF0F900F90B1
:10113000DF91CF911F910F91FF90EF90DF90CF90B3
:10114000BF90AF909F908F907F905F904F90089549
:101150000895811105C0662311F0429A08954298BE
:1011600008953A9A429A08950C941B090C943C09EC
:101170000C9421090C9427090C942D090E942D0927
:101180000E9427098823E1F38CE291E00197F1F7AF
:101190000E941B0981110C94B60808950C94430910
:1011A000CF93DF9300D01F92CDB7DEB780ED90E0F4
:1011B0009A83898388E08B83509A589A0E94B80951
:1011C0008FE690E00E944F0981E090E00E94A7091D
:1011D00061E070E081E090E00E9493090E947F0945
:1011E000CE0101960E9403090F900F900F90DF919E
:1011F000CF9108959C01215031093093CD00815049
:101200008093CC000895CF93DF93EC01888199817E
:101210000E94FA088A819BEF980F943008F088E0CA
:1012200098E19093C9008550880F8093CA0081E0AF
:10123000DF91CF9108958091C800881F8827881F6B
:1012400008958091C80085FB882780F908958091D2
:10125000C80086FB882780F90895CF93C82F0E9485
:1012600021098823E1F39091C80090649093C8000D
:10127000C093CE00CF9108958091C80087FFFCCF26
:101280008091CE000895CF93DF93EC01899188235C
:1012900019F00E942D09FACFDF91CF910895CF93D5
:1012A000DF931F92CDB7DEB79E012F5F3F4F45E022
:1012B00067E871E00E94C20991E0980F90933C01A9
:1012C0009981915097BD18BC95B5977039F025B5A7
:1012D00090913C019770287F922B95BD298130E039
:1012E000E82FF0E0E957FE4FC901008002C0880FE7
:1012F000991F0A94E2F70F90DF91CF91089585B37B
:10130000897F85BB95B580913C018770987F892B3B
:1013100085BD089585B5887F85BD089585B382FB19
:10132000882780F90895009719F0019741F00895F2
:1013300084B56295660F660F607C8F7305C084B5B7
:1013400063706295607F8F7C682B64BD0895009701
:1013500041F0019759F484B58E7F84BD84B58260D5
:1013600002C084B58C7F84BD81E0089580E008953B
:1013700014BC15BC16BC18BC81E090E00E94A70903
:1013800081E00895CF93DF93D62FFB0160E070E0FA
:10139000A1E0B0E05E2F5D1B5417B8F4C191BD0110
:1013A0000C2E02C0660F771F0A94E2F76F5F7F4F23
:1013B00076956795680F791F02C076956795CA95EF
:1013C000E2F76F3F710509F028F7F9016083852F77
:1013D000DF91CF9108950F931F93CF93DF93CDB7F4
:1013E000DEB760970FB6F894DEBF0FBECDBF0E9488
:1013F0007D030E94D00880E090E40E94860080E097
:1014000090E20E94860080E090E10E94860080E0E9
:1014100098E00E94860080E094E00E94860080E0D0
:1014200092E00E94860080E091E00E94860083E0C6
:1014300090E40E94860080E090E80E94860083E0AD
:1014400090E10E94860083E090E80E94860083E09D
:1014500090E20E9486008E010F5F1F4F80E1F8012D
:1014600011928A95E9F78FE591E09A8389838DE758
:1014700090E09E838D8381E693E09A87898785E358
:101480009CE09E878D870E94E90362E0C8010E946C
:101490007C0780E090E060960FB6F894DEBF0FBE48
:1014A000CDBFDF91CF911F910F9108950E946A0ADD
:1014B0000C944B0B0E94440B58F00E943D0B40F0E3
:1014C00029F45F3F29F00C94340B51110C947F0BDD
:1014D0000C943A0B0E945C0B68F39923B1F35523EB
:1014E00091F3951B550BBB27AA2762177307840737
:1014F00038F09F5F5F4F220F331F441FAA1FA9F3CD
:1015000035D00E2E3AF0E0E832D091505040E695BA
:10151000001CCAF72BD0FE2F29D0660F771F881F1B
:10152000BB1F261737074807AB07B0E809F0BB0B0E
:10153000802DBF01FF2793585F4F3AF09E3F510522
:1015400078F00C94340B0C947F0B5F3FE4F3983EDF
:10155000D4F3869577956795B795F7959F5FC9F70B
:10156000880F911D9695879597F90895E1E0660F8C
:10157000771F881FBB1F621773078407BA0720F005
:10158000621B730B840BBA0BEE1F88F7E09508956E
:101590000E94640B88F09F5798F0B92F9927B75194
:1015A000B0F0E1F0660F771F881F991F1AF0BA9507
:1015B000C9F714C0B13091F00E947E0BB1E00895DC
:1015C0000C947E0B672F782F8827B85F39F0B93FCE
:1015D000CCF3869577956795B395D9F73EF49095BA
:1015E0008095709561957F4F8F4F9F4F0895E89438
:1015F00009C097FB3EF490958095709561957F4F5B
:101600008F4F9F4F9923A9F0F92F96E9BB27939508
:10161000F695879577956795B795F111F8CFFAF418
:10162000BB0F11F460FF1BC06F5F7F4F8F4F9F4F49
:1016300016C0882311F096E911C0772321F09EE8A7
:10164000872F762F05C0662371F096E8862F70E00D
:1016500060E02AF09A95660F771F881FDAF7880FE7
:101660009695879597F9089597F99F6780E870E0B8
:1016700060E008959FEF80EC089500240A94161608
:10168000170618060906089500240A941216130670
:10169000140605060895092E0394000C11F48823FE
:1016A00052F0BB0F40F4BF2B11F460FF04C06F5F1A
:1016B0007F4F8F4F9F4F089557FD9058440F551FF0
:1016C00059F05F3F71F04795880F97FB991F61F0C4
:1016D0009F3F79F087950895121613061406551F3B
:1016E000F2CF4695F1DF08C0161617061806991FA7
:1016F000F1CF86957105610508940895E894BB279C
:1017000066277727CB0197F9089516F00C94B30C50
:101710000C943A0B68940C94340B0E94640BA8F35D
:101720009923C1F3AEF3DF93CF931F930F93FF92EF
:10173000C92FDD2788232AF02197660F771F881F7E
:10174000DAF720E030E040E85FEB9FE3883920F0F3
:10175000803E38F021968F770E94470CE4E7F0E056
:1017600004C00E94470CE1EAF0E00E94C10C8B012A
:10177000BE01EC01FB2E6F5771097595771F880B21
:10178000990B0E94F90A28E132E741E35FE30E94E6
:10179000E30BAF2D9801AE01FF900F911F91CF91F8
:1017A000DF910E945E0C0C944B0B0E943D0B38F0B5
:1017B0000E94440B20F0952311F00C94340B0C94F0
:1017C0003A0B0C947F0B0E945C0B78F39923C9F3BE
:1017D0005523B9F3950F50E0551FAA27EE27FF2791
:1017E000BB2700240894679520F4E20FF31FB41F71
:1017F0000A1E220F331F441FAA1F6695A9F777956B
:1018000030F4F30FB41F0A1E121E08F46395330F51
:10181000441FAA1F221F769599F7879520F4B40FCD
:101820000A1E121E631F440FAA1F221F331F869514
:10183000A9F7862F712D602D11249F5750409AF0E3
:10184000F1F088234AF0EE0FFF1FBB1F661F771FC2
:10185000881F91505040A9F79E3F510580F00C948D
:10186000340B0C947F0B5F3FE4F3983ED4F38695E2
:1018700077956795B795F795E7959F5FC1F7FE2B2D
:10188000880F911D9695879597F908955058BB2715
:10189000AA270E945E0C0C944B0B0E943D0B38F063
:1018A0000E94440B20F039F49F3F19F426F40C9465
:1018B0003A0B0EF4E095E7FB0C94340BE92F0E94F1
:1018C0005C0B58F3BA17620773078407950720F07B
:1018D00079F4A6F50C947E0B0EF4E0950B2EBA2F3E
:1018E000A02D0B01B90190010C01CA01A001112426
:1018F000FF27591B99F0593F50F4503E68F11A16D2
:10190000F040A22F232F342F4427585FF3CF469562
:1019100037952795A795F0405395C9F77EF41F1684
:10192000BA0B620B730B840BBAF09150A1F0FF0F4E
:10193000BB1F661F771F881FC2F70EC0BA0F621F3A
:10194000731F841F48F4879577956795B795F7952A
:101950009E3F08F0B0CF9395880F08F09927EE0FBF
:101960009795879508959F3F31F0915020F4879582
:1019700077956795B795880F911D9695879597F9F7
:101980000895DF93CF931F930F93FF92EF92DF920F
:101990007B018C01689406C0DA2EEF010E94E30BF4
:1019A000FE01E894A5912591359145915591A6F3B5
:1019B000EF010E945E0CFE019701A801DA9469F71D
:1019C000DF90EF90FF900F911F91CF91DF910895DD
:1019D000002480FD060E660F11F08695D1F7802D4C
:1019E00008950024552704C0080E591F880F991F19
:1019F000009729F076956795B8F37105B9F7802DB2
:101A0000952F0895991B79E004C0991F961708F047
:101A1000961B881F7A95C9F780950895AA1BBB1B52
:101A200051E107C0AA1FBB1FA617B70710F0A61BDE
:101A3000B70B881F991F5A95A9F780959095BC01FF
:101A4000CD010895052E97FB1EF400940E94390DD8
:101A500057FD07D00E94410D07FC03D04EF40C94B3
:101A6000390D50954095309521953F4F4F4F5F4F21
:101A7000089590958095709561957F4F8F4F9F4FFA
:101A80000895A1E21A2EAA1BBB1BFD010DC0AA1FBF
:101A9000BB1FEE1FFF1FA217B307E407F50720F0D7
:101AA000A21BB30BE40BF50B661F771F881F991F52
:101AB0001A9469F760957095809590959B01AC019B
:101AC000BD01CF010895FB01DC014150504048F0B9
:101AD00001900D920020C9F701C01D924150504065
:081AE000E0F70895F894FFCF30
:101AE800000000001C0100020003000000000000CC
:101AF80000140000000000000000000000000000CA
:101B080000000000000000000000000000000000CD
:101B180000000000000000000000000001000804B0
:101B28000C020A060E0109050D030B070F034000FE
:101B380080031003800320004000200010000800EC
:101B4800040002000103400080031003800320000A
:101B58004000200010000800040002000103800378
:0C1B680040032000800310000306080A60
:00000001FF
